{
    "_format": "hh-sol-artifact-1",
    "contractName": "Goverifier",
    "sourceName": "contracts/Goverifier.sol",
    "abi": [
        {
            "inputs": [],
            "stateMutability": "nonpayable",
            "type": "constructor"
        },
        {
            "anonymous": false,
            "inputs": [
                {
                    "indexed": true,
                    "internalType": "address",
                    "name": "owner",
                    "type": "address"
                },
                {
                    "indexed": true,
                    "internalType": "address",
                    "name": "approved",
                    "type": "address"
                },
                {
                    "indexed": true,
                    "internalType": "uint256",
                    "name": "tokenId",
                    "type": "uint256"
                }
            ],
            "name": "Approval",
            "type": "event"
        },
        {
            "anonymous": false,
            "inputs": [
                {
                    "indexed": true,
                    "internalType": "address",
                    "name": "owner",
                    "type": "address"
                },
                {
                    "indexed": true,
                    "internalType": "address",
                    "name": "operator",
                    "type": "address"
                },
                {
                    "indexed": false,
                    "internalType": "bool",
                    "name": "approved",
                    "type": "bool"
                }
            ],
            "name": "ApprovalForAll",
            "type": "event"
        },
        {
            "anonymous": false,
            "inputs": [
                {
                    "indexed": true,
                    "internalType": "address",
                    "name": "previousOwner",
                    "type": "address"
                },
                {
                    "indexed": true,
                    "internalType": "address",
                    "name": "newOwner",
                    "type": "address"
                }
            ],
            "name": "OwnershipTransferred",
            "type": "event"
        },
        {
            "anonymous": false,
            "inputs": [
                {
                    "indexed": true,
                    "internalType": "address",
                    "name": "from",
                    "type": "address"
                },
                {
                    "indexed": true,
                    "internalType": "address",
                    "name": "to",
                    "type": "address"
                },
                {
                    "indexed": true,
                    "internalType": "uint256",
                    "name": "tokenId",
                    "type": "uint256"
                }
            ],
            "name": "Transfer",
            "type": "event"
        },
        {
            "inputs": [
                {
                    "internalType": "address[]",
                    "name": "addresses",
                    "type": "address[]"
                }
            ],
            "name": "addOfficer",
            "outputs": [],
            "stateMutability": "nonpayable",
            "type": "function"
        },
        {
            "inputs": [
                {
                    "internalType": "address",
                    "name": "to",
                    "type": "address"
                },
                {
                    "internalType": "uint256",
                    "name": "tokenId",
                    "type": "uint256"
                }
            ],
            "name": "approve",
            "outputs": [],
            "stateMutability": "nonpayable",
            "type": "function"
        },
        {
            "inputs": [
                {
                    "internalType": "address",
                    "name": "owner",
                    "type": "address"
                }
            ],
            "name": "balanceOf",
            "outputs": [
                {
                    "internalType": "uint256",
                    "name": "",
                    "type": "uint256"
                }
            ],
            "stateMutability": "view",
            "type": "function"
        },
        {
            "inputs": [],
            "name": "closeSale",
            "outputs": [],
            "stateMutability": "nonpayable",
            "type": "function"
        },
        {
            "inputs": [
                {
                    "internalType": "uint256",
                    "name": "tokenId",
                    "type": "uint256"
                }
            ],
            "name": "getApproved",
            "outputs": [
                {
                    "internalType": "address",
                    "name": "",
                    "type": "address"
                }
            ],
            "stateMutability": "view",
            "type": "function"
        },
        {
            "inputs": [],
            "name": "getOfficers",
            "outputs": [
                {
                    "internalType": "address[]",
                    "name": "",
                    "type": "address[]"
                }
            ],
            "stateMutability": "view",
            "type": "function"
        },
        {
            "inputs": [
                {
                    "internalType": "address",
                    "name": "owner",
                    "type": "address"
                },
                {
                    "internalType": "address",
                    "name": "operator",
                    "type": "address"
                }
            ],
            "name": "isApprovedForAll",
            "outputs": [
                {
                    "internalType": "bool",
                    "name": "",
                    "type": "bool"
                }
            ],
            "stateMutability": "view",
            "type": "function"
        },
        {
            "inputs": [],
            "name": "isSaleActive",
            "outputs": [
                {
                    "internalType": "bool",
                    "name": "",
                    "type": "bool"
                }
            ],
            "stateMutability": "view",
            "type": "function"
        },
        {
            "inputs": [
                {
                    "internalType": "string",
                    "name": "imgURI",
                    "type": "string"
                }
            ],
            "name": "mintCustom",
            "outputs": [],
            "stateMutability": "nonpayable",
            "type": "function"
        },
        {
            "inputs": [],
            "name": "name",
            "outputs": [
                {
                    "internalType": "string",
                    "name": "",
                    "type": "string"
                }
            ],
            "stateMutability": "view",
            "type": "function"
        },
        {
            "inputs": [],
            "name": "openSale",
            "outputs": [],
            "stateMutability": "nonpayable",
            "type": "function"
        },
        {
            "inputs": [],
            "name": "owner",
            "outputs": [
                {
                    "internalType": "address",
                    "name": "",
                    "type": "address"
                }
            ],
            "stateMutability": "view",
            "type": "function"
        },
        {
            "inputs": [
                {
                    "internalType": "uint256",
                    "name": "tokenId",
                    "type": "uint256"
                }
            ],
            "name": "ownerOf",
            "outputs": [
                {
                    "internalType": "address",
                    "name": "",
                    "type": "address"
                }
            ],
            "stateMutability": "view",
            "type": "function"
        },
        {
            "inputs": [
                {
                    "internalType": "address",
                    "name": "rem",
                    "type": "address"
                }
            ],
            "name": "removeOfficer",
            "outputs": [],
            "stateMutability": "nonpayable",
            "type": "function"
        },
        {
            "inputs": [],
            "name": "renounceOwnership",
            "outputs": [],
            "stateMutability": "nonpayable",
            "type": "function"
        },
        {
            "inputs": [
                {
                    "internalType": "address",
                    "name": "from",
                    "type": "address"
                },
                {
                    "internalType": "address",
                    "name": "to",
                    "type": "address"
                },
                {
                    "internalType": "uint256",
                    "name": "tokenId",
                    "type": "uint256"
                }
            ],
            "name": "safeTransferFrom",
            "outputs": [],
            "stateMutability": "nonpayable",
            "type": "function"
        },
        {
            "inputs": [
                {
                    "internalType": "address",
                    "name": "from",
                    "type": "address"
                },
                {
                    "internalType": "address",
                    "name": "to",
                    "type": "address"
                },
                {
                    "internalType": "uint256",
                    "name": "tokenId",
                    "type": "uint256"
                },
                {
                    "internalType": "bytes",
                    "name": "data",
                    "type": "bytes"
                }
            ],
            "name": "safeTransferFrom",
            "outputs": [],
            "stateMutability": "nonpayable",
            "type": "function"
        },
        {
            "inputs": [
                {
                    "internalType": "address",
                    "name": "operator",
                    "type": "address"
                },
                {
                    "internalType": "bool",
                    "name": "approved",
                    "type": "bool"
                }
            ],
            "name": "setApprovalForAll",
            "outputs": [],
            "stateMutability": "nonpayable",
            "type": "function"
        },
        {
            "inputs": [
                {
                    "internalType": "bytes4",
                    "name": "interfaceId",
                    "type": "bytes4"
                }
            ],
            "name": "supportsInterface",
            "outputs": [
                {
                    "internalType": "bool",
                    "name": "",
                    "type": "bool"
                }
            ],
            "stateMutability": "view",
            "type": "function"
        },
        {
            "inputs": [],
            "name": "symbol",
            "outputs": [
                {
                    "internalType": "string",
                    "name": "",
                    "type": "string"
                }
            ],
            "stateMutability": "view",
            "type": "function"
        },
        {
            "inputs": [
                {
                    "internalType": "uint256",
                    "name": "tokenId",
                    "type": "uint256"
                }
            ],
            "name": "tokenURI",
            "outputs": [
                {
                    "internalType": "string",
                    "name": "",
                    "type": "string"
                }
            ],
            "stateMutability": "view",
            "type": "function"
        },
        {
            "inputs": [
                {
                    "internalType": "address",
                    "name": "from",
                    "type": "address"
                },
                {
                    "internalType": "address",
                    "name": "to",
                    "type": "address"
                },
                {
                    "internalType": "uint256",
                    "name": "tokenId",
                    "type": "uint256"
                }
            ],
            "name": "transferFrom",
            "outputs": [],
            "stateMutability": "nonpayable",
            "type": "function"
        },
        {
            "inputs": [
                {
                    "internalType": "address",
                    "name": "newOwner",
                    "type": "address"
                }
            ],
            "name": "transferOwnership",
            "outputs": [],
            "stateMutability": "nonpayable",
            "type": "function"
        }
    ],
    "bytecode": "0x6080604052600b805460ff191660011790553480156200001e57600080fd5b50604080518082018252600a81526923b7bb32b934b334b2b960b11b60208083019182528351808501909452600484526323ab2a2b60e11b9084015281519192916200006d916000916200011c565b508051620000839060019060208401906200011c565b505050620000a06200009a620000bd60201b60201c565b620000c1565b620000b760086200011360201b62000c9b1760201c565b620001ff565b3390565b600780546001600160a01b038381166001600160a01b0319831681179093556040519116919082907f8be0079c531659141344cd1fd0a4f28419497f9722a3daafe3b4186f6b6457e090600090a35050565b80546001019055565b8280546200012a90620001c2565b90600052602060002090601f0160209004810192826200014e576000855562000199565b82601f106200016957805160ff191683800117855562000199565b8280016001018555821562000199579182015b82811115620001995782518255916020019190600101906200017c565b50620001a7929150620001ab565b5090565b5b80821115620001a75760008155600101620001ac565b600181811c90821680620001d757607f821691505b60208210811415620001f957634e487b7160e01b600052602260045260246000fd5b50919050565b6120d4806200020f6000396000f3fe608060405234801561001057600080fd5b506004361061014d5760003560e01c80636352211e116100c3578063a22cb4651161007c578063a22cb465146102ad578063b88d4fde146102c0578063c87b56dd146102d3578063e985e9c5146102e6578063ee55efee14610322578063f2fde38b1461032a57600080fd5b80636352211e1461024557806370a0823114610258578063715018a614610279578063719a0f8c146102815780638da5cb5b1461029457806395d89b41146102a557600080fd5b80630cfe6dbe116101155780630cfe6dbe146101e25780630f7151dc146101f5578063167ff46f1461020a57806323b872dd1461021257806342842e0e14610225578063564566a81461023857600080fd5b806301ffc9a71461015257806306fdde031461017a578063081812fc1461018f578063095ea7b3146101ba5780630b9c66d4146101cf575b600080fd5b610165610160366004611af4565b61033d565b60405190151581526020015b60405180910390f35b61018261038f565b6040516101719190611e2a565b6101a261019d366004611b72565b610421565b6040516001600160a01b039091168152602001610171565b6101cd6101c8366004611a1c565b610448565b005b6101cd6101dd366004611b2c565b610563565b6101cd6101f0366004611a45565b610725565b6101fd6107a8565b6040516101719190611ddd565b6101cd610809565b6101cd61022036600461192e565b610820565b6101cd61023336600461192e565b610851565b600b546101659060ff1681565b6101a2610253366004611b72565b61086c565b61026b6102663660046118e2565b6108cc565b604051908152602001610171565b6101cd610952565b6101cd61028f3660046118e2565b610966565b6007546001600160a01b03166101a2565b610182610aab565b6101cd6102bb3660046119e2565b610aba565b6101cd6102ce366004611969565b610ac5565b6101826102e1366004611b72565b610afd565b6101656102f43660046118fc565b6001600160a01b03918216600090815260056020908152604080832093909416825291909152205460ff1690565b6101cd610c0e565b6101cd6103383660046118e2565b610c22565b60006001600160e01b031982166380ac58cd60e01b148061036e57506001600160e01b03198216635b5e139f60e01b145b8061038957506301ffc9a760e01b6001600160e01b03198316145b92915050565b60606000805461039e90611f9c565b80601f01602080910402602001604051908101604052809291908181526020018280546103ca90611f9c565b80156104175780601f106103ec57610100808354040283529160200191610417565b820191906000526020600020905b8154815290600101906020018083116103fa57829003601f168201915b5050505050905090565b600061042c82610ca4565b506000908152600460205260409020546001600160a01b031690565b60006104538261086c565b9050806001600160a01b0316836001600160a01b031614156104c65760405162461bcd60e51b815260206004820152602160248201527f4552433732313a20617070726f76616c20746f2063757272656e74206f776e656044820152603960f91b60648201526084015b60405180910390fd5b336001600160a01b03821614806104e257506104e281336102f4565b6105545760405162461bcd60e51b815260206004820152603e60248201527f4552433732313a20617070726f76652063616c6c6572206973206e6f7420746f60448201527f6b656e206f776e6572206e6f7220617070726f76656420666f7220616c6c000060648201526084016104bd565b61055e8383610d03565b505050565b61056b610d71565b600b5460ff166105b35760405162461bcd60e51b815260206004820152601360248201527214dbdc9c9e4b081d1bdbc81b185d19481b1bdb606a1b60448201526064016104bd565b60005b6009548110156107215760006106096105d66105d160085490565b610dcb565b6105e26105d160085490565b856040516020016105f593929190611c46565b604051602081830303815290604052610ee5565b905060008160405160200161061e9190611c01565b604051602081830303815290604052905061063881611059565b61064a3361064560085490565b61109c565b61065c61065660085490565b826110b6565b61066e3361066960085490565b610d03565b6106b1336009858154811061069357634e487b7160e01b600052603260045260246000fd5b6000918252602090912001546001600160a01b031661023360085490565b600854600a6000600986815481106106d957634e487b7160e01b600052603260045260246000fd5b60009182526020808320909101546001600160a01b0316835282019290925260400190205561070c600880546001019055565b5050808061071990611fd7565b9150506105b6565b5050565b61072d610d71565b60005b815181101561072157600982828151811061075b57634e487b7160e01b600052603260045260246000fd5b60209081029190910181015182546001810184556000938452919092200180546001600160a01b0319166001600160a01b03909216919091179055806107a081611fd7565b915050610730565b6060600980548060200260200160405190810160405280929190818152602001828054801561041757602002820191906000526020600020905b81546001600160a01b031681526001909101906020018083116107e2575050505050905090565b610811610d71565b600b805460ff19166001179055565b61082a3382611150565b6108465760405162461bcd60e51b81526004016104bd90611e8f565b61055e8383836111ce565b61055e83838360405180602001604052806000815250610ac5565b6000818152600260205260408120546001600160a01b0316806103895760405162461bcd60e51b8152602060048201526018602482015277115490cdcc8c4e881a5b9d985b1a59081d1bdad95b88125160421b60448201526064016104bd565b60006001600160a01b0382166109365760405162461bcd60e51b815260206004820152602960248201527f4552433732313a2061646472657373207a65726f206973206e6f7420612076616044820152683634b21037bbb732b960b91b60648201526084016104bd565b506001600160a01b031660009081526003602052604090205490565b61095a610d71565b610964600061136a565b565b61096e610d71565b60005b60095481101561072157816001600160a01b0316600982815481106109a657634e487b7160e01b600052603260045260246000fd5b6000918252602090912001546001600160a01b03161415610a9957600980546109d190600190611f59565b815481106109ef57634e487b7160e01b600052603260045260246000fd5b600091825260209091200154600980546001600160a01b039092169183908110610a2957634e487b7160e01b600052603260045260246000fd5b9060005260206000200160006101000a8154816001600160a01b0302191690836001600160a01b031602179055506009805480610a7657634e487b7160e01b600052603160045260246000fd5b600082815260209020810160001990810180546001600160a01b03191690550190555b80610aa381611fd7565b915050610971565b60606001805461039e90611f9c565b6107213383836113bc565b610acf3383611150565b610aeb5760405162461bcd60e51b81526004016104bd90611e8f565b610af78484848461148b565b50505050565b6060610b0882610ca4565b60008281526006602052604081208054610b2190611f9c565b80601f0160208091040260200160405190810160405280929190818152602001828054610b4d90611f9c565b8015610b9a5780601f10610b6f57610100808354040283529160200191610b9a565b820191906000526020600020905b815481529060010190602001808311610b7d57829003601f168201915b505050505090506000610bb860408051602081019091526000815290565b9050805160001415610bcb575092915050565b815115610bfd578082604051602001610be5929190611bd2565b60405160208183030381529060405292505050919050565b610c06846114be565b949350505050565b610c16610d71565b600b805460ff19169055565b610c2a610d71565b6001600160a01b038116610c8f5760405162461bcd60e51b815260206004820152602660248201527f4f776e61626c653a206e6577206f776e657220697320746865207a65726f206160448201526564647265737360d01b60648201526084016104bd565b610c988161136a565b50565b80546001019055565b6000818152600260205260409020546001600160a01b0316610c985760405162461bcd60e51b8152602060048201526018602482015277115490cdcc8c4e881a5b9d985b1a59081d1bdad95b88125160421b60448201526064016104bd565b600081815260046020526040902080546001600160a01b0319166001600160a01b0384169081179091558190610d388261086c565b6001600160a01b03167f8c5be1e5ebec7d5bd14f71427d1e84f3dd0314c0f7b2291e5b200ac8c7c3b92560405160405180910390a45050565b6007546001600160a01b031633146109645760405162461bcd60e51b815260206004820181905260248201527f4f776e61626c653a2063616c6c6572206973206e6f7420746865206f776e657260448201526064016104bd565b606081610def5750506040805180820190915260018152600360fc1b602082015290565b8160005b8115610e195780610e0381611fd7565b9150610e129050600a83611f26565b9150610df3565b60008167ffffffffffffffff811115610e4257634e487b7160e01b600052604160045260246000fd5b6040519080825280601f01601f191660200182016040528015610e6c576020820181803683370190505b5090505b8415610c0657610e81600183611f59565b9150610e8e600a86611ff2565b610e99906030611f0e565b60f81b818381518110610ebc57634e487b7160e01b600052603260045260246000fd5b60200101906001600160f81b031916908160001a905350610ede600a86611f26565b9450610e70565b805160609080610f05575050604080516020810190915260008152919050565b60006003610f14836002611f0e565b610f1e9190611f26565b610f29906004611f3a565b90506000610f38826020611f0e565b67ffffffffffffffff811115610f5e57634e487b7160e01b600052604160045260246000fd5b6040519080825280601f01601f191660200182016040528015610f88576020820181803683370190505b509050600060405180606001604052806040815260200161205f604091399050600181016020830160005b86811015611014576003818a01810151603f601282901c8116860151600c83901c8216870151600684901c831688015192909316870151600891821b60ff94851601821b92841692909201901b91160160e01b835260049092019101610fb3565b50600386066001811461102e576002811461103f5761104b565b613d3d60f01b60011983015261104b565b603d60f81b6000198301525b505050918152949350505050565b610c988160405160240161106d9190611e2a565b60408051601f198184030181529190526020810180516001600160e01b031663104c13eb60e21b179052611532565b610721828260405180602001604052806000815250611553565b6000828152600260205260409020546001600160a01b03166111315760405162461bcd60e51b815260206004820152602e60248201527f45524337323155524953746f726167653a2055524920736574206f66206e6f6e60448201526d32bc34b9ba32b73a103a37b5b2b760911b60648201526084016104bd565b6000828152600660209081526040909120825161055e928401906117d5565b60008061115c8361086c565b9050806001600160a01b0316846001600160a01b031614806111a357506001600160a01b0380821660009081526005602090815260408083209388168352929052205460ff165b80610c065750836001600160a01b03166111bc84610421565b6001600160a01b031614949350505050565b826001600160a01b03166111e18261086c565b6001600160a01b0316146112455760405162461bcd60e51b815260206004820152602560248201527f4552433732313a207472616e736665722066726f6d20696e636f72726563742060448201526437bbb732b960d91b60648201526084016104bd565b6001600160a01b0382166112a75760405162461bcd60e51b8152602060048201526024808201527f4552433732313a207472616e7366657220746f20746865207a65726f206164646044820152637265737360e01b60648201526084016104bd565b6112b2600082610d03565b6001600160a01b03831660009081526003602052604081208054600192906112db908490611f59565b90915550506001600160a01b0382166000908152600360205260408120805460019290611309908490611f0e565b909155505060008181526002602052604080822080546001600160a01b0319166001600160a01b0386811691821790925591518493918716917fddf252ad1be2c89b69c2b068fc378daa952ba7f163c4a11628f55a4df523b3ef91a4505050565b600780546001600160a01b038381166001600160a01b0319831681179093556040519116919082907f8be0079c531659141344cd1fd0a4f28419497f9722a3daafe3b4186f6b6457e090600090a35050565b816001600160a01b0316836001600160a01b0316141561141e5760405162461bcd60e51b815260206004820152601960248201527f4552433732313a20617070726f766520746f2063616c6c65720000000000000060448201526064016104bd565b6001600160a01b03838116600081815260056020908152604080832094871680845294825291829020805460ff191686151590811790915591519182527f17307eab39ab6107e8899845ad3d59bd9653f200f220920489ca2b5937696c31910160405180910390a3505050565b6114968484846111ce565b6114a284848484611586565b610af75760405162461bcd60e51b81526004016104bd90611e3d565b60606114c982610ca4565b60006114e060408051602081019091526000815290565b90506000815111611500576040518060200160405280600081525061152b565b8061150a84610dcb565b60405160200161151b929190611bd2565b6040516020818303038152906040525b9392505050565b80516a636f6e736f6c652e6c6f67602083016000808483855afa5050505050565b61155d8383611693565b61156a6000848484611586565b61055e5760405162461bcd60e51b81526004016104bd90611e3d565b60006001600160a01b0384163b1561168857604051630a85bd0160e11b81526001600160a01b0385169063150b7a02906115ca903390899088908890600401611daa565b602060405180830381600087803b1580156115e457600080fd5b505af1925050508015611614575060408051601f3d908101601f1916820190925261161191810190611b10565b60015b61166e573d808015611642576040519150601f19603f3d011682016040523d82523d6000602084013e611647565b606091505b5080516116665760405162461bcd60e51b81526004016104bd90611e3d565b805181602001fd5b6001600160e01b031916630a85bd0160e11b149050610c06565b506001949350505050565b6001600160a01b0382166116e95760405162461bcd60e51b815260206004820181905260248201527f4552433732313a206d696e7420746f20746865207a65726f206164647265737360448201526064016104bd565b6000818152600260205260409020546001600160a01b03161561174e5760405162461bcd60e51b815260206004820152601c60248201527f4552433732313a20746f6b656e20616c7265616479206d696e7465640000000060448201526064016104bd565b6001600160a01b0382166000908152600360205260408120805460019290611777908490611f0e565b909155505060008181526002602052604080822080546001600160a01b0319166001600160a01b03861690811790915590518392907fddf252ad1be2c89b69c2b068fc378daa952ba7f163c4a11628f55a4df523b3ef908290a45050565b8280546117e190611f9c565b90600052602060002090601f0160209004810192826118035760008555611849565b82601f1061181c57805160ff1916838001178555611849565b82800160010185558215611849579182015b8281111561184957825182559160200191906001019061182e565b50611855929150611859565b5090565b5b80821115611855576000815560010161185a565b600067ffffffffffffffff83111561188857611888612032565b61189b601f8401601f1916602001611edd565b90508281528383830111156118af57600080fd5b828260208301376000602084830101529392505050565b80356001600160a01b03811681146118dd57600080fd5b919050565b6000602082840312156118f3578081fd5b61152b826118c6565b6000806040838503121561190e578081fd5b611917836118c6565b9150611925602084016118c6565b90509250929050565b600080600060608486031215611942578081fd5b61194b846118c6565b9250611959602085016118c6565b9150604084013590509250925092565b6000806000806080858703121561197e578081fd5b611987856118c6565b9350611995602086016118c6565b925060408501359150606085013567ffffffffffffffff8111156119b7578182fd5b8501601f810187136119c7578182fd5b6119d68782356020840161186e565b91505092959194509250565b600080604083850312156119f4578182fd5b6119fd836118c6565b915060208301358015158114611a11578182fd5b809150509250929050565b60008060408385031215611a2e578182fd5b611a37836118c6565b946020939093013593505050565b60006020808385031215611a57578182fd5b823567ffffffffffffffff80821115611a6e578384fd5b818501915085601f830112611a81578384fd5b813581811115611a9357611a93612032565b8060051b9150611aa4848301611edd565b8181528481019084860184860187018a1015611abe578788fd5b8795505b83861015611ae757611ad3816118c6565b835260019590950194918601918601611ac2565b5098975050505050505050565b600060208284031215611b05578081fd5b813561152b81612048565b600060208284031215611b21578081fd5b815161152b81612048565b600060208284031215611b3d578081fd5b813567ffffffffffffffff811115611b53578182fd5b8201601f81018413611b63578182fd5b610c068482356020840161186e565b600060208284031215611b83578081fd5b5035919050565b60008151808452611ba2816020860160208601611f70565b601f01601f19169290920160200192915050565b60008151611bc8818560208601611f70565b9290920192915050565b60008351611be4818460208801611f70565b835190830190611bf8818360208801611f70565b01949350505050565b7f646174613a6170706c69636174696f6e2f6a736f6e3b6261736536342c000000815260008251611c3981601d850160208701611f70565b91909101601d0192915050565b707b20226e616d65223a202247565456202360781b81528351600090611c73816011850160208901611f70565b6801116101134b2111d160bd1b6011918401918201528451611c9c81601a840160208901611f70565b7f2c20226465736372697074696f6e223a20224e4654204d696e74657220666f729101601a8101919091527501023b7bb32b934b334b2b910383937b532b1ba1116160551b603a8201527f22747261697473223a205b7b202274726169745f74797065223a20225649502260508201527f2c202276616c7565223a20227472756522207d2c207b202274726169745f747960708201527f7065223a2022507572636861736564222c202276616c7565223a202274727565609082015265011103eae96160d51b60b08201527022696d616765223a2022697066733a2f2f60781b60b6820152611da0611d9160c7830186611bb6565b6222207d60e81b815260030190565b9695505050505050565b6001600160a01b0385811682528416602082015260408101839052608060608201819052600090611da090830184611b8a565b6020808252825182820181905260009190848201906040850190845b81811015611e1e5783516001600160a01b031683529284019291840191600101611df9565b50909695505050505050565b60208152600061152b6020830184611b8a565b60208082526032908201527f4552433732313a207472616e7366657220746f206e6f6e20455243373231526560408201527131b2b4bb32b91034b6b83632b6b2b73a32b960711b606082015260800190565b6020808252602e908201527f4552433732313a2063616c6c6572206973206e6f7420746f6b656e206f776e6560408201526d1c881b9bdc88185c1c1c9bdd995960921b606082015260800190565b604051601f8201601f1916810167ffffffffffffffff81118282101715611f0657611f06612032565b604052919050565b60008219821115611f2157611f21612006565b500190565b600082611f3557611f3561201c565b500490565b6000816000190483118215151615611f5457611f54612006565b500290565b600082821015611f6b57611f6b612006565b500390565b60005b83811015611f8b578181015183820152602001611f73565b83811115610af75750506000910152565b600181811c90821680611fb057607f821691505b60208210811415611fd157634e487b7160e01b600052602260045260246000fd5b50919050565b6000600019821415611feb57611feb612006565b5060010190565b6000826120015761200161201c565b500690565b634e487b7160e01b600052601160045260246000fd5b634e487b7160e01b600052601260045260246000fd5b634e487b7160e01b600052604160045260246000fd5b6001600160e01b031981168114610c9857600080fdfe4142434445464748494a4b4c4d4e4f505152535455565758595a6162636465666768696a6b6c6d6e6f707172737475767778797a303132333435363738392b2fa264697066735822122030d936542f3b00216476ad1fed40337a9ea72fd5339184f43f5fc88941b9eaf264736f6c63430008040033",
    "linkReferences": {},
    "deployedLinkReferences": {}
}