{
    "_format": "hh-sol-artifact-1",
    "contractName": "Goverifier",
    "sourceName": "contracts/Goverifier.sol",
    "abi": [
        {
            "inputs": [],
            "stateMutability": "nonpayable",
            "type": "constructor"
        },
        {
            "anonymous": false,
            "inputs": [
                {
                    "indexed": true,
                    "internalType": "address",
                    "name": "owner",
                    "type": "address"
                },
                {
                    "indexed": true,
                    "internalType": "address",
                    "name": "approved",
                    "type": "address"
                },
                {
                    "indexed": true,
                    "internalType": "uint256",
                    "name": "tokenId",
                    "type": "uint256"
                }
            ],
            "name": "Approval",
            "type": "event"
        },
        {
            "anonymous": false,
            "inputs": [
                {
                    "indexed": true,
                    "internalType": "address",
                    "name": "owner",
                    "type": "address"
                },
                {
                    "indexed": true,
                    "internalType": "address",
                    "name": "operator",
                    "type": "address"
                },
                {
                    "indexed": false,
                    "internalType": "bool",
                    "name": "approved",
                    "type": "bool"
                }
            ],
            "name": "ApprovalForAll",
            "type": "event"
        },
        {
            "anonymous": false,
            "inputs": [
                {
                    "indexed": true,
                    "internalType": "address",
                    "name": "previousOwner",
                    "type": "address"
                },
                {
                    "indexed": true,
                    "internalType": "address",
                    "name": "newOwner",
                    "type": "address"
                }
            ],
            "name": "OwnershipTransferred",
            "type": "event"
        },
        {
            "anonymous": false,
            "inputs": [
                {
                    "indexed": true,
                    "internalType": "address",
                    "name": "from",
                    "type": "address"
                },
                {
                    "indexed": true,
                    "internalType": "address",
                    "name": "to",
                    "type": "address"
                },
                {
                    "indexed": true,
                    "internalType": "uint256",
                    "name": "tokenId",
                    "type": "uint256"
                }
            ],
            "name": "Transfer",
            "type": "event"
        },
        {
            "inputs": [
                {
                    "internalType": "address[]",
                    "name": "addresses",
                    "type": "address[]"
                }
            ],
            "name": "addOfficer",
            "outputs": [],
            "stateMutability": "nonpayable",
            "type": "function"
        },
        {
            "inputs": [
                {
                    "internalType": "address",
                    "name": "to",
                    "type": "address"
                },
                {
                    "internalType": "uint256",
                    "name": "tokenId",
                    "type": "uint256"
                }
            ],
            "name": "approve",
            "outputs": [],
            "stateMutability": "nonpayable",
            "type": "function"
        },
        {
            "inputs": [
                {
                    "internalType": "address",
                    "name": "owner",
                    "type": "address"
                }
            ],
            "name": "balanceOf",
            "outputs": [
                {
                    "internalType": "uint256",
                    "name": "",
                    "type": "uint256"
                }
            ],
            "stateMutability": "view",
            "type": "function"
        },
        {
            "inputs": [
                {
                    "internalType": "address",
                    "name": "addr",
                    "type": "address"
                }
            ],
            "name": "changeNFT",
            "outputs": [],
            "stateMutability": "nonpayable",
            "type": "function"
        },
        {
            "inputs": [],
            "name": "clearVotes",
            "outputs": [],
            "stateMutability": "nonpayable",
            "type": "function"
        },
        {
            "inputs": [],
            "name": "closeSale",
            "outputs": [],
            "stateMutability": "nonpayable",
            "type": "function"
        },
        {
            "inputs": [
                {
                    "internalType": "uint256",
                    "name": "tokenId",
                    "type": "uint256"
                }
            ],
            "name": "getApproved",
            "outputs": [
                {
                    "internalType": "address",
                    "name": "",
                    "type": "address"
                }
            ],
            "stateMutability": "view",
            "type": "function"
        },
        {
            "inputs": [],
            "name": "getOfficers",
            "outputs": [
                {
                    "internalType": "address[]",
                    "name": "",
                    "type": "address[]"
                }
            ],
            "stateMutability": "view",
            "type": "function"
        },
        {
            "inputs": [],
            "name": "getProposal",
            "outputs": [
                {
                    "internalType": "string[]",
                    "name": "",
                    "type": "string[]"
                }
            ],
            "stateMutability": "view",
            "type": "function"
        },
        {
            "inputs": [
                {
                    "internalType": "string",
                    "name": "name",
                    "type": "string"
                }
            ],
            "name": "getVotes",
            "outputs": [
                {
                    "internalType": "bool",
                    "name": "",
                    "type": "bool"
                }
            ],
            "stateMutability": "view",
            "type": "function"
        },
        {
            "inputs": [
                {
                    "internalType": "address",
                    "name": "owner",
                    "type": "address"
                },
                {
                    "internalType": "address",
                    "name": "operator",
                    "type": "address"
                }
            ],
            "name": "isApprovedForAll",
            "outputs": [
                {
                    "internalType": "bool",
                    "name": "",
                    "type": "bool"
                }
            ],
            "stateMutability": "view",
            "type": "function"
        },
        {
            "inputs": [],
            "name": "isSaleActive",
            "outputs": [
                {
                    "internalType": "bool",
                    "name": "",
                    "type": "bool"
                }
            ],
            "stateMutability": "view",
            "type": "function"
        },
        {
            "inputs": [
                {
                    "internalType": "string",
                    "name": "imgURI",
                    "type": "string"
                }
            ],
            "name": "mintCustom",
            "outputs": [],
            "stateMutability": "nonpayable",
            "type": "function"
        },
        {
            "inputs": [],
            "name": "name",
            "outputs": [
                {
                    "internalType": "string",
                    "name": "",
                    "type": "string"
                }
            ],
            "stateMutability": "view",
            "type": "function"
        },
        {
            "inputs": [
                {
                    "internalType": "string",
                    "name": "name",
                    "type": "string"
                }
            ],
            "name": "newProposal",
            "outputs": [],
            "stateMutability": "nonpayable",
            "type": "function"
        },
        {
            "inputs": [],
            "name": "openSale",
            "outputs": [],
            "stateMutability": "nonpayable",
            "type": "function"
        },
        {
            "inputs": [],
            "name": "owner",
            "outputs": [
                {
                    "internalType": "address",
                    "name": "",
                    "type": "address"
                }
            ],
            "stateMutability": "view",
            "type": "function"
        },
        {
            "inputs": [
                {
                    "internalType": "uint256",
                    "name": "tokenId",
                    "type": "uint256"
                }
            ],
            "name": "ownerOf",
            "outputs": [
                {
                    "internalType": "address",
                    "name": "",
                    "type": "address"
                }
            ],
            "stateMutability": "view",
            "type": "function"
        },
        {
            "inputs": [
                {
                    "internalType": "address",
                    "name": "rem",
                    "type": "address"
                }
            ],
            "name": "removeOfficer",
            "outputs": [],
            "stateMutability": "nonpayable",
            "type": "function"
        },
        {
            "inputs": [],
            "name": "renounceOwnership",
            "outputs": [],
            "stateMutability": "nonpayable",
            "type": "function"
        },
        {
            "inputs": [
                {
                    "internalType": "address",
                    "name": "from",
                    "type": "address"
                },
                {
                    "internalType": "address",
                    "name": "to",
                    "type": "address"
                },
                {
                    "internalType": "uint256",
                    "name": "tokenId",
                    "type": "uint256"
                }
            ],
            "name": "safeTransferFrom",
            "outputs": [],
            "stateMutability": "nonpayable",
            "type": "function"
        },
        {
            "inputs": [
                {
                    "internalType": "address",
                    "name": "from",
                    "type": "address"
                },
                {
                    "internalType": "address",
                    "name": "to",
                    "type": "address"
                },
                {
                    "internalType": "uint256",
                    "name": "tokenId",
                    "type": "uint256"
                },
                {
                    "internalType": "bytes",
                    "name": "data",
                    "type": "bytes"
                }
            ],
            "name": "safeTransferFrom",
            "outputs": [],
            "stateMutability": "nonpayable",
            "type": "function"
        },
        {
            "inputs": [
                {
                    "internalType": "address",
                    "name": "operator",
                    "type": "address"
                },
                {
                    "internalType": "bool",
                    "name": "approved",
                    "type": "bool"
                }
            ],
            "name": "setApprovalForAll",
            "outputs": [],
            "stateMutability": "nonpayable",
            "type": "function"
        },
        {
            "inputs": [
                {
                    "internalType": "bytes4",
                    "name": "interfaceId",
                    "type": "bytes4"
                }
            ],
            "name": "supportsInterface",
            "outputs": [
                {
                    "internalType": "bool",
                    "name": "",
                    "type": "bool"
                }
            ],
            "stateMutability": "view",
            "type": "function"
        },
        {
            "inputs": [],
            "name": "symbol",
            "outputs": [
                {
                    "internalType": "string",
                    "name": "",
                    "type": "string"
                }
            ],
            "stateMutability": "view",
            "type": "function"
        },
        {
            "inputs": [
                {
                    "internalType": "uint256",
                    "name": "tokenId",
                    "type": "uint256"
                }
            ],
            "name": "tokenURI",
            "outputs": [
                {
                    "internalType": "string",
                    "name": "",
                    "type": "string"
                }
            ],
            "stateMutability": "view",
            "type": "function"
        },
        {
            "inputs": [
                {
                    "internalType": "address",
                    "name": "from",
                    "type": "address"
                },
                {
                    "internalType": "address",
                    "name": "to",
                    "type": "address"
                },
                {
                    "internalType": "uint256",
                    "name": "tokenId",
                    "type": "uint256"
                }
            ],
            "name": "transferFrom",
            "outputs": [],
            "stateMutability": "nonpayable",
            "type": "function"
        },
        {
            "inputs": [
                {
                    "internalType": "address",
                    "name": "newOwner",
                    "type": "address"
                }
            ],
            "name": "transferOwnership",
            "outputs": [],
            "stateMutability": "nonpayable",
            "type": "function"
        },
        {
            "inputs": [
                {
                    "internalType": "address",
                    "name": "add",
                    "type": "address"
                }
            ],
            "name": "verifyUser",
            "outputs": [
                {
                    "internalType": "bool",
                    "name": "",
                    "type": "bool"
                }
            ],
            "stateMutability": "view",
            "type": "function"
        },
        {
            "inputs": [
                {
                    "internalType": "string",
                    "name": "name",
                    "type": "string"
                },
                {
                    "internalType": "uint256",
                    "name": "voteVal",
                    "type": "uint256"
                }
            ],
            "name": "vote",
            "outputs": [],
            "stateMutability": "nonpayable",
            "type": "function"
        }
    ],
    "bytecode": "0x60806040526000600d819055600e556011805460ff191660011790553480156200002857600080fd5b50604080518082018252600a81526923b7bb32b934b334b2b960b11b60208083019182528351808501909452600484526323ab2a2b60e11b908401528151919291620000779160009162000126565b5080516200008d90600190602084019062000126565b505050620000aa620000a4620000c760201b60201c565b620000cb565b620000c160086200011d60201b620010e01760201c565b62000209565b3390565b600780546001600160a01b038381166001600160a01b0319831681179093556040519116919082907f8be0079c531659141344cd1fd0a4f28419497f9722a3daafe3b4186f6b6457e090600090a35050565b80546001019055565b8280546200013490620001cc565b90600052602060002090601f016020900481019282620001585760008555620001a3565b82601f106200017357805160ff1916838001178555620001a3565b82800160010185558215620001a3579182015b82811115620001a357825182559160200191906001019062000186565b50620001b1929150620001b5565b5090565b5b80821115620001b15760008155600101620001b6565b600181811c90821680620001e157607f821691505b602082108114156200020357634e487b7160e01b600052602260045260246000fd5b50919050565b6127ee80620002196000396000f3fe608060405234801561001057600080fd5b50600436106101da5760003560e01c8063715018a611610104578063a6385803116100a2578063c87b56dd11610071578063c87b56dd146103fb578063e985e9c51461040e578063ee55efee1461044a578063f2fde38b1461045257600080fd5b8063a6385803146103ad578063a907dded146103c0578063b88d4fde146103d3578063b9e2bea0146103e657600080fd5b80638da5cb5b116100de5780638da5cb5b1461037257806392da78ee1461038357806395d89b4114610392578063a22cb4651461039a57600080fd5b8063715018a614610344578063719a0f8c1461034c578063805265e51461035f57600080fd5b8063167ff46f1161017c5780634f24186a1161014b5780634f24186a146102f0578063564566a8146103035780636352211e1461031057806370a082311461032357600080fd5b8063167ff46f1461029757806323b872dd1461029f57806342842e0e146102b25780634d813120146102c557600080fd5b8063095ea7b3116101b8578063095ea7b3146102475780630b9c66d41461025c5780630cfe6dbe1461026f5780630f7151dc1461028257600080fd5b806301ffc9a7146101df57806306fdde0314610207578063081812fc1461021c575b600080fd5b6101f26101ed366004611f58565b610465565b60405190151581526020015b60405180910390f35b61020f6104b7565b6040516101fe9190612544565b61022f61022a366004612006565b610549565b6040516001600160a01b0390911681526020016101fe565b61025a610255366004611e80565b610570565b005b61025a61026a366004611f90565b61068b565b61025a61027d366004611ea9565b610861565b61028a6108e4565b6040516101fe9190612496565b61025a610945565b61025a6102ad366004611d92565b61095c565b61025a6102c0366004611d92565b61098d565b6101f26102d3366004611d46565b6001600160a01b03166000908152600a6020526040902054151590565b61025a6102fe366004611f90565b6109a8565b6011546101f29060ff1681565b61022f61031e366004612006565b6109f3565b610336610331366004611d46565b610a53565b6040519081526020016101fe565b61025a610ad9565b61025a61035a366004611d46565b610aed565b6101f261036d366004611f90565b610c32565b6007546001600160a01b031661022f565b61025a6000600d819055600e55565b61020f610c5d565b61025a6103a8366004611e46565b610c6c565b61025a6103bb366004611fc3565b610c77565b61025a6103ce366004611d46565b610dc2565b61025a6103e1366004611dcd565b610e37565b6103ee610e69565b6040516101fe91906124e3565b61020f610409366004612006565b610f42565b6101f261041c366004611d60565b6001600160a01b03918216600090815260056020908152604080832093909416825291909152205460ff1690565b61025a611053565b61025a610460366004611d46565b611067565b60006001600160e01b031982166380ac58cd60e01b148061049657506001600160e01b03198216635b5e139f60e01b145b806104b157506301ffc9a760e01b6001600160e01b03198316145b92915050565b6060600080546104c6906126b6565b80601f01602080910402602001604051908101604052809291908181526020018280546104f2906126b6565b801561053f5780601f106105145761010080835404028352916020019161053f565b820191906000526020600020905b81548152906001019060200180831161052257829003601f168201915b5050505050905090565b6000610554826110e9565b506000908152600460205260409020546001600160a01b031690565b600061057b826109f3565b9050806001600160a01b0316836001600160a01b031614156105ee5760405162461bcd60e51b815260206004820152602160248201527f4552433732313a20617070726f76616c20746f2063757272656e74206f776e656044820152603960f91b60648201526084015b60405180910390fd5b336001600160a01b038216148061060a575061060a813361041c565b61067c5760405162461bcd60e51b815260206004820152603e60248201527f4552433732313a20617070726f76652063616c6c6572206973206e6f7420746f60448201527f6b656e206f776e6572206e6f7220617070726f76656420666f7220616c6c000060648201526084016105e5565b6106868383611148565b505050565b6106936111b6565b60115460ff166106db5760405162461bcd60e51b815260206004820152601360248201527214dbdc9c9e4b081d1bdbc81b185d19481b1bdb606a1b60448201526064016105e5565b80516106ee90600c906020840190611c1a565b5060005b60095481101561085d57600061074561071261070d60085490565b611210565b61071e61070d60085490565b8560405160200161073193929190612122565b60405160208183030381529060405261132a565b905060008160405160200161075a91906120dd565b60405160208183030381529060405290506107748161149e565b6107863361078160085490565b6114e1565b61079861079260085490565b826114fb565b6107aa336107a560085490565b611148565b6107ed33600985815481106107cf57634e487b7160e01b600052603260045260246000fd5b6000918252602090912001546001600160a01b03166102c060085490565b600854600a60006009868154811061081557634e487b7160e01b600052603260045260246000fd5b60009182526020808320909101546001600160a01b03168352820192909252604001902055610848600880546001019055565b50508080610855906126f1565b9150506106f2565b5050565b6108696111b6565b60005b815181101561085d57600982828151811061089757634e487b7160e01b600052603260045260246000fd5b60209081029190910181015182546001810184556000938452919092200180546001600160a01b0319166001600160a01b03909216919091179055806108dc816126f1565b91505061086c565b6060600980548060200260200160405190810160405280929190818152602001828054801561053f57602002820191906000526020600020905b81546001600160a01b0316815260019091019060200180831161091e575050505050905090565b61094d6111b6565b6011805460ff19166001179055565b6109663382611595565b6109825760405162461bcd60e51b81526004016105e5906125a9565b610686838383611613565b61068683838360405180602001604052806000815250610e37565b6109b06111b6565b600b8054600181018255600091909152815161085d917f0175b7a638427703f0dbe7bb9bbf987a2551717b34e79f33b5b1008d1fa01db901906020840190611c1a565b6000818152600260205260408120546001600160a01b0316806104b15760405162461bcd60e51b8152602060048201526018602482015277115490cdcc8c4e881a5b9d985b1a59081d1bdad95b88125160421b60448201526064016105e5565b60006001600160a01b038216610abd5760405162461bcd60e51b815260206004820152602960248201527f4552433732313a2061646472657373207a65726f206973206e6f7420612076616044820152683634b21037bbb732b960b91b60648201526084016105e5565b506001600160a01b031660009081526003602052604090205490565b610ae16111b6565b610aeb60006117af565b565b610af56111b6565b60005b60095481101561085d57816001600160a01b031660098281548110610b2d57634e487b7160e01b600052603260045260246000fd5b6000918252602090912001546001600160a01b03161415610c205760098054610b5890600190612673565b81548110610b7657634e487b7160e01b600052603260045260246000fd5b600091825260209091200154600980546001600160a01b039092169183908110610bb057634e487b7160e01b600052603260045260246000fd5b9060005260206000200160006101000a8154816001600160a01b0302191690836001600160a01b031602179055506009805480610bfd57634e487b7160e01b600052603160045260246000fd5b600082815260209020810160001990810180546001600160a01b03191690550190555b80610c2a816126f1565b915050610af8565b6000600f82604051610c449190612092565b9081526040519081900360200190205460ff1692915050565b6060600180546104c6906126b6565b61085d338383611801565b3360009081526010602052604090205460ff1615610cc75760405162461bcd60e51b815260206004820152600d60248201526c105b1c9958591e481d9bdd1959609a1b60448201526064016105e5565b8060021415610cee576001600e6000828254610ce39190612628565b90915550610d109050565b8060011415610d10576001600d6000828254610d0a9190612628565b90915550505b600e54600d541415610d53576001600f83604051610d2e9190612092565b908152604051908190036020019020805491151560ff19909216919091179055610da4565b600e54600d541115610d71576001600f83604051610d2e9190612092565b6000600f83604051610d839190612092565b908152604051908190036020019020805491151560ff199092169190911790555b5050336000908152601060205260409020805460ff19166001179055565b6001600160a01b0381166000908152600a60209081526040808320549051909291610df8916107319185918291600c910161228b565b9050600081604051602001610e0d91906120dd565b6040516020818303038152906040529050610e278161149e565b610e3183826114fb565b50505050565b610e413383611595565b610e5d5760405162461bcd60e51b81526004016105e5906125a9565b610e31848484846118d0565b6060600b805480602002602001604051908101604052809291908181526020016000905b82821015610f39578382906000526020600020018054610eac906126b6565b80601f0160208091040260200160405190810160405280929190818152602001828054610ed8906126b6565b8015610f255780601f10610efa57610100808354040283529160200191610f25565b820191906000526020600020905b815481529060010190602001808311610f0857829003601f168201915b505050505081526020019060010190610e8d565b50505050905090565b6060610f4d826110e9565b60008281526006602052604081208054610f66906126b6565b80601f0160208091040260200160405190810160405280929190818152602001828054610f92906126b6565b8015610fdf5780601f10610fb457610100808354040283529160200191610fdf565b820191906000526020600020905b815481529060010190602001808311610fc257829003601f168201915b505050505090506000610ffd60408051602081019091526000815290565b9050805160001415611010575092915050565b81511561104257808260405160200161102a9291906120ae565b60405160208183030381529060405292505050919050565b61104b84611903565b949350505050565b61105b6111b6565b6011805460ff19169055565b61106f6111b6565b6001600160a01b0381166110d45760405162461bcd60e51b815260206004820152602660248201527f4f776e61626c653a206e6577206f776e657220697320746865207a65726f206160448201526564647265737360d01b60648201526084016105e5565b6110dd816117af565b50565b80546001019055565b6000818152600260205260409020546001600160a01b03166110dd5760405162461bcd60e51b8152602060048201526018602482015277115490cdcc8c4e881a5b9d985b1a59081d1bdad95b88125160421b60448201526064016105e5565b600081815260046020526040902080546001600160a01b0319166001600160a01b038416908117909155819061117d826109f3565b6001600160a01b03167f8c5be1e5ebec7d5bd14f71427d1e84f3dd0314c0f7b2291e5b200ac8c7c3b92560405160405180910390a45050565b6007546001600160a01b03163314610aeb5760405162461bcd60e51b815260206004820181905260248201527f4f776e61626c653a2063616c6c6572206973206e6f7420746865206f776e657260448201526064016105e5565b6060816112345750506040805180820190915260018152600360fc1b602082015290565b8160005b811561125e5780611248816126f1565b91506112579050600a83612640565b9150611238565b60008167ffffffffffffffff81111561128757634e487b7160e01b600052604160045260246000fd5b6040519080825280601f01601f1916602001820160405280156112b1576020820181803683370190505b5090505b841561104b576112c6600183612673565b91506112d3600a8661270c565b6112de906030612628565b60f81b81838151811061130157634e487b7160e01b600052603260045260246000fd5b60200101906001600160f81b031916908160001a905350611323600a86612640565b94506112b5565b80516060908061134a575050604080516020810190915260008152919050565b60006003611359836002612628565b6113639190612640565b61136e906004612654565b9050600061137d826020612628565b67ffffffffffffffff8111156113a357634e487b7160e01b600052604160045260246000fd5b6040519080825280601f01601f1916602001820160405280156113cd576020820181803683370190505b5090506000604051806060016040528060408152602001612779604091399050600181016020830160005b86811015611459576003818a01810151603f601282901c8116860151600c83901c8216870151600684901c831688015192909316870151600891821b60ff94851601821b92841692909201901b91160160e01b8352600490920191016113f8565b506003860660018114611473576002811461148457611490565b613d3d60f01b600119830152611490565b603d60f81b6000198301525b505050918152949350505050565b6110dd816040516024016114b29190612544565b60408051601f198184030181529190526020810180516001600160e01b031663104c13eb60e21b179052611977565b61085d828260405180602001604052806000815250611998565b6000828152600260205260409020546001600160a01b03166115765760405162461bcd60e51b815260206004820152602e60248201527f45524337323155524953746f726167653a2055524920736574206f66206e6f6e60448201526d32bc34b9ba32b73a103a37b5b2b760911b60648201526084016105e5565b6000828152600660209081526040909120825161068692840190611c1a565b6000806115a1836109f3565b9050806001600160a01b0316846001600160a01b031614806115e857506001600160a01b0380821660009081526005602090815260408083209388168352929052205460ff165b8061104b5750836001600160a01b031661160184610549565b6001600160a01b031614949350505050565b826001600160a01b0316611626826109f3565b6001600160a01b03161461168a5760405162461bcd60e51b815260206004820152602560248201527f4552433732313a207472616e736665722066726f6d20696e636f72726563742060448201526437bbb732b960d91b60648201526084016105e5565b6001600160a01b0382166116ec5760405162461bcd60e51b8152602060048201526024808201527f4552433732313a207472616e7366657220746f20746865207a65726f206164646044820152637265737360e01b60648201526084016105e5565b6116f7600082611148565b6001600160a01b0383166000908152600360205260408120805460019290611720908490612673565b90915550506001600160a01b038216600090815260036020526040812080546001929061174e908490612628565b909155505060008181526002602052604080822080546001600160a01b0319166001600160a01b0386811691821790925591518493918716917fddf252ad1be2c89b69c2b068fc378daa952ba7f163c4a11628f55a4df523b3ef91a4505050565b600780546001600160a01b038381166001600160a01b0319831681179093556040519116919082907f8be0079c531659141344cd1fd0a4f28419497f9722a3daafe3b4186f6b6457e090600090a35050565b816001600160a01b0316836001600160a01b031614156118635760405162461bcd60e51b815260206004820152601960248201527f4552433732313a20617070726f766520746f2063616c6c65720000000000000060448201526064016105e5565b6001600160a01b03838116600081815260056020908152604080832094871680845294825291829020805460ff191686151590811790915591519182527f17307eab39ab6107e8899845ad3d59bd9653f200f220920489ca2b5937696c31910160405180910390a3505050565b6118db848484611613565b6118e7848484846119cb565b610e315760405162461bcd60e51b81526004016105e590612557565b606061190e826110e9565b600061192560408051602081019091526000815290565b905060008151116119455760405180602001604052806000815250611970565b8061194f84611210565b6040516020016119609291906120ae565b6040516020818303038152906040525b9392505050565b80516a636f6e736f6c652e6c6f67602083016000808483855afa5050505050565b6119a28383611ad8565b6119af60008484846119cb565b6106865760405162461bcd60e51b81526004016105e590612557565b60006001600160a01b0384163b15611acd57604051630a85bd0160e11b81526001600160a01b0385169063150b7a0290611a0f903390899088908890600401612459565b602060405180830381600087803b158015611a2957600080fd5b505af1925050508015611a59575060408051601f3d908101601f19168201909252611a5691810190611f74565b60015b611ab3573d808015611a87576040519150601f19603f3d011682016040523d82523d6000602084013e611a8c565b606091505b508051611aab5760405162461bcd60e51b81526004016105e590612557565b805181602001fd5b6001600160e01b031916630a85bd0160e11b14905061104b565b506001949350505050565b6001600160a01b038216611b2e5760405162461bcd60e51b815260206004820181905260248201527f4552433732313a206d696e7420746f20746865207a65726f206164647265737360448201526064016105e5565b6000818152600260205260409020546001600160a01b031615611b935760405162461bcd60e51b815260206004820152601c60248201527f4552433732313a20746f6b656e20616c7265616479206d696e7465640000000060448201526064016105e5565b6001600160a01b0382166000908152600360205260408120805460019290611bbc908490612628565b909155505060008181526002602052604080822080546001600160a01b0319166001600160a01b03861690811790915590518392907fddf252ad1be2c89b69c2b068fc378daa952ba7f163c4a11628f55a4df523b3ef908290a45050565b828054611c26906126b6565b90600052602060002090601f016020900481019282611c485760008555611c8e565b82601f10611c6157805160ff1916838001178555611c8e565b82800160010185558215611c8e579182015b82811115611c8e578251825591602001919060010190611c73565b50611c9a929150611c9e565b5090565b5b80821115611c9a5760008155600101611c9f565b600067ffffffffffffffff831115611ccd57611ccd61274c565b611ce0601f8401601f19166020016125f7565b9050828152838383011115611cf457600080fd5b828260208301376000602084830101529392505050565b80356001600160a01b0381168114611d2257600080fd5b919050565b600082601f830112611d37578081fd5b61197083833560208501611cb3565b600060208284031215611d57578081fd5b61197082611d0b565b60008060408385031215611d72578081fd5b611d7b83611d0b565b9150611d8960208401611d0b565b90509250929050565b600080600060608486031215611da6578081fd5b611daf84611d0b565b9250611dbd60208501611d0b565b9150604084013590509250925092565b60008060008060808587031215611de2578081fd5b611deb85611d0b565b9350611df960208601611d0b565b925060408501359150606085013567ffffffffffffffff811115611e1b578182fd5b8501601f81018713611e2b578182fd5b611e3a87823560208401611cb3565b91505092959194509250565b60008060408385031215611e58578182fd5b611e6183611d0b565b915060208301358015158114611e75578182fd5b809150509250929050565b60008060408385031215611e92578182fd5b611e9b83611d0b565b946020939093013593505050565b60006020808385031215611ebb578182fd5b823567ffffffffffffffff80821115611ed2578384fd5b818501915085601f830112611ee5578384fd5b813581811115611ef757611ef761274c565b8060051b9150611f088483016125f7565b8181528481019084860184860187018a1015611f22578788fd5b8795505b83861015611f4b57611f3781611d0b565b835260019590950194918601918601611f26565b5098975050505050505050565b600060208284031215611f69578081fd5b813561197081612762565b600060208284031215611f85578081fd5b815161197081612762565b600060208284031215611fa1578081fd5b813567ffffffffffffffff811115611fb7578182fd5b61104b84828501611d27565b60008060408385031215611fd5578182fd5b823567ffffffffffffffff811115611feb578283fd5b611ff785828601611d27565b95602094909401359450505050565b600060208284031215612017578081fd5b5035919050565b6000815180845261203681602086016020860161268a565b601f01601f19169290920160200192915050565b7f2c20226465736372697074696f6e223a20224e4654204d696e74657220666f7281527501023b7bb32b934b334b2b910383937b532b1ba1116160551b602082015260360190565b600082516120a481846020870161268a565b9190910192915050565b600083516120c081846020880161268a565b8351908301906120d481836020880161268a565b01949350505050565b7f646174613a6170706c69636174696f6e2f6a736f6e3b6261736536342c00000081526000825161211581601d85016020870161268a565b91909101601d0192915050565b707b20226e616d65223a202247565456202360781b8152835160009061214f81601185016020890161268a565b6801116101134b2111d160bd1b601191840191820152845161217881601a84016020890161268a565b612186601a8284010161204a565b9150507f22747261697473223a205b7b202274726169745f74797065223a20225649502281527f2c202276616c7565223a20227472756522207d2c207b202274726169745f747960208201527f7065223a2022507572636861736564222c202276616c7565223a20227472756560408201527f22207d2c207b2274726169745f74797065223a2022417474656e64696e67222c60608201527308089d985b1d59488e880899985b1cd9489f574b60621b60808201527022696d616765223a2022697066733a2f2f60781b609482015283516122688160a584016020880161268a565b61228060a5828401016222207d60e81b815260030190565b979650505050505050565b707b20226e616d65223a202247565456202360781b8152601181018490526801116101134b2111d160bd1b6031820152603a810183905260006122d0605a830161204a565b7f22747261697473223a205b7b202274726169745f74797065223a20225649502281527f2c202276616c7565223a20227472756522207d2c207b202274726169745f74796020808301919091527f7065223a2022507572636861736564222c202276616c7565223a20227472756560408301527f22207d2c207b2274726169745f74797065223a2022417474656e64696e67222c60608301527208089d985b1d59488e88089d1c9d59489f574b606a1b60808301527201134b6b0b3b2911d101134b833399d1797961606d1b6093830152845460a6908490600181811c90808316806123bd57607f831692505b8683108114156123db57634e487b7160e01b89526022600452602489fd5b8080156123ef576001811461240457612434565b60ff1985168988015283890187019550612434565b60008c8152602090208a5b8581101561242a5781548b82018a015290840190890161240f565b505086848a010195505b505050505061244c816222207d60e81b815260030190565b9998505050505050505050565b6001600160a01b038581168252841660208201526040810183905260806060820181905260009061248c9083018461201e565b9695505050505050565b6020808252825182820181905260009190848201906040850190845b818110156124d75783516001600160a01b0316835292840192918401916001016124b2565b50909695505050505050565b6000602080830181845280855180835260408601915060408160051b8701019250838701855b8281101561253757603f1988860301845261252585835161201e565b94509285019290850190600101612509565b5092979650505050505050565b602081526000611970602083018461201e565b60208082526032908201527f4552433732313a207472616e7366657220746f206e6f6e20455243373231526560408201527131b2b4bb32b91034b6b83632b6b2b73a32b960711b606082015260800190565b6020808252602e908201527f4552433732313a2063616c6c6572206973206e6f7420746f6b656e206f776e6560408201526d1c881b9bdc88185c1c1c9bdd995960921b606082015260800190565b604051601f8201601f1916810167ffffffffffffffff811182821017156126205761262061274c565b604052919050565b6000821982111561263b5761263b612720565b500190565b60008261264f5761264f612736565b500490565b600081600019048311821515161561266e5761266e612720565b500290565b60008282101561268557612685612720565b500390565b60005b838110156126a557818101518382015260200161268d565b83811115610e315750506000910152565b600181811c908216806126ca57607f821691505b602082108114156126eb57634e487b7160e01b600052602260045260246000fd5b50919050565b600060001982141561270557612705612720565b5060010190565b60008261271b5761271b612736565b500690565b634e487b7160e01b600052601160045260246000fd5b634e487b7160e01b600052601260045260246000fd5b634e487b7160e01b600052604160045260246000fd5b6001600160e01b0319811681146110dd57600080fdfe4142434445464748494a4b4c4d4e4f505152535455565758595a6162636465666768696a6b6c6d6e6f707172737475767778797a303132333435363738392b2fa264697066735822122090978eb1b35ff5cb4d48f04f3de335214b542fdfe6b8fc0d7c69bca9493b298164736f6c63430008040033",
    "linkReferences": {},
    "deployedLinkReferences": {}
}