{
    "_format": "hh-sol-artifact-1",
    "contractName": "Goverifier",
    "sourceName": "contracts/Goverifier.sol",
    "abi": [
        {
            "inputs": [],
            "stateMutability": "nonpayable",
            "type": "constructor"
        },
        {
            "anonymous": false,
            "inputs": [
                {
                    "indexed": true,
                    "internalType": "address",
                    "name": "owner",
                    "type": "address"
                },
                {
                    "indexed": true,
                    "internalType": "address",
                    "name": "approved",
                    "type": "address"
                },
                {
                    "indexed": true,
                    "internalType": "uint256",
                    "name": "tokenId",
                    "type": "uint256"
                }
            ],
            "name": "Approval",
            "type": "event"
        },
        {
            "anonymous": false,
            "inputs": [
                {
                    "indexed": true,
                    "internalType": "address",
                    "name": "owner",
                    "type": "address"
                },
                {
                    "indexed": true,
                    "internalType": "address",
                    "name": "operator",
                    "type": "address"
                },
                {
                    "indexed": false,
                    "internalType": "bool",
                    "name": "approved",
                    "type": "bool"
                }
            ],
            "name": "ApprovalForAll",
            "type": "event"
        },
        {
            "anonymous": false,
            "inputs": [
                {
                    "indexed": true,
                    "internalType": "address",
                    "name": "previousOwner",
                    "type": "address"
                },
                {
                    "indexed": true,
                    "internalType": "address",
                    "name": "newOwner",
                    "type": "address"
                }
            ],
            "name": "OwnershipTransferred",
            "type": "event"
        },
        {
            "anonymous": false,
            "inputs": [
                {
                    "indexed": true,
                    "internalType": "address",
                    "name": "from",
                    "type": "address"
                },
                {
                    "indexed": true,
                    "internalType": "address",
                    "name": "to",
                    "type": "address"
                },
                {
                    "indexed": true,
                    "internalType": "uint256",
                    "name": "tokenId",
                    "type": "uint256"
                }
            ],
            "name": "Transfer",
            "type": "event"
        },
        {
            "inputs": [
                {
                    "internalType": "address[]",
                    "name": "addresses",
                    "type": "address[]"
                }
            ],
            "name": "addOfficer",
            "outputs": [],
            "stateMutability": "nonpayable",
            "type": "function"
        },
        {
            "inputs": [
                {
                    "internalType": "address",
                    "name": "to",
                    "type": "address"
                },
                {
                    "internalType": "uint256",
                    "name": "tokenId",
                    "type": "uint256"
                }
            ],
            "name": "approve",
            "outputs": [],
            "stateMutability": "nonpayable",
            "type": "function"
        },
        {
            "inputs": [
                {
                    "internalType": "address",
                    "name": "owner",
                    "type": "address"
                }
            ],
            "name": "balanceOf",
            "outputs": [
                {
                    "internalType": "uint256",
                    "name": "",
                    "type": "uint256"
                }
            ],
            "stateMutability": "view",
            "type": "function"
        },
        {
            "inputs": [
                {
                    "internalType": "string",
                    "name": "cid",
                    "type": "string"
                }
            ],
            "name": "changeNFT",
            "outputs": [],
            "stateMutability": "nonpayable",
            "type": "function"
        },
        {
            "inputs": [],
            "name": "closeSale",
            "outputs": [],
            "stateMutability": "nonpayable",
            "type": "function"
        },
        {
            "inputs": [
                {
                    "internalType": "uint256",
                    "name": "tokenId",
                    "type": "uint256"
                }
            ],
            "name": "getApproved",
            "outputs": [
                {
                    "internalType": "address",
                    "name": "",
                    "type": "address"
                }
            ],
            "stateMutability": "view",
            "type": "function"
        },
        {
            "inputs": [],
            "name": "getOfficers",
            "outputs": [
                {
                    "internalType": "address[]",
                    "name": "",
                    "type": "address[]"
                }
            ],
            "stateMutability": "view",
            "type": "function"
        },
        {
            "inputs": [],
            "name": "getProposal",
            "outputs": [
                {
                    "internalType": "string[]",
                    "name": "",
                    "type": "string[]"
                }
            ],
            "stateMutability": "view",
            "type": "function"
        },
        {
            "inputs": [
                {
                    "internalType": "string",
                    "name": "name",
                    "type": "string"
                }
            ],
            "name": "getVotes",
            "outputs": [
                {
                    "internalType": "bool",
                    "name": "",
                    "type": "bool"
                }
            ],
            "stateMutability": "view",
            "type": "function"
        },
        {
            "inputs": [
                {
                    "internalType": "address",
                    "name": "owner",
                    "type": "address"
                },
                {
                    "internalType": "address",
                    "name": "operator",
                    "type": "address"
                }
            ],
            "name": "isApprovedForAll",
            "outputs": [
                {
                    "internalType": "bool",
                    "name": "",
                    "type": "bool"
                }
            ],
            "stateMutability": "view",
            "type": "function"
        },
        {
            "inputs": [],
            "name": "isSaleActive",
            "outputs": [
                {
                    "internalType": "bool",
                    "name": "",
                    "type": "bool"
                }
            ],
            "stateMutability": "view",
            "type": "function"
        },
        {
            "inputs": [
                {
                    "internalType": "string",
                    "name": "imgURI",
                    "type": "string"
                }
            ],
            "name": "mintCustom",
            "outputs": [],
            "stateMutability": "nonpayable",
            "type": "function"
        },
        {
            "inputs": [],
            "name": "name",
            "outputs": [
                {
                    "internalType": "string",
                    "name": "",
                    "type": "string"
                }
            ],
            "stateMutability": "view",
            "type": "function"
        },
        {
            "inputs": [
                {
                    "internalType": "string",
                    "name": "name",
                    "type": "string"
                }
            ],
            "name": "newProposal",
            "outputs": [],
            "stateMutability": "nonpayable",
            "type": "function"
        },
        {
            "inputs": [],
            "name": "openSale",
            "outputs": [],
            "stateMutability": "nonpayable",
            "type": "function"
        },
        {
            "inputs": [],
            "name": "owner",
            "outputs": [
                {
                    "internalType": "address",
                    "name": "",
                    "type": "address"
                }
            ],
            "stateMutability": "view",
            "type": "function"
        },
        {
            "inputs": [
                {
                    "internalType": "uint256",
                    "name": "tokenId",
                    "type": "uint256"
                }
            ],
            "name": "ownerOf",
            "outputs": [
                {
                    "internalType": "address",
                    "name": "",
                    "type": "address"
                }
            ],
            "stateMutability": "view",
            "type": "function"
        },
        {
            "inputs": [
                {
                    "internalType": "address",
                    "name": "rem",
                    "type": "address"
                }
            ],
            "name": "removeOfficer",
            "outputs": [],
            "stateMutability": "nonpayable",
            "type": "function"
        },
        {
            "inputs": [],
            "name": "renounceOwnership",
            "outputs": [],
            "stateMutability": "nonpayable",
            "type": "function"
        },
        {
            "inputs": [
                {
                    "internalType": "address",
                    "name": "from",
                    "type": "address"
                },
                {
                    "internalType": "address",
                    "name": "to",
                    "type": "address"
                },
                {
                    "internalType": "uint256",
                    "name": "tokenId",
                    "type": "uint256"
                }
            ],
            "name": "safeTransferFrom",
            "outputs": [],
            "stateMutability": "nonpayable",
            "type": "function"
        },
        {
            "inputs": [
                {
                    "internalType": "address",
                    "name": "from",
                    "type": "address"
                },
                {
                    "internalType": "address",
                    "name": "to",
                    "type": "address"
                },
                {
                    "internalType": "uint256",
                    "name": "tokenId",
                    "type": "uint256"
                },
                {
                    "internalType": "bytes",
                    "name": "data",
                    "type": "bytes"
                }
            ],
            "name": "safeTransferFrom",
            "outputs": [],
            "stateMutability": "nonpayable",
            "type": "function"
        },
        {
            "inputs": [
                {
                    "internalType": "address",
                    "name": "operator",
                    "type": "address"
                },
                {
                    "internalType": "bool",
                    "name": "approved",
                    "type": "bool"
                }
            ],
            "name": "setApprovalForAll",
            "outputs": [],
            "stateMutability": "nonpayable",
            "type": "function"
        },
        {
            "inputs": [
                {
                    "internalType": "bytes4",
                    "name": "interfaceId",
                    "type": "bytes4"
                }
            ],
            "name": "supportsInterface",
            "outputs": [
                {
                    "internalType": "bool",
                    "name": "",
                    "type": "bool"
                }
            ],
            "stateMutability": "view",
            "type": "function"
        },
        {
            "inputs": [],
            "name": "symbol",
            "outputs": [
                {
                    "internalType": "string",
                    "name": "",
                    "type": "string"
                }
            ],
            "stateMutability": "view",
            "type": "function"
        },
        {
            "inputs": [
                {
                    "internalType": "uint256",
                    "name": "tokenId",
                    "type": "uint256"
                }
            ],
            "name": "tokenURI",
            "outputs": [
                {
                    "internalType": "string",
                    "name": "",
                    "type": "string"
                }
            ],
            "stateMutability": "view",
            "type": "function"
        },
        {
            "inputs": [
                {
                    "internalType": "address",
                    "name": "from",
                    "type": "address"
                },
                {
                    "internalType": "address",
                    "name": "to",
                    "type": "address"
                },
                {
                    "internalType": "uint256",
                    "name": "tokenId",
                    "type": "uint256"
                }
            ],
            "name": "transferFrom",
            "outputs": [],
            "stateMutability": "nonpayable",
            "type": "function"
        },
        {
            "inputs": [
                {
                    "internalType": "address",
                    "name": "newOwner",
                    "type": "address"
                }
            ],
            "name": "transferOwnership",
            "outputs": [],
            "stateMutability": "nonpayable",
            "type": "function"
        },
        {
            "inputs": [
                {
                    "internalType": "address",
                    "name": "add",
                    "type": "address"
                }
            ],
            "name": "verifyUser",
            "outputs": [
                {
                    "internalType": "bool",
                    "name": "",
                    "type": "bool"
                }
            ],
            "stateMutability": "view",
            "type": "function"
        },
        {
            "inputs": [
                {
                    "internalType": "string",
                    "name": "name",
                    "type": "string"
                },
                {
                    "internalType": "uint256",
                    "name": "voteVal",
                    "type": "uint256"
                }
            ],
            "name": "vote",
            "outputs": [],
            "stateMutability": "nonpayable",
            "type": "function"
        }
    ],
    "bytecode": "0x6080604052600e805460ff191660011790553480156200001e57600080fd5b50604080518082018252600a81526923b7bb32b934b334b2b960b11b60208083019182528351808501909452600484526323ab2a2b60e11b9084015281519192916200006d916000916200011c565b508051620000839060019060208401906200011c565b505050620000a06200009a620000bd60201b60201c565b620000c1565b620000b760086200011360201b620010941760201c565b620001ff565b3390565b600780546001600160a01b038381166001600160a01b0319831681179093556040519116919082907f8be0079c531659141344cd1fd0a4f28419497f9722a3daafe3b4186f6b6457e090600090a35050565b80546001019055565b8280546200012a90620001c2565b90600052602060002090601f0160209004810192826200014e576000855562000199565b82601f106200016957805160ff191683800117855562000199565b8280016001018555821562000199579182015b82811115620001995782518255916020019190600101906200017c565b50620001a7929150620001ab565b5090565b5b80821115620001a75760008155600101620001ac565b600181811c90821680620001d757607f821691505b60208210811415620001f957634e487b7160e01b600052602260045260246000fd5b50919050565b612735806200020f6000396000f3fe608060405234801561001057600080fd5b50600436106101cf5760003560e01c806370a0823111610104578063a6385803116100a2578063c87b56dd11610071578063c87b56dd146103e1578063e985e9c5146103f4578063ee55efee14610430578063f2fde38b1461043857600080fd5b8063a638580314610393578063abbcf424146103a6578063b88d4fde146103b9578063b9e2bea0146103cc57600080fd5b8063805265e5116100de578063805265e5146103545780638da5cb5b1461036757806395d89b4114610378578063a22cb4651461038057600080fd5b806370a0823114610318578063715018a614610339578063719a0f8c1461034157600080fd5b8063167ff46f116101715780634d8131201161014b5780634d813120146102ba5780634f24186a146102e5578063564566a8146102f85780636352211e1461030557600080fd5b8063167ff46f1461028c57806323b872dd1461029457806342842e0e146102a757600080fd5b8063095ea7b3116101ad578063095ea7b31461023c5780630b9c66d4146102515780630cfe6dbe146102645780630f7151dc1461027757600080fd5b806301ffc9a7146101d457806306fdde03146101fc578063081812fc14610211575b600080fd5b6101e76101e2366004611f0c565b61044b565b60405190151581526020015b60405180910390f35b61020461049d565b6040516101f3919061248b565b61022461021f366004611fba565b61052f565b6040516001600160a01b0390911681526020016101f3565b61024f61024a366004611e34565b610556565b005b61024f61025f366004611f44565b610671565b61024f610272366004611e5d565b610833565b61027f6108b6565b6040516101f391906123dd565b61024f610917565b61024f6102a2366004611d46565b61092e565b61024f6102b5366004611d46565b61095f565b6101e76102c8366004611cfa565b6001600160a01b03166000908152600a6020526040902054151590565b61024f6102f3366004611f44565b61097a565b600e546101e79060ff1681565b610224610313366004611fba565b6109c5565b61032b610326366004611cfa565b610a25565b6040519081526020016101f3565b61024f610aab565b61024f61034f366004611cfa565b610abf565b6101e7610362366004611f44565b610c04565b6007546001600160a01b0316610224565b610204610c2f565b61024f61038e366004611dfa565b610c3e565b61024f6103a1366004611f77565b610c49565b61024f6103b4366004611f44565b610d7a565b61024f6103c7366004611d81565b610de5565b6103d4610e1d565b6040516101f3919061242a565b6102046103ef366004611fba565b610ef6565b6101e7610402366004611d14565b6001600160a01b03918216600090815260056020908152604080832093909416825291909152205460ff1690565b61024f611007565b61024f610446366004611cfa565b61101b565b60006001600160e01b031982166380ac58cd60e01b148061047c57506001600160e01b03198216635b5e139f60e01b145b8061049757506301ffc9a760e01b6001600160e01b03198316145b92915050565b6060600080546104ac906125fd565b80601f01602080910402602001604051908101604052809291908181526020018280546104d8906125fd565b80156105255780601f106104fa57610100808354040283529160200191610525565b820191906000526020600020905b81548152906001019060200180831161050857829003601f168201915b5050505050905090565b600061053a8261109d565b506000908152600460205260409020546001600160a01b031690565b6000610561826109c5565b9050806001600160a01b0316836001600160a01b031614156105d45760405162461bcd60e51b815260206004820152602160248201527f4552433732313a20617070726f76616c20746f2063757272656e74206f776e656044820152603960f91b60648201526084015b60405180910390fd5b336001600160a01b03821614806105f057506105f08133610402565b6106625760405162461bcd60e51b815260206004820152603e60248201527f4552433732313a20617070726f76652063616c6c6572206973206e6f7420746f60448201527f6b656e206f776e6572206e6f7220617070726f76656420666f7220616c6c000060648201526084016105cb565b61066c83836110fc565b505050565b61067961116a565b600e5460ff166106c15760405162461bcd60e51b815260206004820152601360248201527214dbdc9c9e4b081d1bdbc81b185d19481b1bdb606a1b60448201526064016105cb565b60005b60095481101561082f5760006107176106e46106df60085490565b6111c4565b6106f06106df60085490565b85604051602001610703939291906120d6565b6040516020818303038152906040526112de565b905060008160405160200161072c9190612091565b604051602081830303815290604052905061074681611452565b6107583361075360085490565b611495565b61076a61076460085490565b826114af565b61077c3361077760085490565b6110fc565b6107bf33600985815481106107a157634e487b7160e01b600052603260045260246000fd5b6000918252602090912001546001600160a01b03166102b560085490565b600854600a6000600986815481106107e757634e487b7160e01b600052603260045260246000fd5b60009182526020808320909101546001600160a01b0316835282019290925260400190205561081a600880546001019055565b5050808061082790612638565b9150506106c4565b5050565b61083b61116a565b60005b815181101561082f57600982828151811061086957634e487b7160e01b600052603260045260246000fd5b60209081029190910181015182546001810184556000938452919092200180546001600160a01b0319166001600160a01b03909216919091179055806108ae81612638565b91505061083e565b6060600980548060200260200160405190810160405280929190818152602001828054801561052557602002820191906000526020600020905b81546001600160a01b031681526001909101906020018083116108f0575050505050905090565b61091f61116a565b600e805460ff19166001179055565b6109383382611549565b6109545760405162461bcd60e51b81526004016105cb906124f0565b61066c8383836115c7565b61066c83838360405180602001604052806000815250610de5565b61098261116a565b600b8054600181018255600091909152815161082f917f0175b7a638427703f0dbe7bb9bbf987a2551717b34e79f33b5b1008d1fa01db901906020840190611bce565b6000818152600260205260408120546001600160a01b0316806104975760405162461bcd60e51b8152602060048201526018602482015277115490cdcc8c4e881a5b9d985b1a59081d1bdad95b88125160421b60448201526064016105cb565b60006001600160a01b038216610a8f5760405162461bcd60e51b815260206004820152602960248201527f4552433732313a2061646472657373207a65726f206973206e6f7420612076616044820152683634b21037bbb732b960b91b60648201526084016105cb565b506001600160a01b031660009081526003602052604090205490565b610ab361116a565b610abd6000611763565b565b610ac761116a565b60005b60095481101561082f57816001600160a01b031660098281548110610aff57634e487b7160e01b600052603260045260246000fd5b6000918252602090912001546001600160a01b03161415610bf25760098054610b2a906001906125ba565b81548110610b4857634e487b7160e01b600052603260045260246000fd5b600091825260209091200154600980546001600160a01b039092169183908110610b8257634e487b7160e01b600052603260045260246000fd5b9060005260206000200160006101000a8154816001600160a01b0302191690836001600160a01b031602179055506009805480610bcf57634e487b7160e01b600052603160045260246000fd5b600082815260209020810160001990810180546001600160a01b03191690550190555b80610bfc81612638565b915050610aca565b6000600c82604051610c169190612046565b9081526040519081900360200190205460ff1692915050565b6060600180546104ac906125fd565b61082f3383836117b5565b336000908152600d602052604090205460ff1615610c995760405162461bcd60e51b815260206004820152600d60248201526c105b1c9958591e481d9bdd1959609a1b60448201526064016105cb565b6000808260021415610cb757610cb060018261256f565b9050610cce565b8260011415610cce57610ccb60018361256f565b91505b80821415610d0d576001600c85604051610ce89190612046565b908152604051908190036020019020805491151560ff19909216919091179055610d5a565b80821115610d27576001600c85604051610ce89190612046565b6000600c85604051610d399190612046565b908152604051908190036020019020805491151560ff199092169190911790555b5050336000908152600d60205260409020805460ff191660011790555050565b6000610daa610d8b6106df60085490565b610d976106df60085490565b8460405160200161070393929190612240565b9050600081604051602001610dbf9190612091565b6040516020818303038152906040529050610dd981611452565b61066c61076460085490565b610def3383611549565b610e0b5760405162461bcd60e51b81526004016105cb906124f0565b610e1784848484611884565b50505050565b6060600b805480602002602001604051908101604052809291908181526020016000905b82821015610eed578382906000526020600020018054610e60906125fd565b80601f0160208091040260200160405190810160405280929190818152602001828054610e8c906125fd565b8015610ed95780601f10610eae57610100808354040283529160200191610ed9565b820191906000526020600020905b815481529060010190602001808311610ebc57829003601f168201915b505050505081526020019060010190610e41565b50505050905090565b6060610f018261109d565b60008281526006602052604081208054610f1a906125fd565b80601f0160208091040260200160405190810160405280929190818152602001828054610f46906125fd565b8015610f935780601f10610f6857610100808354040283529160200191610f93565b820191906000526020600020905b815481529060010190602001808311610f7657829003601f168201915b505050505090506000610fb160408051602081019091526000815290565b9050805160001415610fc4575092915050565b815115610ff6578082604051602001610fde929190612062565b60405160208183030381529060405292505050919050565b610fff846118b7565b949350505050565b61100f61116a565b600e805460ff19169055565b61102361116a565b6001600160a01b0381166110885760405162461bcd60e51b815260206004820152602660248201527f4f776e61626c653a206e6577206f776e657220697320746865207a65726f206160448201526564647265737360d01b60648201526084016105cb565b61109181611763565b50565b80546001019055565b6000818152600260205260409020546001600160a01b03166110915760405162461bcd60e51b8152602060048201526018602482015277115490cdcc8c4e881a5b9d985b1a59081d1bdad95b88125160421b60448201526064016105cb565b600081815260046020526040902080546001600160a01b0319166001600160a01b0384169081179091558190611131826109c5565b6001600160a01b03167f8c5be1e5ebec7d5bd14f71427d1e84f3dd0314c0f7b2291e5b200ac8c7c3b92560405160405180910390a45050565b6007546001600160a01b03163314610abd5760405162461bcd60e51b815260206004820181905260248201527f4f776e61626c653a2063616c6c6572206973206e6f7420746865206f776e657260448201526064016105cb565b6060816111e85750506040805180820190915260018152600360fc1b602082015290565b8160005b811561121257806111fc81612638565b915061120b9050600a83612587565b91506111ec565b60008167ffffffffffffffff81111561123b57634e487b7160e01b600052604160045260246000fd5b6040519080825280601f01601f191660200182016040528015611265576020820181803683370190505b5090505b8415610fff5761127a6001836125ba565b9150611287600a86612653565b61129290603061256f565b60f81b8183815181106112b557634e487b7160e01b600052603260045260246000fd5b60200101906001600160f81b031916908160001a9053506112d7600a86612587565b9450611269565b8051606090806112fe575050604080516020810190915260008152919050565b6000600361130d83600261256f565b6113179190612587565b61132290600461259b565b9050600061133182602061256f565b67ffffffffffffffff81111561135757634e487b7160e01b600052604160045260246000fd5b6040519080825280601f01601f191660200182016040528015611381576020820181803683370190505b50905060006040518060600160405280604081526020016126c0604091399050600181016020830160005b8681101561140d576003818a01810151603f601282901c8116860151600c83901c8216870151600684901c831688015192909316870151600891821b60ff94851601821b92841692909201901b91160160e01b8352600490920191016113ac565b506003860660018114611427576002811461143857611444565b613d3d60f01b600119830152611444565b603d60f81b6000198301525b505050918152949350505050565b61109181604051602401611466919061248b565b60408051601f198184030181529190526020810180516001600160e01b031663104c13eb60e21b17905261192b565b61082f82826040518060200160405280600081525061194c565b6000828152600260205260409020546001600160a01b031661152a5760405162461bcd60e51b815260206004820152602e60248201527f45524337323155524953746f726167653a2055524920736574206f66206e6f6e60448201526d32bc34b9ba32b73a103a37b5b2b760911b60648201526084016105cb565b6000828152600660209081526040909120825161066c92840190611bce565b600080611555836109c5565b9050806001600160a01b0316846001600160a01b0316148061159c57506001600160a01b0380821660009081526005602090815260408083209388168352929052205460ff165b80610fff5750836001600160a01b03166115b58461052f565b6001600160a01b031614949350505050565b826001600160a01b03166115da826109c5565b6001600160a01b03161461163e5760405162461bcd60e51b815260206004820152602560248201527f4552433732313a207472616e736665722066726f6d20696e636f72726563742060448201526437bbb732b960d91b60648201526084016105cb565b6001600160a01b0382166116a05760405162461bcd60e51b8152602060048201526024808201527f4552433732313a207472616e7366657220746f20746865207a65726f206164646044820152637265737360e01b60648201526084016105cb565b6116ab6000826110fc565b6001600160a01b03831660009081526003602052604081208054600192906116d49084906125ba565b90915550506001600160a01b038216600090815260036020526040812080546001929061170290849061256f565b909155505060008181526002602052604080822080546001600160a01b0319166001600160a01b0386811691821790925591518493918716917fddf252ad1be2c89b69c2b068fc378daa952ba7f163c4a11628f55a4df523b3ef91a4505050565b600780546001600160a01b038381166001600160a01b0319831681179093556040519116919082907f8be0079c531659141344cd1fd0a4f28419497f9722a3daafe3b4186f6b6457e090600090a35050565b816001600160a01b0316836001600160a01b031614156118175760405162461bcd60e51b815260206004820152601960248201527f4552433732313a20617070726f766520746f2063616c6c65720000000000000060448201526064016105cb565b6001600160a01b03838116600081815260056020908152604080832094871680845294825291829020805460ff191686151590811790915591519182527f17307eab39ab6107e8899845ad3d59bd9653f200f220920489ca2b5937696c31910160405180910390a3505050565b61188f8484846115c7565b61189b8484848461197f565b610e175760405162461bcd60e51b81526004016105cb9061249e565b60606118c28261109d565b60006118d960408051602081019091526000815290565b905060008151116118f95760405180602001604052806000815250611924565b80611903846111c4565b604051602001611914929190612062565b6040516020818303038152906040525b9392505050565b80516a636f6e736f6c652e6c6f67602083016000808483855afa5050505050565b6119568383611a8c565b611963600084848461197f565b61066c5760405162461bcd60e51b81526004016105cb9061249e565b60006001600160a01b0384163b15611a8157604051630a85bd0160e11b81526001600160a01b0385169063150b7a02906119c39033908990889088906004016123a0565b602060405180830381600087803b1580156119dd57600080fd5b505af1925050508015611a0d575060408051601f3d908101601f19168201909252611a0a91810190611f28565b60015b611a67573d808015611a3b576040519150601f19603f3d011682016040523d82523d6000602084013e611a40565b606091505b508051611a5f5760405162461bcd60e51b81526004016105cb9061249e565b805181602001fd5b6001600160e01b031916630a85bd0160e11b149050610fff565b506001949350505050565b6001600160a01b038216611ae25760405162461bcd60e51b815260206004820181905260248201527f4552433732313a206d696e7420746f20746865207a65726f206164647265737360448201526064016105cb565b6000818152600260205260409020546001600160a01b031615611b475760405162461bcd60e51b815260206004820152601c60248201527f4552433732313a20746f6b656e20616c7265616479206d696e7465640000000060448201526064016105cb565b6001600160a01b0382166000908152600360205260408120805460019290611b7090849061256f565b909155505060008181526002602052604080822080546001600160a01b0319166001600160a01b03861690811790915590518392907fddf252ad1be2c89b69c2b068fc378daa952ba7f163c4a11628f55a4df523b3ef908290a45050565b828054611bda906125fd565b90600052602060002090601f016020900481019282611bfc5760008555611c42565b82601f10611c1557805160ff1916838001178555611c42565b82800160010185558215611c42579182015b82811115611c42578251825591602001919060010190611c27565b50611c4e929150611c52565b5090565b5b80821115611c4e5760008155600101611c53565b600067ffffffffffffffff831115611c8157611c81612693565b611c94601f8401601f191660200161253e565b9050828152838383011115611ca857600080fd5b828260208301376000602084830101529392505050565b80356001600160a01b0381168114611cd657600080fd5b919050565b600082601f830112611ceb578081fd5b61192483833560208501611c67565b600060208284031215611d0b578081fd5b61192482611cbf565b60008060408385031215611d26578081fd5b611d2f83611cbf565b9150611d3d60208401611cbf565b90509250929050565b600080600060608486031215611d5a578081fd5b611d6384611cbf565b9250611d7160208501611cbf565b9150604084013590509250925092565b60008060008060808587031215611d96578081fd5b611d9f85611cbf565b9350611dad60208601611cbf565b925060408501359150606085013567ffffffffffffffff811115611dcf578182fd5b8501601f81018713611ddf578182fd5b611dee87823560208401611c67565b91505092959194509250565b60008060408385031215611e0c578182fd5b611e1583611cbf565b915060208301358015158114611e29578182fd5b809150509250929050565b60008060408385031215611e46578182fd5b611e4f83611cbf565b946020939093013593505050565b60006020808385031215611e6f578182fd5b823567ffffffffffffffff80821115611e86578384fd5b818501915085601f830112611e99578384fd5b813581811115611eab57611eab612693565b8060051b9150611ebc84830161253e565b8181528481019084860184860187018a1015611ed6578788fd5b8795505b83861015611eff57611eeb81611cbf565b835260019590950194918601918601611eda565b5098975050505050505050565b600060208284031215611f1d578081fd5b8135611924816126a9565b600060208284031215611f39578081fd5b8151611924816126a9565b600060208284031215611f55578081fd5b813567ffffffffffffffff811115611f6b578182fd5b610fff84828501611cdb565b60008060408385031215611f89578182fd5b823567ffffffffffffffff811115611f9f578283fd5b611fab85828601611cdb565b95602094909401359450505050565b600060208284031215611fcb578081fd5b5035919050565b60008151808452611fea8160208601602086016125d1565b601f01601f19169290920160200192915050565b7f2c20226465736372697074696f6e223a20224e4654204d696e74657220666f7281527501023b7bb32b934b334b2b910383937b532b1ba1116160551b602082015260360190565b600082516120588184602087016125d1565b9190910192915050565b600083516120748184602088016125d1565b8351908301906120888183602088016125d1565b01949350505050565b7f646174613a6170706c69636174696f6e2f6a736f6e3b6261736536342c0000008152600082516120c981601d8501602087016125d1565b91909101601d0192915050565b707b20226e616d65223a202247565456202360781b815283516000906121038160118501602089016125d1565b6801116101134b2111d160bd1b601191840191820152845161212c81601a8401602089016125d1565b61213a601a82840101611ffe565b9150507f22747261697473223a205b7b202274726169745f74797065223a20225649502281527f2c202276616c7565223a20227472756522207d2c207b202274726169745f747960208201527f7065223a2022507572636861736564222c202276616c7565223a20227472756560408201527f22207d2c207b2274726169745f74797065223a2022417474656e64696e67222c606082015274010113b30b63ab2911d10113330b639b2913eae961605d1b60808201527022696d616765223a2022697066733a2f2f60781b6095820152835161221d8160a68401602088016125d1565b61223560a6828401016222207d60e81b815260030190565b979650505050505050565b707b20226e616d65223a202247565456202360781b8152835160009061226d8160118501602089016125d1565b6801116101134b2111d160bd1b601191840191820152845161229681601a8401602089016125d1565b6122a4601a82840101611ffe565b9150507f22747261697473223a205b7b202274726169745f74797065223a20225649502281527f2c202276616c7565223a20227472756522207d2c207b202274726169745f747960208201527f7065223a2022507572636861736564222c202276616c7565223a20227472756560408201527f22207d2c207b2274726169745f74797065223a2022417474656e64696e67222c606082015273010113b30b63ab2911d10113a393ab2913eae96160651b60808201527201134b6b0b3b2911d101134b833399d1797961606d1b609482015283516123888160a78401602088016125d1565b61223560a7828401016222207d60e81b815260030190565b6001600160a01b03858116825284166020820152604081018390526080606082018190526000906123d390830184611fd2565b9695505050505050565b6020808252825182820181905260009190848201906040850190845b8181101561241e5783516001600160a01b0316835292840192918401916001016123f9565b50909695505050505050565b6000602080830181845280855180835260408601915060408160051b8701019250838701855b8281101561247e57603f1988860301845261246c858351611fd2565b94509285019290850190600101612450565b5092979650505050505050565b6020815260006119246020830184611fd2565b60208082526032908201527f4552433732313a207472616e7366657220746f206e6f6e20455243373231526560408201527131b2b4bb32b91034b6b83632b6b2b73a32b960711b606082015260800190565b6020808252602e908201527f4552433732313a2063616c6c6572206973206e6f7420746f6b656e206f776e6560408201526d1c881b9bdc88185c1c1c9bdd995960921b606082015260800190565b604051601f8201601f1916810167ffffffffffffffff8111828210171561256757612567612693565b604052919050565b6000821982111561258257612582612667565b500190565b6000826125965761259661267d565b500490565b60008160001904831182151516156125b5576125b5612667565b500290565b6000828210156125cc576125cc612667565b500390565b60005b838110156125ec5781810151838201526020016125d4565b83811115610e175750506000910152565b600181811c9082168061261157607f821691505b6020821081141561263257634e487b7160e01b600052602260045260246000fd5b50919050565b600060001982141561264c5761264c612667565b5060010190565b6000826126625761266261267d565b500690565b634e487b7160e01b600052601160045260246000fd5b634e487b7160e01b600052601260045260246000fd5b634e487b7160e01b600052604160045260246000fd5b6001600160e01b03198116811461109157600080fdfe4142434445464748494a4b4c4d4e4f505152535455565758595a6162636465666768696a6b6c6d6e6f707172737475767778797a303132333435363738392b2fa2646970667358221220fc3f6a9f6dd455ec41e412ba7d21195b949fca383b32d7b4d5d77dc4cc5fb15364736f6c63430008040033",
    "linkReferences": {},
    "deployedLinkReferences": {}
}