{
    "_format": "hh-sol-artifact-1",
    "contractName": "Goverifier",
    "sourceName": "contracts/Goverifier.sol",
    "abi": [
        {
            "inputs": [],
            "stateMutability": "nonpayable",
            "type": "constructor"
        },
        {
            "anonymous": false,
            "inputs": [
                {
                    "indexed": true,
                    "internalType": "address",
                    "name": "owner",
                    "type": "address"
                },
                {
                    "indexed": true,
                    "internalType": "address",
                    "name": "approved",
                    "type": "address"
                },
                {
                    "indexed": true,
                    "internalType": "uint256",
                    "name": "tokenId",
                    "type": "uint256"
                }
            ],
            "name": "Approval",
            "type": "event"
        },
        {
            "anonymous": false,
            "inputs": [
                {
                    "indexed": true,
                    "internalType": "address",
                    "name": "owner",
                    "type": "address"
                },
                {
                    "indexed": true,
                    "internalType": "address",
                    "name": "operator",
                    "type": "address"
                },
                {
                    "indexed": false,
                    "internalType": "bool",
                    "name": "approved",
                    "type": "bool"
                }
            ],
            "name": "ApprovalForAll",
            "type": "event"
        },
        {
            "anonymous": false,
            "inputs": [
                {
                    "indexed": true,
                    "internalType": "address",
                    "name": "previousOwner",
                    "type": "address"
                },
                {
                    "indexed": true,
                    "internalType": "address",
                    "name": "newOwner",
                    "type": "address"
                }
            ],
            "name": "OwnershipTransferred",
            "type": "event"
        },
        {
            "anonymous": false,
            "inputs": [
                {
                    "indexed": true,
                    "internalType": "address",
                    "name": "from",
                    "type": "address"
                },
                {
                    "indexed": true,
                    "internalType": "address",
                    "name": "to",
                    "type": "address"
                },
                {
                    "indexed": true,
                    "internalType": "uint256",
                    "name": "tokenId",
                    "type": "uint256"
                }
            ],
            "name": "Transfer",
            "type": "event"
        },
        {
            "inputs": [
                {
                    "internalType": "address[]",
                    "name": "addresses",
                    "type": "address[]"
                }
            ],
            "name": "addOfficer",
            "outputs": [],
            "stateMutability": "nonpayable",
            "type": "function"
        },
        {
            "inputs": [
                {
                    "internalType": "address",
                    "name": "to",
                    "type": "address"
                },
                {
                    "internalType": "uint256",
                    "name": "tokenId",
                    "type": "uint256"
                }
            ],
            "name": "approve",
            "outputs": [],
            "stateMutability": "nonpayable",
            "type": "function"
        },
        {
            "inputs": [
                {
                    "internalType": "address",
                    "name": "owner",
                    "type": "address"
                }
            ],
            "name": "balanceOf",
            "outputs": [
                {
                    "internalType": "uint256",
                    "name": "",
                    "type": "uint256"
                }
            ],
            "stateMutability": "view",
            "type": "function"
        },
        {
            "inputs": [],
            "name": "closeSale",
            "outputs": [],
            "stateMutability": "nonpayable",
            "type": "function"
        },
        {
            "inputs": [
                {
                    "internalType": "uint256",
                    "name": "tokenId",
                    "type": "uint256"
                }
            ],
            "name": "getApproved",
            "outputs": [
                {
                    "internalType": "address",
                    "name": "",
                    "type": "address"
                }
            ],
            "stateMutability": "view",
            "type": "function"
        },
        {
            "inputs": [],
            "name": "getOfficers",
            "outputs": [
                {
                    "internalType": "address[]",
                    "name": "",
                    "type": "address[]"
                }
            ],
            "stateMutability": "view",
            "type": "function"
        },
        {
            "inputs": [
                {
                    "internalType": "address",
                    "name": "owner",
                    "type": "address"
                },
                {
                    "internalType": "address",
                    "name": "operator",
                    "type": "address"
                }
            ],
            "name": "isApprovedForAll",
            "outputs": [
                {
                    "internalType": "bool",
                    "name": "",
                    "type": "bool"
                }
            ],
            "stateMutability": "view",
            "type": "function"
        },
        {
            "inputs": [],
            "name": "isSaleActive",
            "outputs": [
                {
                    "internalType": "bool",
                    "name": "",
                    "type": "bool"
                }
            ],
            "stateMutability": "view",
            "type": "function"
        },
        {
            "inputs": [
                {
                    "internalType": "string",
                    "name": "imgURI",
                    "type": "string"
                }
            ],
            "name": "mintCustom",
            "outputs": [],
            "stateMutability": "nonpayable",
            "type": "function"
        },
        {
            "inputs": [],
            "name": "name",
            "outputs": [
                {
                    "internalType": "string",
                    "name": "",
                    "type": "string"
                }
            ],
            "stateMutability": "view",
            "type": "function"
        },
        {
            "inputs": [],
            "name": "openSale",
            "outputs": [],
            "stateMutability": "nonpayable",
            "type": "function"
        },
        {
            "inputs": [],
            "name": "owner",
            "outputs": [
                {
                    "internalType": "address",
                    "name": "",
                    "type": "address"
                }
            ],
            "stateMutability": "view",
            "type": "function"
        },
        {
            "inputs": [
                {
                    "internalType": "uint256",
                    "name": "tokenId",
                    "type": "uint256"
                }
            ],
            "name": "ownerOf",
            "outputs": [
                {
                    "internalType": "address",
                    "name": "",
                    "type": "address"
                }
            ],
            "stateMutability": "view",
            "type": "function"
        },
        {
            "inputs": [
                {
                    "internalType": "address",
                    "name": "rem",
                    "type": "address"
                }
            ],
            "name": "removeOfficer",
            "outputs": [],
            "stateMutability": "nonpayable",
            "type": "function"
        },
        {
            "inputs": [],
            "name": "renounceOwnership",
            "outputs": [],
            "stateMutability": "nonpayable",
            "type": "function"
        },
        {
            "inputs": [
                {
                    "internalType": "address",
                    "name": "from",
                    "type": "address"
                },
                {
                    "internalType": "address",
                    "name": "to",
                    "type": "address"
                },
                {
                    "internalType": "uint256",
                    "name": "tokenId",
                    "type": "uint256"
                }
            ],
            "name": "safeTransferFrom",
            "outputs": [],
            "stateMutability": "nonpayable",
            "type": "function"
        },
        {
            "inputs": [
                {
                    "internalType": "address",
                    "name": "from",
                    "type": "address"
                },
                {
                    "internalType": "address",
                    "name": "to",
                    "type": "address"
                },
                {
                    "internalType": "uint256",
                    "name": "tokenId",
                    "type": "uint256"
                },
                {
                    "internalType": "bytes",
                    "name": "data",
                    "type": "bytes"
                }
            ],
            "name": "safeTransferFrom",
            "outputs": [],
            "stateMutability": "nonpayable",
            "type": "function"
        },
        {
            "inputs": [
                {
                    "internalType": "address",
                    "name": "operator",
                    "type": "address"
                },
                {
                    "internalType": "bool",
                    "name": "approved",
                    "type": "bool"
                }
            ],
            "name": "setApprovalForAll",
            "outputs": [],
            "stateMutability": "nonpayable",
            "type": "function"
        },
        {
            "inputs": [
                {
                    "internalType": "bytes4",
                    "name": "interfaceId",
                    "type": "bytes4"
                }
            ],
            "name": "supportsInterface",
            "outputs": [
                {
                    "internalType": "bool",
                    "name": "",
                    "type": "bool"
                }
            ],
            "stateMutability": "view",
            "type": "function"
        },
        {
            "inputs": [],
            "name": "symbol",
            "outputs": [
                {
                    "internalType": "string",
                    "name": "",
                    "type": "string"
                }
            ],
            "stateMutability": "view",
            "type": "function"
        },
        {
            "inputs": [
                {
                    "internalType": "uint256",
                    "name": "tokenId",
                    "type": "uint256"
                }
            ],
            "name": "tokenURI",
            "outputs": [
                {
                    "internalType": "string",
                    "name": "",
                    "type": "string"
                }
            ],
            "stateMutability": "view",
            "type": "function"
        },
        {
            "inputs": [
                {
                    "internalType": "address",
                    "name": "from",
                    "type": "address"
                },
                {
                    "internalType": "address",
                    "name": "to",
                    "type": "address"
                },
                {
                    "internalType": "uint256",
                    "name": "tokenId",
                    "type": "uint256"
                }
            ],
            "name": "transferFrom",
            "outputs": [],
            "stateMutability": "nonpayable",
            "type": "function"
        },
        {
            "inputs": [
                {
                    "internalType": "address",
                    "name": "newOwner",
                    "type": "address"
                }
            ],
            "name": "transferOwnership",
            "outputs": [],
            "stateMutability": "nonpayable",
            "type": "function"
        },
        {
            "inputs": [
                {
                    "internalType": "address",
                    "name": "add",
                    "type": "address"
                }
            ],
            "name": "verifyUser",
            "outputs": [
                {
                    "internalType": "bool",
                    "name": "",
                    "type": "bool"
                }
            ],
            "stateMutability": "view",
            "type": "function"
        }
    ],
    "bytecode": "0x6080604052600b805460ff191660011790553480156200001e57600080fd5b50604080518082018252600a81526923b7bb32b934b334b2b960b11b60208083019182528351808501909452600484526323ab2a2b60e11b9084015281519192916200006d916000916200011c565b508051620000839060019060208401906200011c565b505050620000a06200009a620000bd60201b60201c565b620000c1565b620000b760086200011360201b62000cd11760201c565b620001ff565b3390565b600780546001600160a01b038381166001600160a01b0319831681179093556040519116919082907f8be0079c531659141344cd1fd0a4f28419497f9722a3daafe3b4186f6b6457e090600090a35050565b80546001019055565b8280546200012a90620001c2565b90600052602060002090601f0160209004810192826200014e576000855562000199565b82601f106200016957805160ff191683800117855562000199565b8280016001018555821562000199579182015b82811115620001995782518255916020019190600101906200017c565b50620001a7929150620001ab565b5090565b5b80821115620001a75760008155600101620001ac565b600181811c90821680620001d757607f821691505b60208210811415620001f957634e487b7160e01b600052602260045260246000fd5b50919050565b61210a806200020f6000396000f3fe608060405234801561001057600080fd5b50600436106101585760003560e01c80636352211e116100c3578063a22cb4651161007c578063a22cb465146102e3578063b88d4fde146102f6578063c87b56dd14610309578063e985e9c51461031c578063ee55efee14610358578063f2fde38b1461036057600080fd5b80636352211e1461027b57806370a082311461028e578063715018a6146102af578063719a0f8c146102b75780638da5cb5b146102ca57806395d89b41146102db57600080fd5b80630f7151dc116101155780630f7151dc14610200578063167ff46f1461021557806323b872dd1461021d57806342842e0e146102305780634d81312014610243578063564566a81461026e57600080fd5b806301ffc9a71461015d57806306fdde0314610185578063081812fc1461019a578063095ea7b3146101c55780630b9c66d4146101da5780630cfe6dbe146101ed575b600080fd5b61017061016b366004611b2a565b610373565b60405190151581526020015b60405180910390f35b61018d6103c5565b60405161017c9190611e60565b6101ad6101a8366004611ba8565b610457565b6040516001600160a01b03909116815260200161017c565b6101d86101d3366004611a52565b61047e565b005b6101d86101e8366004611b62565b610599565b6101d86101fb366004611a7b565b61075b565b6102086107de565b60405161017c9190611e13565b6101d861083f565b6101d861022b366004611964565b610856565b6101d861023e366004611964565b610887565b610170610251366004611918565b6001600160a01b03166000908152600a6020526040902054151590565b600b546101709060ff1681565b6101ad610289366004611ba8565b6108a2565b6102a161029c366004611918565b610902565b60405190815260200161017c565b6101d8610988565b6101d86102c5366004611918565b61099c565b6007546001600160a01b03166101ad565b61018d610ae1565b6101d86102f1366004611a18565b610af0565b6101d861030436600461199f565b610afb565b61018d610317366004611ba8565b610b33565b61017061032a366004611932565b6001600160a01b03918216600090815260056020908152604080832093909416825291909152205460ff1690565b6101d8610c44565b6101d861036e366004611918565b610c58565b60006001600160e01b031982166380ac58cd60e01b14806103a457506001600160e01b03198216635b5e139f60e01b145b806103bf57506301ffc9a760e01b6001600160e01b03198316145b92915050565b6060600080546103d490611fd2565b80601f016020809104026020016040519081016040528092919081815260200182805461040090611fd2565b801561044d5780601f106104225761010080835404028352916020019161044d565b820191906000526020600020905b81548152906001019060200180831161043057829003601f168201915b5050505050905090565b600061046282610cda565b506000908152600460205260409020546001600160a01b031690565b6000610489826108a2565b9050806001600160a01b0316836001600160a01b031614156104fc5760405162461bcd60e51b815260206004820152602160248201527f4552433732313a20617070726f76616c20746f2063757272656e74206f776e656044820152603960f91b60648201526084015b60405180910390fd5b336001600160a01b03821614806105185750610518813361032a565b61058a5760405162461bcd60e51b815260206004820152603e60248201527f4552433732313a20617070726f76652063616c6c6572206973206e6f7420746f60448201527f6b656e206f776e6572206e6f7220617070726f76656420666f7220616c6c000060648201526084016104f3565b6105948383610d39565b505050565b6105a1610da7565b600b5460ff166105e95760405162461bcd60e51b815260206004820152601360248201527214dbdc9c9e4b081d1bdbc81b185d19481b1bdb606a1b60448201526064016104f3565b60005b60095481101561075757600061063f61060c61060760085490565b610e01565b61061861060760085490565b8560405160200161062b93929190611c7c565b604051602081830303815290604052610f1b565b90506000816040516020016106549190611c37565b604051602081830303815290604052905061066e8161108f565b6106803361067b60085490565b6110d2565b61069261068c60085490565b826110ec565b6106a43361069f60085490565b610d39565b6106e733600985815481106106c957634e487b7160e01b600052603260045260246000fd5b6000918252602090912001546001600160a01b031661023e60085490565b600854600a60006009868154811061070f57634e487b7160e01b600052603260045260246000fd5b60009182526020808320909101546001600160a01b03168352820192909252604001902055610742600880546001019055565b5050808061074f9061200d565b9150506105ec565b5050565b610763610da7565b60005b815181101561075757600982828151811061079157634e487b7160e01b600052603260045260246000fd5b60209081029190910181015182546001810184556000938452919092200180546001600160a01b0319166001600160a01b03909216919091179055806107d68161200d565b915050610766565b6060600980548060200260200160405190810160405280929190818152602001828054801561044d57602002820191906000526020600020905b81546001600160a01b03168152600190910190602001808311610818575050505050905090565b610847610da7565b600b805460ff19166001179055565b6108603382611186565b61087c5760405162461bcd60e51b81526004016104f390611ec5565b610594838383611204565b61059483838360405180602001604052806000815250610afb565b6000818152600260205260408120546001600160a01b0316806103bf5760405162461bcd60e51b8152602060048201526018602482015277115490cdcc8c4e881a5b9d985b1a59081d1bdad95b88125160421b60448201526064016104f3565b60006001600160a01b03821661096c5760405162461bcd60e51b815260206004820152602960248201527f4552433732313a2061646472657373207a65726f206973206e6f7420612076616044820152683634b21037bbb732b960b91b60648201526084016104f3565b506001600160a01b031660009081526003602052604090205490565b610990610da7565b61099a60006113a0565b565b6109a4610da7565b60005b60095481101561075757816001600160a01b0316600982815481106109dc57634e487b7160e01b600052603260045260246000fd5b6000918252602090912001546001600160a01b03161415610acf5760098054610a0790600190611f8f565b81548110610a2557634e487b7160e01b600052603260045260246000fd5b600091825260209091200154600980546001600160a01b039092169183908110610a5f57634e487b7160e01b600052603260045260246000fd5b9060005260206000200160006101000a8154816001600160a01b0302191690836001600160a01b031602179055506009805480610aac57634e487b7160e01b600052603160045260246000fd5b600082815260209020810160001990810180546001600160a01b03191690550190555b80610ad98161200d565b9150506109a7565b6060600180546103d490611fd2565b6107573383836113f2565b610b053383611186565b610b215760405162461bcd60e51b81526004016104f390611ec5565b610b2d848484846114c1565b50505050565b6060610b3e82610cda565b60008281526006602052604081208054610b5790611fd2565b80601f0160208091040260200160405190810160405280929190818152602001828054610b8390611fd2565b8015610bd05780601f10610ba557610100808354040283529160200191610bd0565b820191906000526020600020905b815481529060010190602001808311610bb357829003601f168201915b505050505090506000610bee60408051602081019091526000815290565b9050805160001415610c01575092915050565b815115610c33578082604051602001610c1b929190611c08565b60405160208183030381529060405292505050919050565b610c3c846114f4565b949350505050565b610c4c610da7565b600b805460ff19169055565b610c60610da7565b6001600160a01b038116610cc55760405162461bcd60e51b815260206004820152602660248201527f4f776e61626c653a206e6577206f776e657220697320746865207a65726f206160448201526564647265737360d01b60648201526084016104f3565b610cce816113a0565b50565b80546001019055565b6000818152600260205260409020546001600160a01b0316610cce5760405162461bcd60e51b8152602060048201526018602482015277115490cdcc8c4e881a5b9d985b1a59081d1bdad95b88125160421b60448201526064016104f3565b600081815260046020526040902080546001600160a01b0319166001600160a01b0384169081179091558190610d6e826108a2565b6001600160a01b03167f8c5be1e5ebec7d5bd14f71427d1e84f3dd0314c0f7b2291e5b200ac8c7c3b92560405160405180910390a45050565b6007546001600160a01b0316331461099a5760405162461bcd60e51b815260206004820181905260248201527f4f776e61626c653a2063616c6c6572206973206e6f7420746865206f776e657260448201526064016104f3565b606081610e255750506040805180820190915260018152600360fc1b602082015290565b8160005b8115610e4f5780610e398161200d565b9150610e489050600a83611f5c565b9150610e29565b60008167ffffffffffffffff811115610e7857634e487b7160e01b600052604160045260246000fd5b6040519080825280601f01601f191660200182016040528015610ea2576020820181803683370190505b5090505b8415610c3c57610eb7600183611f8f565b9150610ec4600a86612028565b610ecf906030611f44565b60f81b818381518110610ef257634e487b7160e01b600052603260045260246000fd5b60200101906001600160f81b031916908160001a905350610f14600a86611f5c565b9450610ea6565b805160609080610f3b575050604080516020810190915260008152919050565b60006003610f4a836002611f44565b610f549190611f5c565b610f5f906004611f70565b90506000610f6e826020611f44565b67ffffffffffffffff811115610f9457634e487b7160e01b600052604160045260246000fd5b6040519080825280601f01601f191660200182016040528015610fbe576020820181803683370190505b5090506000604051806060016040528060408152602001612095604091399050600181016020830160005b8681101561104a576003818a01810151603f601282901c8116860151600c83901c8216870151600684901c831688015192909316870151600891821b60ff94851601821b92841692909201901b91160160e01b835260049092019101610fe9565b506003860660018114611064576002811461107557611081565b613d3d60f01b600119830152611081565b603d60f81b6000198301525b505050918152949350505050565b610cce816040516024016110a39190611e60565b60408051601f198184030181529190526020810180516001600160e01b031663104c13eb60e21b179052611568565b610757828260405180602001604052806000815250611589565b6000828152600260205260409020546001600160a01b03166111675760405162461bcd60e51b815260206004820152602e60248201527f45524337323155524953746f726167653a2055524920736574206f66206e6f6e60448201526d32bc34b9ba32b73a103a37b5b2b760911b60648201526084016104f3565b600082815260066020908152604090912082516105949284019061180b565b600080611192836108a2565b9050806001600160a01b0316846001600160a01b031614806111d957506001600160a01b0380821660009081526005602090815260408083209388168352929052205460ff165b80610c3c5750836001600160a01b03166111f284610457565b6001600160a01b031614949350505050565b826001600160a01b0316611217826108a2565b6001600160a01b03161461127b5760405162461bcd60e51b815260206004820152602560248201527f4552433732313a207472616e736665722066726f6d20696e636f72726563742060448201526437bbb732b960d91b60648201526084016104f3565b6001600160a01b0382166112dd5760405162461bcd60e51b8152602060048201526024808201527f4552433732313a207472616e7366657220746f20746865207a65726f206164646044820152637265737360e01b60648201526084016104f3565b6112e8600082610d39565b6001600160a01b0383166000908152600360205260408120805460019290611311908490611f8f565b90915550506001600160a01b038216600090815260036020526040812080546001929061133f908490611f44565b909155505060008181526002602052604080822080546001600160a01b0319166001600160a01b0386811691821790925591518493918716917fddf252ad1be2c89b69c2b068fc378daa952ba7f163c4a11628f55a4df523b3ef91a4505050565b600780546001600160a01b038381166001600160a01b0319831681179093556040519116919082907f8be0079c531659141344cd1fd0a4f28419497f9722a3daafe3b4186f6b6457e090600090a35050565b816001600160a01b0316836001600160a01b031614156114545760405162461bcd60e51b815260206004820152601960248201527f4552433732313a20617070726f766520746f2063616c6c65720000000000000060448201526064016104f3565b6001600160a01b03838116600081815260056020908152604080832094871680845294825291829020805460ff191686151590811790915591519182527f17307eab39ab6107e8899845ad3d59bd9653f200f220920489ca2b5937696c31910160405180910390a3505050565b6114cc848484611204565b6114d8848484846115bc565b610b2d5760405162461bcd60e51b81526004016104f390611e73565b60606114ff82610cda565b600061151660408051602081019091526000815290565b905060008151116115365760405180602001604052806000815250611561565b8061154084610e01565b604051602001611551929190611c08565b6040516020818303038152906040525b9392505050565b80516a636f6e736f6c652e6c6f67602083016000808483855afa5050505050565b61159383836116c9565b6115a060008484846115bc565b6105945760405162461bcd60e51b81526004016104f390611e73565b60006001600160a01b0384163b156116be57604051630a85bd0160e11b81526001600160a01b0385169063150b7a0290611600903390899088908890600401611de0565b602060405180830381600087803b15801561161a57600080fd5b505af192505050801561164a575060408051601f3d908101601f1916820190925261164791810190611b46565b60015b6116a4573d808015611678576040519150601f19603f3d011682016040523d82523d6000602084013e61167d565b606091505b50805161169c5760405162461bcd60e51b81526004016104f390611e73565b805181602001fd5b6001600160e01b031916630a85bd0160e11b149050610c3c565b506001949350505050565b6001600160a01b03821661171f5760405162461bcd60e51b815260206004820181905260248201527f4552433732313a206d696e7420746f20746865207a65726f206164647265737360448201526064016104f3565b6000818152600260205260409020546001600160a01b0316156117845760405162461bcd60e51b815260206004820152601c60248201527f4552433732313a20746f6b656e20616c7265616479206d696e7465640000000060448201526064016104f3565b6001600160a01b03821660009081526003602052604081208054600192906117ad908490611f44565b909155505060008181526002602052604080822080546001600160a01b0319166001600160a01b03861690811790915590518392907fddf252ad1be2c89b69c2b068fc378daa952ba7f163c4a11628f55a4df523b3ef908290a45050565b82805461181790611fd2565b90600052602060002090601f016020900481019282611839576000855561187f565b82601f1061185257805160ff191683800117855561187f565b8280016001018555821561187f579182015b8281111561187f578251825591602001919060010190611864565b5061188b92915061188f565b5090565b5b8082111561188b5760008155600101611890565b600067ffffffffffffffff8311156118be576118be612068565b6118d1601f8401601f1916602001611f13565b90508281528383830111156118e557600080fd5b828260208301376000602084830101529392505050565b80356001600160a01b038116811461191357600080fd5b919050565b600060208284031215611929578081fd5b611561826118fc565b60008060408385031215611944578081fd5b61194d836118fc565b915061195b602084016118fc565b90509250929050565b600080600060608486031215611978578081fd5b611981846118fc565b925061198f602085016118fc565b9150604084013590509250925092565b600080600080608085870312156119b4578081fd5b6119bd856118fc565b93506119cb602086016118fc565b925060408501359150606085013567ffffffffffffffff8111156119ed578182fd5b8501601f810187136119fd578182fd5b611a0c878235602084016118a4565b91505092959194509250565b60008060408385031215611a2a578182fd5b611a33836118fc565b915060208301358015158114611a47578182fd5b809150509250929050565b60008060408385031215611a64578182fd5b611a6d836118fc565b946020939093013593505050565b60006020808385031215611a8d578182fd5b823567ffffffffffffffff80821115611aa4578384fd5b818501915085601f830112611ab7578384fd5b813581811115611ac957611ac9612068565b8060051b9150611ada848301611f13565b8181528481019084860184860187018a1015611af4578788fd5b8795505b83861015611b1d57611b09816118fc565b835260019590950194918601918601611af8565b5098975050505050505050565b600060208284031215611b3b578081fd5b81356115618161207e565b600060208284031215611b57578081fd5b81516115618161207e565b600060208284031215611b73578081fd5b813567ffffffffffffffff811115611b89578182fd5b8201601f81018413611b99578182fd5b610c3c848235602084016118a4565b600060208284031215611bb9578081fd5b5035919050565b60008151808452611bd8816020860160208601611fa6565b601f01601f19169290920160200192915050565b60008151611bfe818560208601611fa6565b9290920192915050565b60008351611c1a818460208801611fa6565b835190830190611c2e818360208801611fa6565b01949350505050565b7f646174613a6170706c69636174696f6e2f6a736f6e3b6261736536342c000000815260008251611c6f81601d850160208701611fa6565b91909101601d0192915050565b707b20226e616d65223a202247565456202360781b81528351600090611ca9816011850160208901611fa6565b6801116101134b2111d160bd1b6011918401918201528451611cd281601a840160208901611fa6565b7f2c20226465736372697074696f6e223a20224e4654204d696e74657220666f729101601a8101919091527501023b7bb32b934b334b2b910383937b532b1ba1116160551b603a8201527f22747261697473223a205b7b202274726169745f74797065223a20225649502260508201527f2c202276616c7565223a20227472756522207d2c207b202274726169745f747960708201527f7065223a2022507572636861736564222c202276616c7565223a202274727565609082015265011103eae96160d51b60b08201527022696d616765223a2022697066733a2f2f60781b60b6820152611dd6611dc760c7830186611bec565b6222207d60e81b815260030190565b9695505050505050565b6001600160a01b0385811682528416602082015260408101839052608060608201819052600090611dd690830184611bc0565b6020808252825182820181905260009190848201906040850190845b81811015611e545783516001600160a01b031683529284019291840191600101611e2f565b50909695505050505050565b6020815260006115616020830184611bc0565b60208082526032908201527f4552433732313a207472616e7366657220746f206e6f6e20455243373231526560408201527131b2b4bb32b91034b6b83632b6b2b73a32b960711b606082015260800190565b6020808252602e908201527f4552433732313a2063616c6c6572206973206e6f7420746f6b656e206f776e6560408201526d1c881b9bdc88185c1c1c9bdd995960921b606082015260800190565b604051601f8201601f1916810167ffffffffffffffff81118282101715611f3c57611f3c612068565b604052919050565b60008219821115611f5757611f5761203c565b500190565b600082611f6b57611f6b612052565b500490565b6000816000190483118215151615611f8a57611f8a61203c565b500290565b600082821015611fa157611fa161203c565b500390565b60005b83811015611fc1578181015183820152602001611fa9565b83811115610b2d5750506000910152565b600181811c90821680611fe657607f821691505b6020821081141561200757634e487b7160e01b600052602260045260246000fd5b50919050565b60006000198214156120215761202161203c565b5060010190565b60008261203757612037612052565b500690565b634e487b7160e01b600052601160045260246000fd5b634e487b7160e01b600052601260045260246000fd5b634e487b7160e01b600052604160045260246000fd5b6001600160e01b031981168114610cce57600080fdfe4142434445464748494a4b4c4d4e4f505152535455565758595a6162636465666768696a6b6c6d6e6f707172737475767778797a303132333435363738392b2fa2646970667358221220854b8d20289b4bb2773fa671bf839450be6ed54834e1f0d9b533244508b2383364736f6c63430008040033",
    "linkReferences": {},
    "deployedLinkReferences": {}
}