{
    "_format": "hh-sol-artifact-1",
    "contractName": "Goverifier",
    "sourceName": "contracts/Goverifier.sol",
    "abi": [
        {
            "inputs": [],
            "stateMutability": "nonpayable",
            "type": "constructor"
        },
        {
            "anonymous": false,
            "inputs": [
                {
                    "indexed": true,
                    "internalType": "address",
                    "name": "owner",
                    "type": "address"
                },
                {
                    "indexed": true,
                    "internalType": "address",
                    "name": "approved",
                    "type": "address"
                },
                {
                    "indexed": true,
                    "internalType": "uint256",
                    "name": "tokenId",
                    "type": "uint256"
                }
            ],
            "name": "Approval",
            "type": "event"
        },
        {
            "anonymous": false,
            "inputs": [
                {
                    "indexed": true,
                    "internalType": "address",
                    "name": "owner",
                    "type": "address"
                },
                {
                    "indexed": true,
                    "internalType": "address",
                    "name": "operator",
                    "type": "address"
                },
                {
                    "indexed": false,
                    "internalType": "bool",
                    "name": "approved",
                    "type": "bool"
                }
            ],
            "name": "ApprovalForAll",
            "type": "event"
        },
        {
            "anonymous": false,
            "inputs": [
                {
                    "indexed": true,
                    "internalType": "address",
                    "name": "previousOwner",
                    "type": "address"
                },
                {
                    "indexed": true,
                    "internalType": "address",
                    "name": "newOwner",
                    "type": "address"
                }
            ],
            "name": "OwnershipTransferred",
            "type": "event"
        },
        {
            "anonymous": false,
            "inputs": [
                {
                    "indexed": true,
                    "internalType": "address",
                    "name": "from",
                    "type": "address"
                },
                {
                    "indexed": true,
                    "internalType": "address",
                    "name": "to",
                    "type": "address"
                },
                {
                    "indexed": true,
                    "internalType": "uint256",
                    "name": "tokenId",
                    "type": "uint256"
                }
            ],
            "name": "Transfer",
            "type": "event"
        },
        {
            "inputs": [
                {
                    "internalType": "address",
                    "name": "add",
                    "type": "address"
                }
            ],
            "name": "addOfficer",
            "outputs": [],
            "stateMutability": "nonpayable",
            "type": "function"
        },
        {
            "inputs": [
                {
                    "internalType": "address",
                    "name": "to",
                    "type": "address"
                },
                {
                    "internalType": "uint256",
                    "name": "tokenId",
                    "type": "uint256"
                }
            ],
            "name": "approve",
            "outputs": [],
            "stateMutability": "nonpayable",
            "type": "function"
        },
        {
            "inputs": [
                {
                    "internalType": "address",
                    "name": "owner",
                    "type": "address"
                }
            ],
            "name": "balanceOf",
            "outputs": [
                {
                    "internalType": "uint256",
                    "name": "",
                    "type": "uint256"
                }
            ],
            "stateMutability": "view",
            "type": "function"
        },
        {
            "inputs": [],
            "name": "closeSale",
            "outputs": [],
            "stateMutability": "nonpayable",
            "type": "function"
        },
        {
            "inputs": [
                {
                    "internalType": "uint256",
                    "name": "tokenId",
                    "type": "uint256"
                }
            ],
            "name": "getApproved",
            "outputs": [
                {
                    "internalType": "address",
                    "name": "",
                    "type": "address"
                }
            ],
            "stateMutability": "view",
            "type": "function"
        },
        {
            "inputs": [],
            "name": "getOfficers",
            "outputs": [
                {
                    "internalType": "address[]",
                    "name": "",
                    "type": "address[]"
                }
            ],
            "stateMutability": "view",
            "type": "function"
        },
        {
            "inputs": [
                {
                    "internalType": "address",
                    "name": "owner",
                    "type": "address"
                },
                {
                    "internalType": "address",
                    "name": "operator",
                    "type": "address"
                }
            ],
            "name": "isApprovedForAll",
            "outputs": [
                {
                    "internalType": "bool",
                    "name": "",
                    "type": "bool"
                }
            ],
            "stateMutability": "view",
            "type": "function"
        },
        {
            "inputs": [],
            "name": "isSaleActive",
            "outputs": [
                {
                    "internalType": "bool",
                    "name": "",
                    "type": "bool"
                }
            ],
            "stateMutability": "view",
            "type": "function"
        },
        {
            "inputs": [
                {
                    "internalType": "string",
                    "name": "imgURI",
                    "type": "string"
                }
            ],
            "name": "mintCustomMultiple",
            "outputs": [],
            "stateMutability": "nonpayable",
            "type": "function"
        },
        {
            "inputs": [],
            "name": "name",
            "outputs": [
                {
                    "internalType": "string",
                    "name": "",
                    "type": "string"
                }
            ],
            "stateMutability": "view",
            "type": "function"
        },
        {
            "inputs": [],
            "name": "openSale",
            "outputs": [],
            "stateMutability": "nonpayable",
            "type": "function"
        },
        {
            "inputs": [],
            "name": "owner",
            "outputs": [
                {
                    "internalType": "address",
                    "name": "",
                    "type": "address"
                }
            ],
            "stateMutability": "view",
            "type": "function"
        },
        {
            "inputs": [
                {
                    "internalType": "uint256",
                    "name": "tokenId",
                    "type": "uint256"
                }
            ],
            "name": "ownerOf",
            "outputs": [
                {
                    "internalType": "address",
                    "name": "",
                    "type": "address"
                }
            ],
            "stateMutability": "view",
            "type": "function"
        },
        {
            "inputs": [
                {
                    "internalType": "address",
                    "name": "rem",
                    "type": "address"
                }
            ],
            "name": "removeOfficer",
            "outputs": [],
            "stateMutability": "nonpayable",
            "type": "function"
        },
        {
            "inputs": [],
            "name": "renounceOwnership",
            "outputs": [],
            "stateMutability": "nonpayable",
            "type": "function"
        },
        {
            "inputs": [
                {
                    "internalType": "address",
                    "name": "from",
                    "type": "address"
                },
                {
                    "internalType": "address",
                    "name": "to",
                    "type": "address"
                },
                {
                    "internalType": "uint256",
                    "name": "tokenId",
                    "type": "uint256"
                }
            ],
            "name": "safeTransferFrom",
            "outputs": [],
            "stateMutability": "nonpayable",
            "type": "function"
        },
        {
            "inputs": [
                {
                    "internalType": "address",
                    "name": "from",
                    "type": "address"
                },
                {
                    "internalType": "address",
                    "name": "to",
                    "type": "address"
                },
                {
                    "internalType": "uint256",
                    "name": "tokenId",
                    "type": "uint256"
                },
                {
                    "internalType": "bytes",
                    "name": "data",
                    "type": "bytes"
                }
            ],
            "name": "safeTransferFrom",
            "outputs": [],
            "stateMutability": "nonpayable",
            "type": "function"
        },
        {
            "inputs": [
                {
                    "internalType": "address",
                    "name": "operator",
                    "type": "address"
                },
                {
                    "internalType": "bool",
                    "name": "approved",
                    "type": "bool"
                }
            ],
            "name": "setApprovalForAll",
            "outputs": [],
            "stateMutability": "nonpayable",
            "type": "function"
        },
        {
            "inputs": [
                {
                    "internalType": "bytes4",
                    "name": "interfaceId",
                    "type": "bytes4"
                }
            ],
            "name": "supportsInterface",
            "outputs": [
                {
                    "internalType": "bool",
                    "name": "",
                    "type": "bool"
                }
            ],
            "stateMutability": "view",
            "type": "function"
        },
        {
            "inputs": [],
            "name": "symbol",
            "outputs": [
                {
                    "internalType": "string",
                    "name": "",
                    "type": "string"
                }
            ],
            "stateMutability": "view",
            "type": "function"
        },
        {
            "inputs": [
                {
                    "internalType": "uint256",
                    "name": "tokenId",
                    "type": "uint256"
                }
            ],
            "name": "tokenURI",
            "outputs": [
                {
                    "internalType": "string",
                    "name": "",
                    "type": "string"
                }
            ],
            "stateMutability": "view",
            "type": "function"
        },
        {
            "inputs": [
                {
                    "internalType": "address",
                    "name": "from",
                    "type": "address"
                },
                {
                    "internalType": "address",
                    "name": "to",
                    "type": "address"
                },
                {
                    "internalType": "uint256",
                    "name": "tokenId",
                    "type": "uint256"
                }
            ],
            "name": "transferFrom",
            "outputs": [],
            "stateMutability": "nonpayable",
            "type": "function"
        },
        {
            "inputs": [
                {
                    "internalType": "address",
                    "name": "newOwner",
                    "type": "address"
                }
            ],
            "name": "transferOwnership",
            "outputs": [],
            "stateMutability": "nonpayable",
            "type": "function"
        }
    ],
    "bytecode": "0x6080604052600b805460ff191660011790553480156200001e57600080fd5b50604080518082018252600a81526923b7bb32b934b334b2b960b11b60208083019182528351808501909452600484526323ab2a2b60e11b9084015281519192916200006d916000916200011c565b508051620000839060019060208401906200011c565b505050620000a06200009a620000bd60201b60201c565b620000c1565b620000b760086200011360201b62000c721760201c565b620001ff565b3390565b600780546001600160a01b038381166001600160a01b0319831681179093556040519116919082907f8be0079c531659141344cd1fd0a4f28419497f9722a3daafe3b4186f6b6457e090600090a35050565b80546001019055565b8280546200012a90620001c2565b90600052602060002090601f0160209004810192826200014e576000855562000199565b82601f106200016957805160ff191683800117855562000199565b8280016001018555821562000199579182015b82811115620001995782518255916020019190600101906200017c565b50620001a7929150620001ab565b5090565b5b80821115620001a75760008155600101620001ac565b600181811c90821680620001d757607f821691505b60208210811415620001f957634e487b7160e01b600052602260045260246000fd5b50919050565b611ff0806200020f6000396000f3fe608060405234801561001057600080fd5b506004361061014d5760003560e01c8063715018a6116100c3578063c4dceaa31161007c578063c4dceaa3146102ad578063c87b56dd146102c0578063d9803cb2146102d3578063e985e9c5146102e6578063ee55efee14610322578063f2fde38b1461032a57600080fd5b8063715018a614610253578063719a0f8c1461025b5780638da5cb5b1461026e57806395d89b411461027f578063a22cb46514610287578063b88d4fde1461029a57600080fd5b8063167ff46f11610115578063167ff46f146101e457806323b872dd146101ec57806342842e0e146101ff578063564566a8146102125780636352211e1461021f57806370a082311461023257600080fd5b806301ffc9a71461015257806306fdde031461017a578063081812fc1461018f578063095ea7b3146101ba5780630f7151dc146101cf575b600080fd5b610165610160366004611a3a565b61033d565b60405190151581526020015b60405180910390f35b61018261038f565b6040516101719190611d77565b6101a261019d366004611ab8565b610421565b6040516001600160a01b039091168152602001610171565b6101cd6101c8366004611a11565b610448565b005b6101d7610563565b6040516101719190611d2a565b6101cd6105c4565b6101cd6101fa366004611923565b6105db565b6101cd61020d366004611923565b61060c565b600b546101659060ff1681565b6101a261022d366004611ab8565b610627565b6102456102403660046118d7565b610687565b604051908152602001610171565b6101cd61070d565b6101cd6102693660046118d7565b610721565b6007546001600160a01b03166101a2565b61018261086a565b6101cd6102953660046119d7565b610879565b6101cd6102a836600461195e565b610884565b6101cd6102bb366004611a72565b6108bc565b6101826102ce366004611ab8565b610a7a565b6101cd6102e13660046118d7565b610b8b565b6101656102f43660046118f1565b6001600160a01b03918216600090815260056020908152604080832093909416825291909152205460ff1690565b6101cd610be5565b6101cd6103383660046118d7565b610bf9565b60006001600160e01b031982166380ac58cd60e01b148061036e57506001600160e01b03198216635b5e139f60e01b145b8061038957506301ffc9a760e01b6001600160e01b03198316145b92915050565b60606000805461039e90611eb8565b80601f01602080910402602001604051908101604052809291908181526020018280546103ca90611eb8565b80156104175780601f106103ec57610100808354040283529160200191610417565b820191906000526020600020905b8154815290600101906020018083116103fa57829003601f168201915b5050505050905090565b600061042c82610c7b565b506000908152600460205260409020546001600160a01b031690565b600061045382610627565b9050806001600160a01b0316836001600160a01b031614156104c65760405162461bcd60e51b815260206004820152602160248201527f4552433732313a20617070726f76616c20746f2063757272656e74206f776e656044820152603960f91b60648201526084015b60405180910390fd5b336001600160a01b03821614806104e257506104e281336102f4565b6105545760405162461bcd60e51b815260206004820152603e60248201527f4552433732313a20617070726f76652063616c6c6572206973206e6f7420746f60448201527f6b656e206f776e6572206e6f7220617070726f76656420666f7220616c6c000060648201526084016104bd565b61055e8383610cda565b505050565b6060600980548060200260200160405190810160405280929190818152602001828054801561041757602002820191906000526020600020905b81546001600160a01b0316815260019091019060200180831161059d575050505050905090565b6105cc610d48565b600b805460ff19166001179055565b6105e53382610da2565b6106015760405162461bcd60e51b81526004016104bd90611ddc565b61055e838383610e20565b61055e83838360405180602001604052806000815250610884565b6000818152600260205260408120546001600160a01b0316806103895760405162461bcd60e51b8152602060048201526018602482015277115490cdcc8c4e881a5b9d985b1a59081d1bdad95b88125160421b60448201526064016104bd565b60006001600160a01b0382166106f15760405162461bcd60e51b815260206004820152602960248201527f4552433732313a2061646472657373207a65726f206973206e6f7420612076616044820152683634b21037bbb732b960b91b60648201526084016104bd565b506001600160a01b031660009081526003602052604090205490565b610715610d48565b61071f6000610fbc565b565b610729610d48565b60005b60095481101561086657816001600160a01b03166009828154811061076157634e487b7160e01b600052603260045260246000fd5b6000918252602090912001546001600160a01b03161415610854576009805461078c90600190611e75565b815481106107aa57634e487b7160e01b600052603260045260246000fd5b600091825260209091200154600980546001600160a01b0390921691839081106107e457634e487b7160e01b600052603260045260246000fd5b9060005260206000200160006101000a8154816001600160a01b0302191690836001600160a01b03160217905550600980548061083157634e487b7160e01b600052603160045260246000fd5b600082815260209020810160001990810180546001600160a01b03191690550190555b8061085e81611ef3565b91505061072c565b5050565b60606001805461039e90611eb8565b61086633838361100e565b61088e3383610da2565b6108aa5760405162461bcd60e51b81526004016104bd90611ddc565b6108b6848484846110dd565b50505050565b6108c4610d48565b600b5460ff1661090c5760405162461bcd60e51b815260206004820152601360248201527214dbdc9c9e4b081d1bdbc81b185d19481b1bdb606a1b60448201526064016104bd565b60005b60095481101561086657600061096261092f61092a60085490565b611110565b61093b61092a60085490565b8560405160200161094e93929190611b8c565b60405160208183030381529060405261122a565b90506000816040516020016109779190611b47565b60405160208183030381529060405290506109918161139e565b6109a33361099e60085490565b6113e1565b6109b56109af60085490565b826113fb565b6109c7336109c260085490565b610cda565b610a0a33600985815481106109ec57634e487b7160e01b600052603260045260246000fd5b6000918252602090912001546001600160a01b031661020d60085490565b600854600a600060098681548110610a3257634e487b7160e01b600052603260045260246000fd5b60009182526020808320909101546001600160a01b03168352820192909252604001902055610a65600880546001019055565b50508080610a7290611ef3565b91505061090f565b6060610a8582610c7b565b60008281526006602052604081208054610a9e90611eb8565b80601f0160208091040260200160405190810160405280929190818152602001828054610aca90611eb8565b8015610b175780601f10610aec57610100808354040283529160200191610b17565b820191906000526020600020905b815481529060010190602001808311610afa57829003601f168201915b505050505090506000610b3560408051602081019091526000815290565b9050805160001415610b48575092915050565b815115610b7a578082604051602001610b62929190611b18565b60405160208183030381529060405292505050919050565b610b8384611495565b949350505050565b610b93610d48565b600980546001810182556000919091527f6e1540171b6c0c960b71a7020d9f60077f6af931a8bbf590da0223dacf75c7af0180546001600160a01b0319166001600160a01b0392909216919091179055565b610bed610d48565b600b805460ff19169055565b610c01610d48565b6001600160a01b038116610c665760405162461bcd60e51b815260206004820152602660248201527f4f776e61626c653a206e6577206f776e657220697320746865207a65726f206160448201526564647265737360d01b60648201526084016104bd565b610c6f81610fbc565b50565b80546001019055565b6000818152600260205260409020546001600160a01b0316610c6f5760405162461bcd60e51b8152602060048201526018602482015277115490cdcc8c4e881a5b9d985b1a59081d1bdad95b88125160421b60448201526064016104bd565b600081815260046020526040902080546001600160a01b0319166001600160a01b0384169081179091558190610d0f82610627565b6001600160a01b03167f8c5be1e5ebec7d5bd14f71427d1e84f3dd0314c0f7b2291e5b200ac8c7c3b92560405160405180910390a45050565b6007546001600160a01b0316331461071f5760405162461bcd60e51b815260206004820181905260248201527f4f776e61626c653a2063616c6c6572206973206e6f7420746865206f776e657260448201526064016104bd565b600080610dae83610627565b9050806001600160a01b0316846001600160a01b03161480610df557506001600160a01b0380821660009081526005602090815260408083209388168352929052205460ff165b80610b835750836001600160a01b0316610e0e84610421565b6001600160a01b031614949350505050565b826001600160a01b0316610e3382610627565b6001600160a01b031614610e975760405162461bcd60e51b815260206004820152602560248201527f4552433732313a207472616e736665722066726f6d20696e636f72726563742060448201526437bbb732b960d91b60648201526084016104bd565b6001600160a01b038216610ef95760405162461bcd60e51b8152602060048201526024808201527f4552433732313a207472616e7366657220746f20746865207a65726f206164646044820152637265737360e01b60648201526084016104bd565b610f04600082610cda565b6001600160a01b0383166000908152600360205260408120805460019290610f2d908490611e75565b90915550506001600160a01b0382166000908152600360205260408120805460019290610f5b908490611e2a565b909155505060008181526002602052604080822080546001600160a01b0319166001600160a01b0386811691821790925591518493918716917fddf252ad1be2c89b69c2b068fc378daa952ba7f163c4a11628f55a4df523b3ef91a4505050565b600780546001600160a01b038381166001600160a01b0319831681179093556040519116919082907f8be0079c531659141344cd1fd0a4f28419497f9722a3daafe3b4186f6b6457e090600090a35050565b816001600160a01b0316836001600160a01b031614156110705760405162461bcd60e51b815260206004820152601960248201527f4552433732313a20617070726f766520746f2063616c6c65720000000000000060448201526064016104bd565b6001600160a01b03838116600081815260056020908152604080832094871680845294825291829020805460ff191686151590811790915591519182527f17307eab39ab6107e8899845ad3d59bd9653f200f220920489ca2b5937696c31910160405180910390a3505050565b6110e8848484610e20565b6110f484848484611509565b6108b65760405162461bcd60e51b81526004016104bd90611d8a565b6060816111345750506040805180820190915260018152600360fc1b602082015290565b8160005b811561115e578061114881611ef3565b91506111579050600a83611e42565b9150611138565b60008167ffffffffffffffff81111561118757634e487b7160e01b600052604160045260246000fd5b6040519080825280601f01601f1916602001820160405280156111b1576020820181803683370190505b5090505b8415610b83576111c6600183611e75565b91506111d3600a86611f0e565b6111de906030611e2a565b60f81b81838151811061120157634e487b7160e01b600052603260045260246000fd5b60200101906001600160f81b031916908160001a905350611223600a86611e42565b94506111b5565b80516060908061124a575050604080516020810190915260008152919050565b60006003611259836002611e2a565b6112639190611e42565b61126e906004611e56565b9050600061127d826020611e2a565b67ffffffffffffffff8111156112a357634e487b7160e01b600052604160045260246000fd5b6040519080825280601f01601f1916602001820160405280156112cd576020820181803683370190505b5090506000604051806060016040528060408152602001611f7b604091399050600181016020830160005b86811015611359576003818a01810151603f601282901c8116860151600c83901c8216870151600684901c831688015192909316870151600891821b60ff94851601821b92841692909201901b91160160e01b8352600490920191016112f8565b506003860660018114611373576002811461138457611390565b613d3d60f01b600119830152611390565b603d60f81b6000198301525b505050918152949350505050565b610c6f816040516024016113b29190611d77565b60408051601f198184030181529190526020810180516001600160e01b031663104c13eb60e21b179052611616565b610866828260405180602001604052806000815250611637565b6000828152600260205260409020546001600160a01b03166114765760405162461bcd60e51b815260206004820152602e60248201527f45524337323155524953746f726167653a2055524920736574206f66206e6f6e60448201526d32bc34b9ba32b73a103a37b5b2b760911b60648201526084016104bd565b6000828152600660209081526040909120825161055e928401906117ac565b60606114a082610c7b565b60006114b760408051602081019091526000815290565b905060008151116114d75760405180602001604052806000815250611502565b806114e184611110565b6040516020016114f2929190611b18565b6040516020818303038152906040525b9392505050565b60006001600160a01b0384163b1561160b57604051630a85bd0160e11b81526001600160a01b0385169063150b7a029061154d903390899088908890600401611cf7565b602060405180830381600087803b15801561156757600080fd5b505af1925050508015611597575060408051601f3d908101601f1916820190925261159491810190611a56565b60015b6115f1573d8080156115c5576040519150601f19603f3d011682016040523d82523d6000602084013e6115ca565b606091505b5080516115e95760405162461bcd60e51b81526004016104bd90611d8a565b805181602001fd5b6001600160e01b031916630a85bd0160e11b149050610b83565b506001949350505050565b80516a636f6e736f6c652e6c6f67602083016000808483855afa5050505050565b611641838361166a565b61164e6000848484611509565b61055e5760405162461bcd60e51b81526004016104bd90611d8a565b6001600160a01b0382166116c05760405162461bcd60e51b815260206004820181905260248201527f4552433732313a206d696e7420746f20746865207a65726f206164647265737360448201526064016104bd565b6000818152600260205260409020546001600160a01b0316156117255760405162461bcd60e51b815260206004820152601c60248201527f4552433732313a20746f6b656e20616c7265616479206d696e7465640000000060448201526064016104bd565b6001600160a01b038216600090815260036020526040812080546001929061174e908490611e2a565b909155505060008181526002602052604080822080546001600160a01b0319166001600160a01b03861690811790915590518392907fddf252ad1be2c89b69c2b068fc378daa952ba7f163c4a11628f55a4df523b3ef908290a45050565b8280546117b890611eb8565b90600052602060002090601f0160209004810192826117da5760008555611820565b82601f106117f357805160ff1916838001178555611820565b82800160010185558215611820579182015b82811115611820578251825591602001919060010190611805565b5061182c929150611830565b5090565b5b8082111561182c5760008155600101611831565b600067ffffffffffffffff8084111561186057611860611f4e565b604051601f8501601f19908116603f0116810190828211818310171561188857611888611f4e565b816040528093508581528686860111156118a157600080fd5b858560208301376000602087830101525050509392505050565b80356001600160a01b03811681146118d257600080fd5b919050565b6000602082840312156118e8578081fd5b611502826118bb565b60008060408385031215611903578081fd5b61190c836118bb565b915061191a602084016118bb565b90509250929050565b600080600060608486031215611937578081fd5b611940846118bb565b925061194e602085016118bb565b9150604084013590509250925092565b60008060008060808587031215611973578081fd5b61197c856118bb565b935061198a602086016118bb565b925060408501359150606085013567ffffffffffffffff8111156119ac578182fd5b8501601f810187136119bc578182fd5b6119cb87823560208401611845565b91505092959194509250565b600080604083850312156119e9578182fd5b6119f2836118bb565b915060208301358015158114611a06578182fd5b809150509250929050565b60008060408385031215611a23578182fd5b611a2c836118bb565b946020939093013593505050565b600060208284031215611a4b578081fd5b813561150281611f64565b600060208284031215611a67578081fd5b815161150281611f64565b600060208284031215611a83578081fd5b813567ffffffffffffffff811115611a99578182fd5b8201601f81018413611aa9578182fd5b610b8384823560208401611845565b600060208284031215611ac9578081fd5b5035919050565b60008151808452611ae8816020860160208601611e8c565b601f01601f19169290920160200192915050565b60008151611b0e818560208601611e8c565b9290920192915050565b60008351611b2a818460208801611e8c565b835190830190611b3e818360208801611e8c565b01949350505050565b7f646174613a6170706c69636174696f6e2f6a736f6e3b6261736536342c000000815260008251611b7f81601d850160208701611e8c565b91909101601d0192915050565b707b20226e616d65223a202247565456202360781b81528351600090611bb9816011850160208901611e8c565b6801116101134b2111d160bd1b6011918401918201528451611be281601a840160208901611e8c565b7f2c20226465736372697074696f6e223a20224e4654204d61726b6574706c61639101601a8101919091527f6520666f7220476f76657269666965722070726f6a656374222c200000000000603a8201527f22747261697473223a205b7b202274726169745f74797065223a20226661737460558201527f222c202276616c7565223a20227472756522207d2c207b202274726169745f7460758201527f797065223a2022507572636861736564222c202276616c7565223a202274727560958201526603291103eae96160cd1b60b58201527022696d616765223a2022697066733a2f2f60781b60bc820152611ced611cdf60cd830186611afc565b61088b60f21b815260020190565b9695505050505050565b6001600160a01b0385811682528416602082015260408101839052608060608201819052600090611ced90830184611ad0565b6020808252825182820181905260009190848201906040850190845b81811015611d6b5783516001600160a01b031683529284019291840191600101611d46565b50909695505050505050565b6020815260006115026020830184611ad0565b60208082526032908201527f4552433732313a207472616e7366657220746f206e6f6e20455243373231526560408201527131b2b4bb32b91034b6b83632b6b2b73a32b960711b606082015260800190565b6020808252602e908201527f4552433732313a2063616c6c6572206973206e6f7420746f6b656e206f776e6560408201526d1c881b9bdc88185c1c1c9bdd995960921b606082015260800190565b60008219821115611e3d57611e3d611f22565b500190565b600082611e5157611e51611f38565b500490565b6000816000190483118215151615611e7057611e70611f22565b500290565b600082821015611e8757611e87611f22565b500390565b60005b83811015611ea7578181015183820152602001611e8f565b838111156108b65750506000910152565b600181811c90821680611ecc57607f821691505b60208210811415611eed57634e487b7160e01b600052602260045260246000fd5b50919050565b6000600019821415611f0757611f07611f22565b5060010190565b600082611f1d57611f1d611f38565b500690565b634e487b7160e01b600052601160045260246000fd5b634e487b7160e01b600052601260045260246000fd5b634e487b7160e01b600052604160045260246000fd5b6001600160e01b031981168114610c6f57600080fdfe4142434445464748494a4b4c4d4e4f505152535455565758595a6162636465666768696a6b6c6d6e6f707172737475767778797a303132333435363738392b2fa2646970667358221220e7b44c88fb027a865afb551dc1b3599e4a2e10b65db9d6a06565ceb971a2fef464736f6c63430008040033",
    "linkReferences": {},
    "deployedLinkReferences": {}
}