{
    "_format": "hh-sol-artifact-1",
    "contractName": "MetaBallMarket",
    "sourceName": "contracts/MetaBallMarket.sol",
    "abi": [
        {
            "inputs": [],
            "stateMutability": "nonpayable",
            "type": "constructor"
        },
        {
            "anonymous": false,
            "inputs": [
                {
                    "indexed": true,
                    "internalType": "address",
                    "name": "owner",
                    "type": "address"
                },
                {
                    "indexed": true,
                    "internalType": "address",
                    "name": "approved",
                    "type": "address"
                },
                {
                    "indexed": true,
                    "internalType": "uint256",
                    "name": "tokenId",
                    "type": "uint256"
                }
            ],
            "name": "Approval",
            "type": "event"
        },
        {
            "anonymous": false,
            "inputs": [
                {
                    "indexed": true,
                    "internalType": "address",
                    "name": "owner",
                    "type": "address"
                },
                {
                    "indexed": true,
                    "internalType": "address",
                    "name": "operator",
                    "type": "address"
                },
                {
                    "indexed": false,
                    "internalType": "bool",
                    "name": "approved",
                    "type": "bool"
                }
            ],
            "name": "ApprovalForAll",
            "type": "event"
        },
        {
            "anonymous": false,
            "inputs": [
                {
                    "indexed": true,
                    "internalType": "address",
                    "name": "previousOwner",
                    "type": "address"
                },
                {
                    "indexed": true,
                    "internalType": "address",
                    "name": "newOwner",
                    "type": "address"
                }
            ],
            "name": "OwnershipTransferred",
            "type": "event"
        },
        {
            "anonymous": false,
            "inputs": [
                {
                    "indexed": true,
                    "internalType": "address",
                    "name": "from",
                    "type": "address"
                },
                {
                    "indexed": true,
                    "internalType": "address",
                    "name": "to",
                    "type": "address"
                },
                {
                    "indexed": true,
                    "internalType": "uint256",
                    "name": "tokenId",
                    "type": "uint256"
                }
            ],
            "name": "Transfer",
            "type": "event"
        },
        {
            "inputs": [
                {
                    "internalType": "address",
                    "name": "to",
                    "type": "address"
                },
                {
                    "internalType": "uint256",
                    "name": "tokenId",
                    "type": "uint256"
                }
            ],
            "name": "approve",
            "outputs": [],
            "stateMutability": "nonpayable",
            "type": "function"
        },
        {
            "inputs": [],
            "name": "availableTicketCount",
            "outputs": [
                {
                    "internalType": "uint256",
                    "name": "",
                    "type": "uint256"
                }
            ],
            "stateMutability": "view",
            "type": "function"
        },
        {
            "inputs": [],
            "name": "availableTickets",
            "outputs": [
                {
                    "internalType": "uint256",
                    "name": "",
                    "type": "uint256"
                }
            ],
            "stateMutability": "view",
            "type": "function"
        },
        {
            "inputs": [
                {
                    "internalType": "address",
                    "name": "owner",
                    "type": "address"
                }
            ],
            "name": "balanceOf",
            "outputs": [
                {
                    "internalType": "uint256",
                    "name": "",
                    "type": "uint256"
                }
            ],
            "stateMutability": "view",
            "type": "function"
        },
        {
            "inputs": [],
            "name": "closeSale",
            "outputs": [],
            "stateMutability": "nonpayable",
            "type": "function"
        },
        {
            "inputs": [
                {
                    "internalType": "uint256",
                    "name": "tokenId",
                    "type": "uint256"
                }
            ],
            "name": "getApproved",
            "outputs": [
                {
                    "internalType": "address",
                    "name": "",
                    "type": "address"
                }
            ],
            "stateMutability": "view",
            "type": "function"
        },
        {
            "inputs": [
                {
                    "internalType": "string",
                    "name": "",
                    "type": "string"
                }
            ],
            "name": "imgs",
            "outputs": [
                {
                    "internalType": "string",
                    "name": "",
                    "type": "string"
                }
            ],
            "stateMutability": "view",
            "type": "function"
        },
        {
            "inputs": [
                {
                    "internalType": "address",
                    "name": "owner",
                    "type": "address"
                },
                {
                    "internalType": "address",
                    "name": "operator",
                    "type": "address"
                }
            ],
            "name": "isApprovedForAll",
            "outputs": [
                {
                    "internalType": "bool",
                    "name": "",
                    "type": "bool"
                }
            ],
            "stateMutability": "view",
            "type": "function"
        },
        {
            "inputs": [],
            "name": "isSaleActive",
            "outputs": [
                {
                    "internalType": "bool",
                    "name": "",
                    "type": "bool"
                }
            ],
            "stateMutability": "view",
            "type": "function"
        },
        {
            "inputs": [],
            "name": "mint",
            "outputs": [],
            "stateMutability": "payable",
            "type": "function"
        },
        {
            "inputs": [
                {
                    "internalType": "string",
                    "name": "imgURI",
                    "type": "string"
                }
            ],
            "name": "mintCustom",
            "outputs": [],
            "stateMutability": "nonpayable",
            "type": "function"
        },
        {
            "inputs": [],
            "name": "mintPrice",
            "outputs": [
                {
                    "internalType": "uint256",
                    "name": "",
                    "type": "uint256"
                }
            ],
            "stateMutability": "view",
            "type": "function"
        },
        {
            "inputs": [],
            "name": "name",
            "outputs": [
                {
                    "internalType": "string",
                    "name": "",
                    "type": "string"
                }
            ],
            "stateMutability": "view",
            "type": "function"
        },
        {
            "inputs": [],
            "name": "openSale",
            "outputs": [],
            "stateMutability": "nonpayable",
            "type": "function"
        },
        {
            "inputs": [],
            "name": "owner",
            "outputs": [
                {
                    "internalType": "address",
                    "name": "",
                    "type": "address"
                }
            ],
            "stateMutability": "view",
            "type": "function"
        },
        {
            "inputs": [
                {
                    "internalType": "uint256",
                    "name": "tokenId",
                    "type": "uint256"
                }
            ],
            "name": "ownerOf",
            "outputs": [
                {
                    "internalType": "address",
                    "name": "",
                    "type": "address"
                }
            ],
            "stateMutability": "view",
            "type": "function"
        },
        {
            "inputs": [
                {
                    "internalType": "bytes32",
                    "name": "message",
                    "type": "bytes32"
                },
                {
                    "internalType": "bytes",
                    "name": "sig",
                    "type": "bytes"
                }
            ],
            "name": "recoverSigner",
            "outputs": [
                {
                    "internalType": "address",
                    "name": "",
                    "type": "address"
                }
            ],
            "stateMutability": "pure",
            "type": "function"
        },
        {
            "inputs": [],
            "name": "renounceOwnership",
            "outputs": [],
            "stateMutability": "nonpayable",
            "type": "function"
        },
        {
            "inputs": [
                {
                    "internalType": "address",
                    "name": "from",
                    "type": "address"
                },
                {
                    "internalType": "address",
                    "name": "to",
                    "type": "address"
                },
                {
                    "internalType": "uint256",
                    "name": "tokenId",
                    "type": "uint256"
                }
            ],
            "name": "safeTransferFrom",
            "outputs": [],
            "stateMutability": "nonpayable",
            "type": "function"
        },
        {
            "inputs": [
                {
                    "internalType": "address",
                    "name": "from",
                    "type": "address"
                },
                {
                    "internalType": "address",
                    "name": "to",
                    "type": "address"
                },
                {
                    "internalType": "uint256",
                    "name": "tokenId",
                    "type": "uint256"
                },
                {
                    "internalType": "bytes",
                    "name": "data",
                    "type": "bytes"
                }
            ],
            "name": "safeTransferFrom",
            "outputs": [],
            "stateMutability": "nonpayable",
            "type": "function"
        },
        {
            "inputs": [
                {
                    "internalType": "address",
                    "name": "operator",
                    "type": "address"
                },
                {
                    "internalType": "bool",
                    "name": "approved",
                    "type": "bool"
                }
            ],
            "name": "setApprovalForAll",
            "outputs": [],
            "stateMutability": "nonpayable",
            "type": "function"
        },
        {
            "inputs": [
                {
                    "internalType": "bytes",
                    "name": "sig",
                    "type": "bytes"
                }
            ],
            "name": "splitSignature",
            "outputs": [
                {
                    "internalType": "uint8",
                    "name": "",
                    "type": "uint8"
                },
                {
                    "internalType": "bytes32",
                    "name": "",
                    "type": "bytes32"
                },
                {
                    "internalType": "bytes32",
                    "name": "",
                    "type": "bytes32"
                }
            ],
            "stateMutability": "pure",
            "type": "function"
        },
        {
            "inputs": [
                {
                    "internalType": "bytes4",
                    "name": "interfaceId",
                    "type": "bytes4"
                }
            ],
            "name": "supportsInterface",
            "outputs": [
                {
                    "internalType": "bool",
                    "name": "",
                    "type": "bool"
                }
            ],
            "stateMutability": "view",
            "type": "function"
        },
        {
            "inputs": [],
            "name": "symbol",
            "outputs": [
                {
                    "internalType": "string",
                    "name": "",
                    "type": "string"
                }
            ],
            "stateMutability": "view",
            "type": "function"
        },
        {
            "inputs": [
                {
                    "internalType": "uint256",
                    "name": "tokenId",
                    "type": "uint256"
                }
            ],
            "name": "tokenURI",
            "outputs": [
                {
                    "internalType": "string",
                    "name": "",
                    "type": "string"
                }
            ],
            "stateMutability": "view",
            "type": "function"
        },
        {
            "inputs": [],
            "name": "totalTicketCount",
            "outputs": [
                {
                    "internalType": "uint256",
                    "name": "",
                    "type": "uint256"
                }
            ],
            "stateMutability": "view",
            "type": "function"
        },
        {
            "inputs": [],
            "name": "totalTickets",
            "outputs": [
                {
                    "internalType": "uint256",
                    "name": "",
                    "type": "uint256"
                }
            ],
            "stateMutability": "view",
            "type": "function"
        },
        {
            "inputs": [
                {
                    "internalType": "address",
                    "name": "from",
                    "type": "address"
                },
                {
                    "internalType": "address",
                    "name": "to",
                    "type": "address"
                },
                {
                    "internalType": "uint256",
                    "name": "tokenId",
                    "type": "uint256"
                }
            ],
            "name": "transferFrom",
            "outputs": [],
            "stateMutability": "nonpayable",
            "type": "function"
        },
        {
            "inputs": [
                {
                    "internalType": "address",
                    "name": "newOwner",
                    "type": "address"
                }
            ],
            "name": "transferOwnership",
            "outputs": [],
            "stateMutability": "nonpayable",
            "type": "function"
        }
    ],
    "bytecode": "0x6080604052600a805460ff191660011790556008600b819055600c556548c273950000600d553480156200003257600080fd5b50604080518082018252600b81526a4d65746162616c6c69736d60a81b60208083019182528351808501909452600484526304d5442560e41b9084015281519192916200008291600091620005c8565b50805162000098906001906020840190620005c8565b505050620000b5620000af6200056960201b60201c565b6200056d565b620000cc6008620005bf60201b62000ec21760201c565b6040518060600160405280602e815260200162002b18602e913960408051603160f81b81526009600182015290519081900360210190208151620001149260200190620005c8565b506040518060600160405280602e815260200162002abc602e913960408051601960f91b815260096001820152905190819003602101902081516200015d9260200190620005c8565b506040518060600160405280602e815260200162002aea602e913960408051603360f81b81526009600182015290519081900360210190208151620001a69260200190620005c8565b506040518060600160405280602e815260200162002a8e602e913960408051600d60fa1b81526009600182015290519081900360210190208151620001ef9260200190620005c8565b506040518060600160405280602e815260200162002b18602e913960408051603560f81b81526009600182015290519081900360210190208151620002389260200190620005c8565b506040518060600160405280602e815260200162002abc602e913960408051601b60f91b81526009600182015290519081900360210190208151620002819260200190620005c8565b506040518060600160405280602e815260200162002aea602e913960408051603760f81b81526009600182015290519081900360210190208151620002ca9260200190620005c8565b506040518060600160405280602e815260200162002a8e602e913960408051600760fb1b81526009600182015290519081900360210190208151620003139260200190620005c8565b506040518060600160405280602e815260200162002b18602e913960408051603960f81b815260096001820152905190819003602101902081516200035c9260200190620005c8565b506040518060600160405280602e815260200162002abc602e91396040805161031360f41b81526009600282015290519081900360220190208151620003a69260200190620005c8565b506040518060600160405280602e815260200162002aea602e91396040805161313160f01b81526009600282015290519081900360220190208151620003f09260200190620005c8565b506040518060600160405280602e815260200162002a8e602e91396040805161189960f11b815260096002820152905190819003602201902081516200043a9260200190620005c8565b506040518060600160405280602e815260200162002b18602e91396040805161313360f01b81526009600282015290519081900360220190208151620004849260200190620005c8565b506040518060600160405280602e815260200162002abc602e913960408051610c4d60f21b81526009600282015290519081900360220190208151620004ce9260200190620005c8565b506040518060600160405280602e815260200162002aea602e91396040805161313560f01b81526009600282015290519081900360220190208151620005189260200190620005c8565b506040518060600160405280602e815260200162002a8e602e91396040805161189b60f11b81526009600282015290519081900360220190208151620005629260200190620005c8565b50620006ab565b3390565b600780546001600160a01b038381166001600160a01b0319831681179093556040519116919082907f8be0079c531659141344cd1fd0a4f28419497f9722a3daafe3b4186f6b6457e090600090a35050565b80546001019055565b828054620005d6906200066e565b90600052602060002090601f016020900481019282620005fa576000855562000645565b82601f106200061557805160ff191683800117855562000645565b8280016001018555821562000645579182015b828111156200064557825182559160200191906001019062000628565b506200065392915062000657565b5090565b5b8082111562000653576000815560010162000658565b600181811c908216806200068357607f821691505b60208210811415620006a557634e487b7160e01b600052602260045260246000fd5b50919050565b6123d380620006bb6000396000f3fe6080604052600436106101c25760003560e01c80636352211e116100f7578063a22cb46511610095578063dd11247e11610064578063dd11247e146104d6578063e985e9c5146104ec578063ee55efee14610535578063f2fde38b1461054a57600080fd5b8063a22cb46514610437578063a7bb580314610457578063b88d4fde14610496578063c87b56dd146104b657600080fd5b8063715018a6116100d1578063715018a6146103cf5780638da5cb5b146103e457806395d89b411461040257806397aba7f91461041757600080fd5b80636352211e146103795780636817c76c1461039957806370a08231146103af57600080fd5b806314558fab116101645780633cfa7e011161013e5780633cfa7e01146103145780633d721ecd1461032a57806342842e0e1461033f578063564566a81461035f57600080fd5b806314558fab146102c0578063167ff46f146102df57806323b872dd146102f457600080fd5b8063081812fc116101a0578063081812fc1461023e578063095ea7b3146102765780630b9c66d4146102985780631249c58b146102b857600080fd5b806301ffc9a7146101c757806303cbb032146101fc57806306fdde0314610229575b600080fd5b3480156101d357600080fd5b506101e76101e2366004611cdb565b61056a565b60405190151581526020015b60405180910390f35b34801561020857600080fd5b5061021c610217366004611d46565b6105bc565b6040516101f3919061215a565b34801561023557600080fd5b5061021c610661565b34801561024a57600080fd5b5061025e610259366004611d8c565b6106f3565b6040516001600160a01b0390911681526020016101f3565b34801561028257600080fd5b50610296610291366004611c6d565b61071a565b005b3480156102a457600080fd5b506102966102b3366004611d46565b610835565b610296610927565b3480156102cc57600080fd5b50600b545b6040519081526020016101f3565b3480156102eb57600080fd5b50610296610ac3565b34801561030057600080fd5b5061029661030f366004611b92565b610ada565b34801561032057600080fd5b506102d1600c5481565b34801561033657600080fd5b50600c546102d1565b34801561034b57600080fd5b5061029661035a366004611b92565b610b0b565b34801561036b57600080fd5b50600a546101e79060ff1681565b34801561038557600080fd5b5061025e610394366004611d8c565b610b26565b3480156103a557600080fd5b506102d1600d5481565b3480156103bb57600080fd5b506102d16103ca366004611b46565b610b86565b3480156103db57600080fd5b50610296610c0c565b3480156103f057600080fd5b506007546001600160a01b031661025e565b34801561040e57600080fd5b5061021c610c20565b34801561042357600080fd5b5061025e610432366004611c96565b610c2f565b34801561044357600080fd5b50610296610452366004611c33565b610cae565b34801561046357600080fd5b50610477610472366004611d13565b610cbd565b6040805160ff90941684526020840192909252908201526060016101f3565b3480156104a257600080fd5b506102966104b1366004611bcd565b610cec565b3480156104c257600080fd5b5061021c6104d1366004611d8c565b610d24565b3480156104e257600080fd5b506102d1600b5481565b3480156104f857600080fd5b506101e7610507366004611b60565b6001600160a01b03918216600090815260056020908152604080832093909416825291909152205460ff1690565b34801561054157600080fd5b50610296610e35565b34801561055657600080fd5b50610296610565366004611b46565b610e49565b60006001600160e01b031982166380ac58cd60e01b148061059b57506001600160e01b03198216635b5e139f60e01b145b806105b657506301ffc9a760e01b6001600160e01b03198316145b92915050565b8051602081830181018051600982529282019190930120915280546105e09061229b565b80601f016020809104026020016040519081016040528092919081815260200182805461060c9061229b565b80156106595780601f1061062e57610100808354040283529160200191610659565b820191906000526020600020905b81548152906001019060200180831161063c57829003601f168201915b505050505081565b6060600080546106709061229b565b80601f016020809104026020016040519081016040528092919081815260200182805461069c9061229b565b80156106e95780601f106106be576101008083540402835291602001916106e9565b820191906000526020600020905b8154815290600101906020018083116106cc57829003601f168201915b5050505050905090565b60006106fe82610ecb565b506000908152600460205260409020546001600160a01b031690565b600061072582610b26565b9050806001600160a01b0316836001600160a01b031614156107985760405162461bcd60e51b815260206004820152602160248201527f4552433732313a20617070726f76616c20746f2063757272656e74206f776e656044820152603960f91b60648201526084015b60405180910390fd5b336001600160a01b03821614806107b457506107b48133610507565b6108265760405162461bcd60e51b815260206004820152603e60248201527f4552433732313a20617070726f76652063616c6c6572206973206e6f7420746f60448201527f6b656e206f776e6572206e6f7220617070726f76656420666f7220616c6c0000606482015260840161078f565b6108308383610f2a565b505050565b600a5460ff1661087d5760405162461bcd60e51b815260206004820152601360248201527214dbdc9c9e4b081d1bdbc81b185d19481b1bdb606a1b604482015260640161078f565b60006108c661089361088e60085490565b610f98565b61089f61088e60085490565b846040516020016108b293929190611eaf565b6040516020818303038152906040526110b2565b90506000816040516020016108db9190611e6a565b60405160208183030381529060405290506108f581611226565b6109073361090260085490565b611269565b61091961091360085490565b82611283565b610830600880546001019055565b6000600c541161096e5760405162461bcd60e51b81526020600482015260126024820152714e6f7420656e6f756768207469636b65747360701b604482015260640161078f565b600d543410156109b15760405162461bcd60e51b815260206004820152600e60248201526d09cdee840cadcdeeaced0408aa8960931b604482015260640161078f565b600a5460ff166109f95760405162461bcd60e51b815260206004820152601360248201527214dbdc9c9e4b081d1bdbc81b185d19481b1bdb606a1b604482015260640161078f565b6000610a51610a0a61088e60085490565b610a1661088e60085490565b6009610a2461088e60085490565b604051610a319190611e1f565b90815260200160405180910390206040516020016108b293929190611fe5565b9050600081604051602001610a669190611e6a565b6040516020818303038152906040529050610a8081611226565b610a8d3361090260085490565b610a9961091360085490565b610aa7600880546001019055565b6001600c6000828254610aba9190612258565b90915550505050565b610acb61131d565b600a805460ff19166001179055565b610ae43382611377565b610b005760405162461bcd60e51b815260040161078f906121bf565b6108308383836113f5565b61083083838360405180602001604052806000815250610cec565b6000818152600260205260408120546001600160a01b0316806105b65760405162461bcd60e51b8152602060048201526018602482015277115490cdcc8c4e881a5b9d985b1a59081d1bdad95b88125160421b604482015260640161078f565b60006001600160a01b038216610bf05760405162461bcd60e51b815260206004820152602960248201527f4552433732313a2061646472657373207a65726f206973206e6f7420612076616044820152683634b21037bbb732b960b91b606482015260840161078f565b506001600160a01b031660009081526003602052604090205490565b610c1461131d565b610c1e6000611591565b565b6060600180546106709061229b565b600080600080610c3e85610cbd565b6040805160008152602081018083528b905260ff8516918101919091526060810183905260808101829052929550909350915060019060a0016020604051602081039080840390855afa158015610c99573d6000803e3d6000fd5b5050604051601f190151979650505050505050565b610cb93383836115e3565b5050565b60008060008351604114610cd057600080fd5b5050506020810151604082015160609092015160001a92909190565b610cf63383611377565b610d125760405162461bcd60e51b815260040161078f906121bf565b610d1e848484846116b2565b50505050565b6060610d2f82610ecb565b60008281526006602052604081208054610d489061229b565b80601f0160208091040260200160405190810160405280929190818152602001828054610d749061229b565b8015610dc15780601f10610d9657610100808354040283529160200191610dc1565b820191906000526020600020905b815481529060010190602001808311610da457829003601f168201915b505050505090506000610ddf60408051602081019091526000815290565b9050805160001415610df2575092915050565b815115610e24578082604051602001610e0c929190611e3b565b60405160208183030381529060405292505050919050565b610e2d846116e5565b949350505050565b610e3d61131d565b600a805460ff19169055565b610e5161131d565b6001600160a01b038116610eb65760405162461bcd60e51b815260206004820152602660248201527f4f776e61626c653a206e6577206f776e657220697320746865207a65726f206160448201526564647265737360d01b606482015260840161078f565b610ebf81611591565b50565b80546001019055565b6000818152600260205260409020546001600160a01b0316610ebf5760405162461bcd60e51b8152602060048201526018602482015277115490cdcc8c4e881a5b9d985b1a59081d1bdad95b88125160421b604482015260640161078f565b600081815260046020526040902080546001600160a01b0319166001600160a01b0384169081179091558190610f5f82610b26565b6001600160a01b03167f8c5be1e5ebec7d5bd14f71427d1e84f3dd0314c0f7b2291e5b200ac8c7c3b92560405160405180910390a45050565b606081610fbc5750506040805180820190915260018152600360fc1b602082015290565b8160005b8115610fe65780610fd0816122d6565b9150610fdf9050600a83612225565b9150610fc0565b60008167ffffffffffffffff81111561100f57634e487b7160e01b600052604160045260246000fd5b6040519080825280601f01601f191660200182016040528015611039576020820181803683370190505b5090505b8415610e2d5761104e600183612258565b915061105b600a866122f1565b61106690603061220d565b60f81b81838151811061108957634e487b7160e01b600052603260045260246000fd5b60200101906001600160f81b031916908160001a9053506110ab600a86612225565b945061103d565b8051606090806110d2575050604080516020810190915260008152919050565b600060036110e183600261220d565b6110eb9190612225565b6110f6906004612239565b9050600061110582602061220d565b67ffffffffffffffff81111561112b57634e487b7160e01b600052604160045260246000fd5b6040519080825280601f01601f191660200182016040528015611155576020820181803683370190505b509050600060405180606001604052806040815260200161235e604091399050600181016020830160005b868110156111e1576003818a01810151603f601282901c8116860151600c83901c8216870151600684901c831688015192909316870151600891821b60ff94851601821b92841692909201901b91160160e01b835260049092019101611180565b5060038606600181146111fb576002811461120c57611218565b613d3d60f01b600119830152611218565b603d60f81b6000198301525b505050918152949350505050565b610ebf8160405160240161123a919061215a565b60408051601f198184030181529190526020810180516001600160e01b031663104c13eb60e21b179052611759565b610cb982826040518060200160405280600081525061177a565b6000828152600260205260409020546001600160a01b03166112fe5760405162461bcd60e51b815260206004820152602e60248201527f45524337323155524953746f726167653a2055524920736574206f66206e6f6e60448201526d32bc34b9ba32b73a103a37b5b2b760911b606482015260840161078f565b60008281526006602090815260409091208251610830928401906119fc565b6007546001600160a01b03163314610c1e5760405162461bcd60e51b815260206004820181905260248201527f4f776e61626c653a2063616c6c6572206973206e6f7420746865206f776e6572604482015260640161078f565b60008061138383610b26565b9050806001600160a01b0316846001600160a01b031614806113ca57506001600160a01b0380821660009081526005602090815260408083209388168352929052205460ff165b80610e2d5750836001600160a01b03166113e3846106f3565b6001600160a01b031614949350505050565b826001600160a01b031661140882610b26565b6001600160a01b03161461146c5760405162461bcd60e51b815260206004820152602560248201527f4552433732313a207472616e736665722066726f6d20696e636f72726563742060448201526437bbb732b960d91b606482015260840161078f565b6001600160a01b0382166114ce5760405162461bcd60e51b8152602060048201526024808201527f4552433732313a207472616e7366657220746f20746865207a65726f206164646044820152637265737360e01b606482015260840161078f565b6114d9600082610f2a565b6001600160a01b0383166000908152600360205260408120805460019290611502908490612258565b90915550506001600160a01b038216600090815260036020526040812080546001929061153090849061220d565b909155505060008181526002602052604080822080546001600160a01b0319166001600160a01b0386811691821790925591518493918716917fddf252ad1be2c89b69c2b068fc378daa952ba7f163c4a11628f55a4df523b3ef91a4505050565b600780546001600160a01b038381166001600160a01b0319831681179093556040519116919082907f8be0079c531659141344cd1fd0a4f28419497f9722a3daafe3b4186f6b6457e090600090a35050565b816001600160a01b0316836001600160a01b031614156116455760405162461bcd60e51b815260206004820152601960248201527f4552433732313a20617070726f766520746f2063616c6c657200000000000000604482015260640161078f565b6001600160a01b03838116600081815260056020908152604080832094871680845294825291829020805460ff191686151590811790915591519182527f17307eab39ab6107e8899845ad3d59bd9653f200f220920489ca2b5937696c31910160405180910390a3505050565b6116bd8484846113f5565b6116c9848484846117ad565b610d1e5760405162461bcd60e51b815260040161078f9061216d565b60606116f082610ecb565b600061170760408051602081019091526000815290565b905060008151116117275760405180602001604052806000815250611752565b8061173184610f98565b604051602001611742929190611e3b565b6040516020818303038152906040525b9392505050565b80516a636f6e736f6c652e6c6f67602083016000808483855afa5050505050565b61178483836118ba565b61179160008484846117ad565b6108305760405162461bcd60e51b815260040161078f9061216d565b60006001600160a01b0384163b156118af57604051630a85bd0160e11b81526001600160a01b0385169063150b7a02906117f190339089908890889060040161211d565b602060405180830381600087803b15801561180b57600080fd5b505af192505050801561183b575060408051601f3d908101601f1916820190925261183891810190611cf7565b60015b611895573d808015611869576040519150601f19603f3d011682016040523d82523d6000602084013e61186e565b606091505b50805161188d5760405162461bcd60e51b815260040161078f9061216d565b805181602001fd5b6001600160e01b031916630a85bd0160e11b149050610e2d565b506001949350505050565b6001600160a01b0382166119105760405162461bcd60e51b815260206004820181905260248201527f4552433732313a206d696e7420746f20746865207a65726f2061646472657373604482015260640161078f565b6000818152600260205260409020546001600160a01b0316156119755760405162461bcd60e51b815260206004820152601c60248201527f4552433732313a20746f6b656e20616c7265616479206d696e74656400000000604482015260640161078f565b6001600160a01b038216600090815260036020526040812080546001929061199e90849061220d565b909155505060008181526002602052604080822080546001600160a01b0319166001600160a01b03861690811790915590518392907fddf252ad1be2c89b69c2b068fc378daa952ba7f163c4a11628f55a4df523b3ef908290a45050565b828054611a089061229b565b90600052602060002090601f016020900481019282611a2a5760008555611a70565b82601f10611a4357805160ff1916838001178555611a70565b82800160010185558215611a70579182015b82811115611a70578251825591602001919060010190611a55565b50611a7c929150611a80565b5090565b5b80821115611a7c5760008155600101611a81565b600067ffffffffffffffff80841115611ab057611ab0612331565b604051601f8501601f19908116603f01168101908282118183101715611ad857611ad8612331565b81604052809350858152868686011115611af157600080fd5b858560208301376000602087830101525050509392505050565b80356001600160a01b0381168114611b2257600080fd5b919050565b600082601f830112611b37578081fd5b61175283833560208501611a95565b600060208284031215611b57578081fd5b61175282611b0b565b60008060408385031215611b72578081fd5b611b7b83611b0b565b9150611b8960208401611b0b565b90509250929050565b600080600060608486031215611ba6578081fd5b611baf84611b0b565b9250611bbd60208501611b0b565b9150604084013590509250925092565b60008060008060808587031215611be2578081fd5b611beb85611b0b565b9350611bf960208601611b0b565b925060408501359150606085013567ffffffffffffffff811115611c1b578182fd5b611c2787828801611b27565b91505092959194509250565b60008060408385031215611c45578182fd5b611c4e83611b0b565b915060208301358015158114611c62578182fd5b809150509250929050565b60008060408385031215611c7f578182fd5b611c8883611b0b565b946020939093013593505050565b60008060408385031215611ca8578182fd5b82359150602083013567ffffffffffffffff811115611cc5578182fd5b611cd185828601611b27565b9150509250929050565b600060208284031215611cec578081fd5b813561175281612347565b600060208284031215611d08578081fd5b815161175281612347565b600060208284031215611d24578081fd5b813567ffffffffffffffff811115611d3a578182fd5b610e2d84828501611b27565b600060208284031215611d57578081fd5b813567ffffffffffffffff811115611d6d578182fd5b8201601f81018413611d7d578182fd5b610e2d84823560208401611a95565b600060208284031215611d9d578081fd5b5035919050565b60008151808452611dbc81602086016020860161226f565b601f01601f19169290920160200192915050565b7f2c20226465736372697074696f6e223a20224e4654204d61726b6574706c616381527f6520666f72204d65746162616c6c69736d2070726f6a656374222c20000000006020820152603c0190565b60008251611e3181846020870161226f565b9190910192915050565b60008351611e4d81846020880161226f565b835190830190611e6181836020880161226f565b01949350505050565b7f646174613a6170706c69636174696f6e2f6a736f6e3b6261736536342c000000815260008251611ea281601d85016020870161226f565b91909101601d0192915050565b707b20226e616d65223a20224d544250202360781b81528351600090611edc81601185016020890161226f565b6801116101134b2111d160bd1b6011918401918201528451611f0581601a84016020890161226f565b611f9b611f16601a83850101611dd0565b7f22747261697473223a205b7b202274726169745f74797065223a20226661737481527f222c202276616c7565223a20227472756522207d2c207b202274726169745f7460208201527f797065223a2022507572636861736564222c202276616c7565223a202274727560408201526603291103eae96160cd1b606082015260670190565b9150507022696d616765223a2022697066733a2f2f60781b81528351611fc881601184016020880161226f565b6222207d60e81b6011929091019182015260140195945050505050565b707b20226e616d65223a20224d544250202360781b8152600060118551602061201382848701838b0161226f565b6801116101134b2111d160bd1b91850183810192909252865161203c81601a8501848b0161226f565b61204d611f16601a83860101611dd0565b7022696d616765223a2022697066733a2f2f60781b81528754909350859150600181811c908083168061208157607f831692505b85831081141561209f57634e487b7160e01b89526022600452602489fd5b8080156120b357600181146120c8576120f8565b60ff198516888a0152838801890195506120f8565b60008c8152602090208a5b858110156120ee5781548a82018c01529084019088016120d3565b5050888489010195505b5050505050612110816222207d60e81b815260030190565b9998505050505050505050565b6001600160a01b038581168252841660208201526040810183905260806060820181905260009061215090830184611da4565b9695505050505050565b6020815260006117526020830184611da4565b60208082526032908201527f4552433732313a207472616e7366657220746f206e6f6e20455243373231526560408201527131b2b4bb32b91034b6b83632b6b2b73a32b960711b606082015260800190565b6020808252602e908201527f4552433732313a2063616c6c6572206973206e6f7420746f6b656e206f776e6560408201526d1c881b9bdc88185c1c1c9bdd995960921b606082015260800190565b6000821982111561222057612220612305565b500190565b6000826122345761223461231b565b500490565b600081600019048311821515161561225357612253612305565b500290565b60008282101561226a5761226a612305565b500390565b60005b8381101561228a578181015183820152602001612272565b83811115610d1e5750506000910152565b600181811c908216806122af57607f821691505b602082108114156122d057634e487b7160e01b600052602260045260246000fd5b50919050565b60006000198214156122ea576122ea612305565b5060010190565b6000826123005761230061231b565b500690565b634e487b7160e01b600052601160045260246000fd5b634e487b7160e01b600052601260045260246000fd5b634e487b7160e01b600052604160045260246000fd5b6001600160e01b031981168114610ebf57600080fdfe4142434445464748494a4b4c4d4e4f505152535455565758595a6162636465666768696a6b6c6d6e6f707172737475767778797a303132333435363738392b2fa26469706673582212207cb398614de91f230d8a769bc8d8ddb1fa8e279cd6d07c4d7bd982697c1596a364736f6c63430008040033516d5172645938366d535643746d4c397a7437706b596d325573625151414c4d66424c5339667753556d39575053516d62705139366a54317273506b4e7936326b56545a6f325677375746365550794c503638445857655950584d6a516d52667a386b386b704d5271333270506d66316a514a4647464772327463397871666459413866374675585a6a516d5066614b755263465662644e57767953373444587469646b7872466b5359526e32426661595a745361466e45",
    "linkReferences": {},
    "deployedLinkReferences": {}
}