{
    "_format": "hh-sol-artifact-1",
    "contractName": "NFTixBooth",
    "sourceName": "contracts/NFTixBooth.sol",
    "abi": [
        {
            "inputs": [],
            "stateMutability": "nonpayable",
            "type": "constructor"
        },
        {
            "anonymous": false,
            "inputs": [
                {
                    "indexed": true,
                    "internalType": "address",
                    "name": "owner",
                    "type": "address"
                },
                {
                    "indexed": true,
                    "internalType": "address",
                    "name": "approved",
                    "type": "address"
                },
                {
                    "indexed": true,
                    "internalType": "uint256",
                    "name": "tokenId",
                    "type": "uint256"
                }
            ],
            "name": "Approval",
            "type": "event"
        },
        {
            "anonymous": false,
            "inputs": [
                {
                    "indexed": true,
                    "internalType": "address",
                    "name": "owner",
                    "type": "address"
                },
                {
                    "indexed": true,
                    "internalType": "address",
                    "name": "operator",
                    "type": "address"
                },
                {
                    "indexed": false,
                    "internalType": "bool",
                    "name": "approved",
                    "type": "bool"
                }
            ],
            "name": "ApprovalForAll",
            "type": "event"
        },
        {
            "anonymous": false,
            "inputs": [
                {
                    "indexed": true,
                    "internalType": "address",
                    "name": "previousOwner",
                    "type": "address"
                },
                {
                    "indexed": true,
                    "internalType": "address",
                    "name": "newOwner",
                    "type": "address"
                }
            ],
            "name": "OwnershipTransferred",
            "type": "event"
        },
        {
            "anonymous": false,
            "inputs": [
                {
                    "indexed": true,
                    "internalType": "address",
                    "name": "from",
                    "type": "address"
                },
                {
                    "indexed": true,
                    "internalType": "address",
                    "name": "to",
                    "type": "address"
                },
                {
                    "indexed": true,
                    "internalType": "uint256",
                    "name": "tokenId",
                    "type": "uint256"
                }
            ],
            "name": "Transfer",
            "type": "event"
        },
        {
            "inputs": [
                {
                    "internalType": "address",
                    "name": "to",
                    "type": "address"
                },
                {
                    "internalType": "uint256",
                    "name": "tokenId",
                    "type": "uint256"
                }
            ],
            "name": "approve",
            "outputs": [],
            "stateMutability": "nonpayable",
            "type": "function"
        },
        {
            "inputs": [],
            "name": "availableTicketCount",
            "outputs": [
                {
                    "internalType": "uint256",
                    "name": "",
                    "type": "uint256"
                }
            ],
            "stateMutability": "view",
            "type": "function"
        },
        {
            "inputs": [],
            "name": "availableTickets",
            "outputs": [
                {
                    "internalType": "uint256",
                    "name": "",
                    "type": "uint256"
                }
            ],
            "stateMutability": "view",
            "type": "function"
        },
        {
            "inputs": [
                {
                    "internalType": "address",
                    "name": "owner",
                    "type": "address"
                }
            ],
            "name": "balanceOf",
            "outputs": [
                {
                    "internalType": "uint256",
                    "name": "",
                    "type": "uint256"
                }
            ],
            "stateMutability": "view",
            "type": "function"
        },
        {
            "inputs": [],
            "name": "closeSale",
            "outputs": [],
            "stateMutability": "nonpayable",
            "type": "function"
        },
        {
            "inputs": [
                {
                    "internalType": "uint256",
                    "name": "tokenId",
                    "type": "uint256"
                }
            ],
            "name": "getApproved",
            "outputs": [
                {
                    "internalType": "address",
                    "name": "",
                    "type": "address"
                }
            ],
            "stateMutability": "view",
            "type": "function"
        },
        {
            "inputs": [
                {
                    "internalType": "string",
                    "name": "",
                    "type": "string"
                }
            ],
            "name": "imgs",
            "outputs": [
                {
                    "internalType": "string",
                    "name": "",
                    "type": "string"
                }
            ],
            "stateMutability": "view",
            "type": "function"
        },
        {
            "inputs": [
                {
                    "internalType": "address",
                    "name": "owner",
                    "type": "address"
                },
                {
                    "internalType": "address",
                    "name": "operator",
                    "type": "address"
                }
            ],
            "name": "isApprovedForAll",
            "outputs": [
                {
                    "internalType": "bool",
                    "name": "",
                    "type": "bool"
                }
            ],
            "stateMutability": "view",
            "type": "function"
        },
        {
            "inputs": [],
            "name": "isSaleActive",
            "outputs": [
                {
                    "internalType": "bool",
                    "name": "",
                    "type": "bool"
                }
            ],
            "stateMutability": "view",
            "type": "function"
        },
        {
            "inputs": [],
            "name": "mint",
            "outputs": [],
            "stateMutability": "payable",
            "type": "function"
        },
        {
            "inputs": [],
            "name": "mintPrice",
            "outputs": [
                {
                    "internalType": "uint256",
                    "name": "",
                    "type": "uint256"
                }
            ],
            "stateMutability": "view",
            "type": "function"
        },
        {
            "inputs": [],
            "name": "name",
            "outputs": [
                {
                    "internalType": "string",
                    "name": "",
                    "type": "string"
                }
            ],
            "stateMutability": "view",
            "type": "function"
        },
        {
            "inputs": [],
            "name": "openSale",
            "outputs": [],
            "stateMutability": "nonpayable",
            "type": "function"
        },
        {
            "inputs": [],
            "name": "owner",
            "outputs": [
                {
                    "internalType": "address",
                    "name": "",
                    "type": "address"
                }
            ],
            "stateMutability": "view",
            "type": "function"
        },
        {
            "inputs": [
                {
                    "internalType": "uint256",
                    "name": "tokenId",
                    "type": "uint256"
                }
            ],
            "name": "ownerOf",
            "outputs": [
                {
                    "internalType": "address",
                    "name": "",
                    "type": "address"
                }
            ],
            "stateMutability": "view",
            "type": "function"
        },
        {
            "inputs": [],
            "name": "renounceOwnership",
            "outputs": [],
            "stateMutability": "nonpayable",
            "type": "function"
        },
        {
            "inputs": [
                {
                    "internalType": "address",
                    "name": "from",
                    "type": "address"
                },
                {
                    "internalType": "address",
                    "name": "to",
                    "type": "address"
                },
                {
                    "internalType": "uint256",
                    "name": "tokenId",
                    "type": "uint256"
                }
            ],
            "name": "safeTransferFrom",
            "outputs": [],
            "stateMutability": "nonpayable",
            "type": "function"
        },
        {
            "inputs": [
                {
                    "internalType": "address",
                    "name": "from",
                    "type": "address"
                },
                {
                    "internalType": "address",
                    "name": "to",
                    "type": "address"
                },
                {
                    "internalType": "uint256",
                    "name": "tokenId",
                    "type": "uint256"
                },
                {
                    "internalType": "bytes",
                    "name": "data",
                    "type": "bytes"
                }
            ],
            "name": "safeTransferFrom",
            "outputs": [],
            "stateMutability": "nonpayable",
            "type": "function"
        },
        {
            "inputs": [
                {
                    "internalType": "address",
                    "name": "operator",
                    "type": "address"
                },
                {
                    "internalType": "bool",
                    "name": "approved",
                    "type": "bool"
                }
            ],
            "name": "setApprovalForAll",
            "outputs": [],
            "stateMutability": "nonpayable",
            "type": "function"
        },
        {
            "inputs": [
                {
                    "internalType": "bytes4",
                    "name": "interfaceId",
                    "type": "bytes4"
                }
            ],
            "name": "supportsInterface",
            "outputs": [
                {
                    "internalType": "bool",
                    "name": "",
                    "type": "bool"
                }
            ],
            "stateMutability": "view",
            "type": "function"
        },
        {
            "inputs": [],
            "name": "symbol",
            "outputs": [
                {
                    "internalType": "string",
                    "name": "",
                    "type": "string"
                }
            ],
            "stateMutability": "view",
            "type": "function"
        },
        {
            "inputs": [
                {
                    "internalType": "uint256",
                    "name": "tokenId",
                    "type": "uint256"
                }
            ],
            "name": "tokenURI",
            "outputs": [
                {
                    "internalType": "string",
                    "name": "",
                    "type": "string"
                }
            ],
            "stateMutability": "view",
            "type": "function"
        },
        {
            "inputs": [],
            "name": "totalTicketCount",
            "outputs": [
                {
                    "internalType": "uint256",
                    "name": "",
                    "type": "uint256"
                }
            ],
            "stateMutability": "view",
            "type": "function"
        },
        {
            "inputs": [],
            "name": "totalTickets",
            "outputs": [
                {
                    "internalType": "uint256",
                    "name": "",
                    "type": "uint256"
                }
            ],
            "stateMutability": "view",
            "type": "function"
        },
        {
            "inputs": [
                {
                    "internalType": "address",
                    "name": "from",
                    "type": "address"
                },
                {
                    "internalType": "address",
                    "name": "to",
                    "type": "address"
                },
                {
                    "internalType": "uint256",
                    "name": "tokenId",
                    "type": "uint256"
                }
            ],
            "name": "transferFrom",
            "outputs": [],
            "stateMutability": "nonpayable",
            "type": "function"
        },
        {
            "inputs": [
                {
                    "internalType": "address",
                    "name": "newOwner",
                    "type": "address"
                }
            ],
            "name": "transferOwnership",
            "outputs": [],
            "stateMutability": "nonpayable",
            "type": "function"
        }
    ],
    "bytecode": "0x6080604052600a805460ff19168155600b819055600c556548c273950000600d553480156200002d57600080fd5b50604080518082018252600581526409c8ca8d2f60db1b60208083019182528351808501909452600484526309c8ca8b60e31b90840152815191929162000077916000916200024a565b5080516200008d9060019060208401906200024a565b505050620000aa620000a4620001eb60201b60201c565b620001ef565b620000c160086200024160201b62000c791760201c565b6040518060600160405280602e8152602001620023e0602e913960408051603160f81b815260096001820152905190819003602101902081516200010992602001906200024a565b506040518060600160405280602e815260200162002384602e913960408051601960f91b815260096001820152905190819003602101902081516200015292602001906200024a565b506040518060600160405280602e8152602001620023b2602e913960408051603360f81b815260096001820152905190819003602101902081516200019b92602001906200024a565b506040518060600160405280602e815260200162002356602e913960408051600d60fa1b81526009600182015290519081900360210190208151620001e492602001906200024a565b506200032d565b3390565b600780546001600160a01b038381166001600160a01b0319831681179093556040519116919082907f8be0079c531659141344cd1fd0a4f28419497f9722a3daafe3b4186f6b6457e090600090a35050565b80546001019055565b8280546200025890620002f0565b90600052602060002090601f0160209004810192826200027c5760008555620002c7565b82601f106200029757805160ff1916838001178555620002c7565b82800160010185558215620002c7579182015b82811115620002c7578251825591602001919060010190620002aa565b50620002d5929150620002d9565b5090565b5b80821115620002d55760008155600101620002da565b600181811c908216806200030557607f821691505b602082108114156200032757634e487b7160e01b600052602260045260246000fd5b50919050565b612019806200033d6000396000f3fe6080604052600436106101815760003560e01c80636352211e116100d1578063a22cb4651161008a578063dd11247e11610064578063dd11247e14610416578063e985e9c51461042c578063ee55efee14610475578063f2fde38b1461048a57600080fd5b8063a22cb465146103b6578063b88d4fde146103d6578063c87b56dd146103f657600080fd5b80636352211e146103185780636817c76c1461033857806370a082311461034e578063715018a61461036e5780638da5cb5b1461038357806395d89b41146103a157600080fd5b806314558fab1161013e5780633cfa7e01116101185780633cfa7e01146102b35780633d721ecd146102c957806342842e0e146102de578063564566a8146102fe57600080fd5b806314558fab1461025f578063167ff46f1461027e57806323b872dd1461029357600080fd5b806301ffc9a71461018657806303cbb032146101bb57806306fdde03146101e8578063081812fc146101fd578063095ea7b3146102355780631249c58b14610257575b600080fd5b34801561019257600080fd5b506101a66101a1366004611a41565b6104aa565b60405190151581526020015b60405180910390f35b3480156101c757600080fd5b506101db6101d6366004611a79565b6104fc565b6040516101b29190611da0565b3480156101f457600080fd5b506101db6105a1565b34801561020957600080fd5b5061021d610218366004611abf565b610633565b6040516001600160a01b0390911681526020016101b2565b34801561024157600080fd5b50610255610250366004611a18565b61065a565b005b610255610775565b34801561026b57600080fd5b50600b545b6040519081526020016101b2565b34801561028a57600080fd5b50610255610928565b34801561029f57600080fd5b506102556102ae36600461192a565b61093f565b3480156102bf57600080fd5b50610270600c5481565b3480156102d557600080fd5b50600c54610270565b3480156102ea57600080fd5b506102556102f936600461192a565b610970565b34801561030a57600080fd5b50600a546101a69060ff1681565b34801561032457600080fd5b5061021d610333366004611abf565b61098b565b34801561034457600080fd5b50610270600d5481565b34801561035a57600080fd5b506102706103693660046118de565b6109eb565b34801561037a57600080fd5b50610255610a71565b34801561038f57600080fd5b506007546001600160a01b031661021d565b3480156103ad57600080fd5b506101db610a85565b3480156103c257600080fd5b506102556103d13660046119de565b610a94565b3480156103e257600080fd5b506102556103f1366004611965565b610aa3565b34801561040257600080fd5b506101db610411366004611abf565b610adb565b34801561042257600080fd5b50610270600b5481565b34801561043857600080fd5b506101a66104473660046118f8565b6001600160a01b03918216600090815260056020908152604080832093909416825291909152205460ff1690565b34801561048157600080fd5b50610255610bec565b34801561049657600080fd5b506102556104a53660046118de565b610c00565b60006001600160e01b031982166380ac58cd60e01b14806104db57506001600160e01b03198216635b5e139f60e01b145b806104f657506301ffc9a760e01b6001600160e01b03198316145b92915050565b80516020818301810180516009825292820191909301209152805461052090611ee1565b80601f016020809104026020016040519081016040528092919081815260200182805461054c90611ee1565b80156105995780601f1061056e57610100808354040283529160200191610599565b820191906000526020600020905b81548152906001019060200180831161057c57829003601f168201915b505050505081565b6060600080546105b090611ee1565b80601f01602080910402602001604051908101604052809291908181526020018280546105dc90611ee1565b80156106295780601f106105fe57610100808354040283529160200191610629565b820191906000526020600020905b81548152906001019060200180831161060c57829003601f168201915b5050505050905090565b600061063e82610c82565b506000908152600460205260409020546001600160a01b031690565b60006106658261098b565b9050806001600160a01b0316836001600160a01b031614156106d85760405162461bcd60e51b815260206004820152602160248201527f4552433732313a20617070726f76616c20746f2063757272656e74206f776e656044820152603960f91b60648201526084015b60405180910390fd5b336001600160a01b03821614806106f457506106f48133610447565b6107665760405162461bcd60e51b815260206004820152603e60248201527f4552433732313a20617070726f76652063616c6c6572206973206e6f7420746f60448201527f6b656e206f776e6572206e6f7220617070726f76656420666f7220616c6c000060648201526084016106cf565b6107708383610ce1565b505050565b6000600c54116107bc5760405162461bcd60e51b81526020600482015260126024820152714e6f7420656e6f756768207469636b65747360701b60448201526064016106cf565b600d543410156107ff5760405162461bcd60e51b815260206004820152600e60248201526d09cdee840cadcdeeaced0408aa8960931b60448201526064016106cf565b600a5460ff166108475760405162461bcd60e51b815260206004820152601360248201527214dbdc9c9e4b081d1bdbc81b185d19481b1bdb606a1b60448201526064016106cf565b60006108ab61085d61085860085490565b610d4f565b600961086b61085860085490565b6040516108789190611b03565b9081526020016040518091039020604051602001610897929190611b93565b604051602081830303815290604052610e69565b90506000816040516020016108c09190611b4e565b60405160208183030381529060405290506108da81610fdd565b6108ec336108e760085490565b611020565b6108fe6108f860085490565b8261103a565b61090c600880546001019055565b6001600c600082825461091f9190611e9e565b90915550505050565b6109306110d4565b600a805460ff19166001179055565b610949338261112e565b6109655760405162461bcd60e51b81526004016106cf90611e05565b6107708383836111ac565b61077083838360405180602001604052806000815250610aa3565b6000818152600260205260408120546001600160a01b0316806104f65760405162461bcd60e51b8152602060048201526018602482015277115490cdcc8c4e881a5b9d985b1a59081d1bdad95b88125160421b60448201526064016106cf565b60006001600160a01b038216610a555760405162461bcd60e51b815260206004820152602960248201527f4552433732313a2061646472657373207a65726f206973206e6f7420612076616044820152683634b21037bbb732b960b91b60648201526084016106cf565b506001600160a01b031660009081526003602052604090205490565b610a796110d4565b610a836000611348565b565b6060600180546105b090611ee1565b610a9f33838361139a565b5050565b610aad338361112e565b610ac95760405162461bcd60e51b81526004016106cf90611e05565b610ad584848484611469565b50505050565b6060610ae682610c82565b60008281526006602052604081208054610aff90611ee1565b80601f0160208091040260200160405190810160405280929190818152602001828054610b2b90611ee1565b8015610b785780601f10610b4d57610100808354040283529160200191610b78565b820191906000526020600020905b815481529060010190602001808311610b5b57829003601f168201915b505050505090506000610b9660408051602081019091526000815290565b9050805160001415610ba9575092915050565b815115610bdb578082604051602001610bc3929190611b1f565b60405160208183030381529060405292505050919050565b610be48461149c565b949350505050565b610bf46110d4565b600a805460ff19169055565b610c086110d4565b6001600160a01b038116610c6d5760405162461bcd60e51b815260206004820152602660248201527f4f776e61626c653a206e6577206f776e657220697320746865207a65726f206160448201526564647265737360d01b60648201526084016106cf565b610c7681611348565b50565b80546001019055565b6000818152600260205260409020546001600160a01b0316610c765760405162461bcd60e51b8152602060048201526018602482015277115490cdcc8c4e881a5b9d985b1a59081d1bdad95b88125160421b60448201526064016106cf565b600081815260046020526040902080546001600160a01b0319166001600160a01b0384169081179091558190610d168261098b565b6001600160a01b03167f8c5be1e5ebec7d5bd14f71427d1e84f3dd0314c0f7b2291e5b200ac8c7c3b92560405160405180910390a45050565b606081610d735750506040805180820190915260018152600360fc1b602082015290565b8160005b8115610d9d5780610d8781611f1c565b9150610d969050600a83611e6b565b9150610d77565b60008167ffffffffffffffff811115610dc657634e487b7160e01b600052604160045260246000fd5b6040519080825280601f01601f191660200182016040528015610df0576020820181803683370190505b5090505b8415610be457610e05600183611e9e565b9150610e12600a86611f37565b610e1d906030611e53565b60f81b818381518110610e4057634e487b7160e01b600052603260045260246000fd5b60200101906001600160f81b031916908160001a905350610e62600a86611e6b565b9450610df4565b805160609080610e89575050604080516020810190915260008152919050565b60006003610e98836002611e53565b610ea29190611e6b565b610ead906004611e7f565b90506000610ebc826020611e53565b67ffffffffffffffff811115610ee257634e487b7160e01b600052604160045260246000fd5b6040519080825280601f01601f191660200182016040528015610f0c576020820181803683370190505b5090506000604051806060016040528060408152602001611fa4604091399050600181016020830160005b86811015610f98576003818a01810151603f601282901c8116860151600c83901c8216870151600684901c831688015192909316870151600891821b60ff94851601821b92841692909201901b91160160e01b835260049092019101610f37565b506003860660018114610fb25760028114610fc357610fcf565b613d3d60f01b600119830152610fcf565b603d60f81b6000198301525b505050918152949350505050565b610c7681604051602401610ff19190611da0565b60408051601f198184030181529190526020810180516001600160e01b031663104c13eb60e21b179052611510565b610a9f828260405180602001604052806000815250611531565b6000828152600260205260409020546001600160a01b03166110b55760405162461bcd60e51b815260206004820152602e60248201527f45524337323155524953746f726167653a2055524920736574206f66206e6f6e60448201526d32bc34b9ba32b73a103a37b5b2b760911b60648201526084016106cf565b60008281526006602090815260409091208251610770928401906117b3565b6007546001600160a01b03163314610a835760405162461bcd60e51b815260206004820181905260248201527f4f776e61626c653a2063616c6c6572206973206e6f7420746865206f776e657260448201526064016106cf565b60008061113a8361098b565b9050806001600160a01b0316846001600160a01b0316148061118157506001600160a01b0380821660009081526005602090815260408083209388168352929052205460ff165b80610be45750836001600160a01b031661119a84610633565b6001600160a01b031614949350505050565b826001600160a01b03166111bf8261098b565b6001600160a01b0316146112235760405162461bcd60e51b815260206004820152602560248201527f4552433732313a207472616e736665722066726f6d20696e636f72726563742060448201526437bbb732b960d91b60648201526084016106cf565b6001600160a01b0382166112855760405162461bcd60e51b8152602060048201526024808201527f4552433732313a207472616e7366657220746f20746865207a65726f206164646044820152637265737360e01b60648201526084016106cf565b611290600082610ce1565b6001600160a01b03831660009081526003602052604081208054600192906112b9908490611e9e565b90915550506001600160a01b03821660009081526003602052604081208054600192906112e7908490611e53565b909155505060008181526002602052604080822080546001600160a01b0319166001600160a01b0386811691821790925591518493918716917fddf252ad1be2c89b69c2b068fc378daa952ba7f163c4a11628f55a4df523b3ef91a4505050565b600780546001600160a01b038381166001600160a01b0319831681179093556040519116919082907f8be0079c531659141344cd1fd0a4f28419497f9722a3daafe3b4186f6b6457e090600090a35050565b816001600160a01b0316836001600160a01b031614156113fc5760405162461bcd60e51b815260206004820152601960248201527f4552433732313a20617070726f766520746f2063616c6c65720000000000000060448201526064016106cf565b6001600160a01b03838116600081815260056020908152604080832094871680845294825291829020805460ff191686151590811790915591519182527f17307eab39ab6107e8899845ad3d59bd9653f200f220920489ca2b5937696c31910160405180910390a3505050565b6114748484846111ac565b61148084848484611564565b610ad55760405162461bcd60e51b81526004016106cf90611db3565b60606114a782610c82565b60006114be60408051602081019091526000815290565b905060008151116114de5760405180602001604052806000815250611509565b806114e884610d4f565b6040516020016114f9929190611b1f565b6040516020818303038152906040525b9392505050565b80516a636f6e736f6c652e6c6f67602083016000808483855afa5050505050565b61153b8383611671565b6115486000848484611564565b6107705760405162461bcd60e51b81526004016106cf90611db3565b60006001600160a01b0384163b1561166657604051630a85bd0160e11b81526001600160a01b0385169063150b7a02906115a8903390899088908890600401611d63565b602060405180830381600087803b1580156115c257600080fd5b505af19250505080156115f2575060408051601f3d908101601f191682019092526115ef91810190611a5d565b60015b61164c573d808015611620576040519150601f19603f3d011682016040523d82523d6000602084013e611625565b606091505b5080516116445760405162461bcd60e51b81526004016106cf90611db3565b805181602001fd5b6001600160e01b031916630a85bd0160e11b149050610be4565b506001949350505050565b6001600160a01b0382166116c75760405162461bcd60e51b815260206004820181905260248201527f4552433732313a206d696e7420746f20746865207a65726f206164647265737360448201526064016106cf565b6000818152600260205260409020546001600160a01b03161561172c5760405162461bcd60e51b815260206004820152601c60248201527f4552433732313a20746f6b656e20616c7265616479206d696e7465640000000060448201526064016106cf565b6001600160a01b0382166000908152600360205260408120805460019290611755908490611e53565b909155505060008181526002602052604080822080546001600160a01b0319166001600160a01b03861690811790915590518392907fddf252ad1be2c89b69c2b068fc378daa952ba7f163c4a11628f55a4df523b3ef908290a45050565b8280546117bf90611ee1565b90600052602060002090601f0160209004810192826117e15760008555611827565b82601f106117fa57805160ff1916838001178555611827565b82800160010185558215611827579182015b8281111561182757825182559160200191906001019061180c565b50611833929150611837565b5090565b5b808211156118335760008155600101611838565b600067ffffffffffffffff8084111561186757611867611f77565b604051601f8501601f19908116603f0116810190828211818310171561188f5761188f611f77565b816040528093508581528686860111156118a857600080fd5b858560208301376000602087830101525050509392505050565b80356001600160a01b03811681146118d957600080fd5b919050565b6000602082840312156118ef578081fd5b611509826118c2565b6000806040838503121561190a578081fd5b611913836118c2565b9150611921602084016118c2565b90509250929050565b60008060006060848603121561193e578081fd5b611947846118c2565b9250611955602085016118c2565b9150604084013590509250925092565b6000806000806080858703121561197a578081fd5b611983856118c2565b9350611991602086016118c2565b925060408501359150606085013567ffffffffffffffff8111156119b3578182fd5b8501601f810187136119c3578182fd5b6119d28782356020840161184c565b91505092959194509250565b600080604083850312156119f0578182fd5b6119f9836118c2565b915060208301358015158114611a0d578182fd5b809150509250929050565b60008060408385031215611a2a578182fd5b611a33836118c2565b946020939093013593505050565b600060208284031215611a52578081fd5b813561150981611f8d565b600060208284031215611a6e578081fd5b815161150981611f8d565b600060208284031215611a8a578081fd5b813567ffffffffffffffff811115611aa0578182fd5b8201601f81018413611ab0578182fd5b610be48482356020840161184c565b600060208284031215611ad0578081fd5b5035919050565b60008151808452611aef816020860160208601611eb5565b601f01601f19169290920160200192915050565b60008251611b15818460208701611eb5565b9190910192915050565b60008351611b31818460208801611eb5565b835190830190611b45818360208801611eb5565b01949350505050565b7f646174613a6170706c69636174696f6e2f6a736f6e3b6261736536342c000000815260008251611b8681601d850160208701611eb5565b91909101601d0192915050565b717b20226e616d65223a20224e46546978202360701b815282516000906020611bc28260128601838901611eb5565b7f222c20226465736372697074696f6e223a202241204e46542d706f7765726564601292850192830152730103a34b1b5b2ba34b7339039bcb9ba32b69116160651b60328301527f22747261697473223a205b7b202274726169745f74797065223a20224368656360468301527f6b656420496e222c202276616c7565223a202266616c736522207d2c207b202260668301527f74726169745f74797065223a2022507572636861736564222c202276616c756560868301526d0111d10113a393ab291103eae96160951b60a68301527022696d616765223a2022697066733a2f2f60781b60b4830152845460c5908490600181811c9080831680611cc857607f831692505b868310811415611ce657634e487b7160e01b89526022600452602489fd5b808015611cfa5760018114611d0f57611d3f565b60ff1985168988015283890187019550611d3f565b60008c8152602090208a5b85811015611d355781548b82018a0152908401908901611d1a565b505086848a010195505b5050505050611d57816222207d60e81b815260030190565b98975050505050505050565b6001600160a01b0385811682528416602082015260408101839052608060608201819052600090611d9690830184611ad7565b9695505050505050565b6020815260006115096020830184611ad7565b60208082526032908201527f4552433732313a207472616e7366657220746f206e6f6e20455243373231526560408201527131b2b4bb32b91034b6b83632b6b2b73a32b960711b606082015260800190565b6020808252602e908201527f4552433732313a2063616c6c6572206973206e6f7420746f6b656e206f776e6560408201526d1c881b9bdc88185c1c1c9bdd995960921b606082015260800190565b60008219821115611e6657611e66611f4b565b500190565b600082611e7a57611e7a611f61565b500490565b6000816000190483118215151615611e9957611e99611f4b565b500290565b600082821015611eb057611eb0611f4b565b500390565b60005b83811015611ed0578181015183820152602001611eb8565b83811115610ad55750506000910152565b600181811c90821680611ef557607f821691505b60208210811415611f1657634e487b7160e01b600052602260045260246000fd5b50919050565b6000600019821415611f3057611f30611f4b565b5060010190565b600082611f4657611f46611f61565b500690565b634e487b7160e01b600052601160045260246000fd5b634e487b7160e01b600052601260045260246000fd5b634e487b7160e01b600052604160045260246000fd5b6001600160e01b031981168114610c7657600080fdfe4142434445464748494a4b4c4d4e4f505152535455565758595a6162636465666768696a6b6c6d6e6f707172737475767778797a303132333435363738392b2fa264697066735822122013d147188000c9168d7d37c4b4e6e60aa7f5d66ae7d1adf34fb389e372e7c69664736f6c63430008040033516d5172645938366d535643746d4c397a7437706b596d325573625151414c4d66424c5339667753556d39575053516d62705139366a54317273506b4e7936326b56545a6f325677375746365550794c503638445857655950584d6a516d52667a386b386b704d5271333270506d66316a514a4647464772327463397871666459413866374675585a6a516d5066614b755263465662644e57767953373444587469646b7872466b5359526e32426661595a745361466e45",
    "linkReferences": {},
    "deployedLinkReferences": {}
}